:020000040800F2
:10000000100E0020B10100088D2A0008ED22000822
:10001000892A000885070008A131000800000000B7
:10002000000000000000000000000000312C00086B
:10003000210B000800000000C92A0008112D00084B
:10004000CB010008CB010008CB010008CB01000860
:10005000CB010008CB010008CB010008CB01000850
:10006000CB010008CB010008CB010008CB01000840
:10007000CB010008CB010008CB010008CB01000830
:10008000CB010008CB010008CB01000800000000F4
:10009000000000000000000000000000CB0100088C
:1000A000CB010008CB010008CB010008CB01000800
:1000B000CB010008CB0100087D2D0008CB01000812
:1000C000CB010008CB010008CB010008CB010008E0
:1000D000CB010008F5300008CB010008000000004B
:1000E000CB010008CB010008CB0100080000000094
:1000F000000000000000000000000000CB0100082C
:1001000000000000CB010008CB010008CB01000873
:1001100000000000000000000000000000000000DF
:10012000CB010008CB010008CB010008CB0100087F
:10013000CB010008000000000000000000000000EB
:10014000000000000000000000000000CB010008DB
:10015000CB010008CB010008CB010008CB0100084F
:10016000CB010008CB0100080000000000000000E7
:10017000000000000000000000000000000000007F
:1001800000000000CB01000800000000000000009B
:10019000CB010008CB010008DFF810D000F040F9D7
:1001A0000048004709350008AFF30080100E00201A
:1001B0000648804706480047FEE7FEE7FEE7FEE701
:1001C000FEE7FEE7FEE7FEE7FEE7FEE7192D000883
:1001D000990100082DE9F05F0546002092469B46F4
:1001E00088460646814640241BE02846414647464D
:1001F000224600F0CDF853465A46C01A914110D31A
:1002000011461846224600F0B4F82D1A67EB010893
:100210004F4622460120002100F0ABF817EB000901
:100220004E41201EA4F10104DFDC484631462A4637
:100230004346BDE8F09F40EA01039B0703D009E075
:1002400008C9121F08C0042AFAD203E011F8013BC2
:1002500000F8013B521EF9D27047D2B201E000F81B
:10026000012B491EFBD270470022F6E710B513465A
:100270000A4604461946FFF7F0FF204610BD10B5A8
:10028000044604E00B7800F8013B03B1491C521E00
:10029000F8D2204610BDCAB2401E10F8011F8A4293
:1002A00002D00029F9D100207047421C10F8011B30
:1002B0000029FBD1801A704710B5002200E0521CC3
:1002C000835C8C5CA34201D1002BF8D1D8B2E1B29F
:1002D000401A10BD034611F8012B00F8012B002A2B
:1002E000F9D118467047000070B50F4D00B9286865
:1002F000002412E00A4602E09E4203D0521C13780A
:10030000002BF9D1DAB2224305D02BB124B1002160
:1003100000F8011B04E00446401C0678002EE9D1D9
:100320002860204670BD0000B405002070B5064668
:1003300002F05EFF046805460A220021304600F004
:1003400037F82C6070BD30B50B46014600202022E6
:10035000012409E021FA02F59D4205D303FA02F5D2
:10036000491B04FA02F52844151EA2F10102F1DC32
:1003700030BD202A04DB203A00FA02F10020704749
:100380009140C2F1200320FA03F3194390407047D3
:10039000202A04DB203A21FA02F00021704721FADA
:1003A00002F3D040C2F12002914008431946704741
:1003B0002DE9F04791460F4680460446002614F882
:1003C000015B2DB100F03EF80068405DC007F6D13A
:1003D0002B2D02D02D2D18D0641E4A4639462046BA
:1003E00000F034F827B13968A14201D1C7F8008084
:1003F00071054FF002040BD54042002803DD02F0E6
:10040000F7FE0460A007BDE8F08746F48066E4E7E5
:100410000028F8DA02F0ECFE04606FF00040F2E72A
:10042000064C074D06E0E06840F0010394E8070041
:1004300098471034AC42F6D3FFF7B2FE6837000895
:100440008837000800487047643700082DE9F05FDE
:1004500082460078002715468B460AF10104B9460A
:10046000302801D09DB113E014F8010B0127782842
:1004700003D0582801D045B10AE00DB1102D07D1A5
:100480000027102514F8010B02E0082500E00A25DA
:100490000026B0460EE005FB080005FB06F101272B
:1004A00001EB10461FFA80F8B6F5803F00D3B9463D
:1004B00014F8010B294600F018F80028EBDABBF11C
:1004C000000F05D00FB1641E00E05446CBF8004089
:1004D000B9F1000F06D002F08BFE02210160C81EA8
:1004E000BDE8F09F48EA0640FAE73A2800D23038E3
:1004F00020F02002412A01D3A2F13700884201D323
:100500004FF0FF30704730B58C1810F8012B12F007
:100510000F0301D110F8013B120906D110F8012B8D
:1005200003E010F8015B01F8015B5B1EF9D101E00B
:1005300001F8013B521EFBD1A142E6D3002030BDA1
:1005400055494A6822F440324A604A6843681A436F
:100550004A600268526822F4807203685A60026836
:100560005368026943EA022203685A6002685268CB
:1005700022F0407203685A600268526883681A4326
:1005800003685A600268926822F4006203689A6005
:1005900002689268C3681A4303689A603F4B826A94
:1005A0009A4218D00268926822F0706203689A60DA
:1005B00002689268836A1A4303689A6002689268C4
:1005C00022F0405203689A6002689268C36A1A4334
:1005D00003689A600BE00268926822F07062036818
:1005E0009A600268926822F0405203689A6002683A
:1005F000926822F0020203689A6002689368027EA1
:1006000043EA420203689A602022125CA2B10268A7
:10061000526842F4006203685A600268526822F429
:10062000604203685A6002685368426A521E43EA95
:10063000423203685A6005E00268526822F40062A0
:1006400003685A600268D26A22F470020368DA62B0
:100650000268D36A828B521E43EA02520368DA624E
:100660000268926822F4007203689A6002689368D4
:1006700090F8302043EA422203689A600268926848
:1006800022F4806203689A6002689368426943EAD0
:10069000822203689A607047002301400100000F26
:1006A00010B50E480E4908604FF4803048600021B4
:1006B0000B488160C1600161416101760121C16126
:1006C000002180F820104162064981620021C16248
:1006D00080F8301000F026FA10BD00000020014024
:1006E000040900200100000F08B500BF00200090A1
:1006F0001C48006840F400101A4908600846006869
:1007000000F40010009000BF00BF00BF0020009068
:1007100014481038006840F002001249103908608F
:100720000846006800F00200009000BF00BF0E48BD
:100730000E4908600E48486000210C4881604FF463
:100740008041016100214161C16101620A21C160F2
:100750000021816100F04EFB10B106A002F038FDCF
:1007600008BD000040380240005400408C090020C1
:10077000801A060049324320494E495420455252BE
:100780004F520A0000BFFEE770B506460C461546FC
:1007900010E00B48007838B165B9304602F00CF82B
:1007A000304602F04DF805E00548017805A002F05A
:1007B0000FFD0024201EA4F10104EAD170BD000049
:1007C000B00500204331583247205377697463687D
:1007D0003A25640A0000000010B5044601200449CF
:1007E0000870608D0022E16AFFF7CEFF10BD0000A7
:1007F000B005002000B587B000BF002001902E4852
:10080000006840F004002C4908600846006800F0C9
:100810000400019000BF00BF00BF00200190084607
:10082000006840F0040008600846006800F004001A
:10083000019000BF00BF00BF002001900846006883
:1008400040F0040008600846006800F004000190D1
:1008500000BF00BF08150290012003900490032000
:10086000059002A9154800F0C7F94FF48050029096
:1008700002A9124800F0C0F94FF40060029002A9EA
:100880000E4800F0B9F900BF012291020B4800F0B8
:10089000A5FA00BF00BF00224FF48051074800F0C6
:1008A0009DFA00BF00BF00224FF40061034800F032
:1008B00095FA00BF07B000BD303802400008024082
:1008C00010B50446607D412802D0422808D103E0DB
:1008D000192001F071FF07E0192001F0B1FF03E0DA
:1008E00002A002F075FC00BF00BF10BD43315832BA
:1008F00047205374617465204572726F720A00005C
:100900002DE9F0470446A0464F48D0F87C15204614
:10091000884708E020780D2802D020780A2801D1E5
:1009200000202070641C20780028F3D120704446F9
:1009300030214648FFF798FC3A212046FFF7ABFCF0
:10094000002848D042A12046FFF7CEFC0646002EE4
:1009500040D03046FFF7A9FC142802D90120BDE899
:10096000F0873046FFF7A1FC81464A4631463748BA
:10097000FFF785FC00203549087535A1FFF7B4FC69
:10098000054633A10020FFF7AFFC0746284602F0DA
:10099000ABFD70B12846FFF788FC81464A462946E0
:1009A0002A481530FFF76BFC0021284880F82910F1
:1009B0000FE01DB12846FFF7B9FC00E000202349F5
:1009C00048851FB13846FFF7B1FC00E000201F4901
:1009D000C86200BF12E02046FFF767FC142801D967
:1009E0000120BCE72046FFF760FC05462A46214669
:1009F0001648FFF744FC002014490875002513E051
:100A0000C5EBC500104A02EB80011048FFF754FC0B
:100A100040B9C5EBC5000C4A02EB800081690B4868
:100A2000884707E0681CC5B2074890F87805A842D7
:100A3000E6DC00BF2046FFF738FC05462946204685
:100A4000FFF712FC00208AE730000020E0090020B8
:100A50003A00000001460A460B4609E00878612882
:100A600005DB08787A2802DC087820380870491CF1
:100A700008780028F2D1114606E00878202802D034
:100A8000087803F8010B491C08780028F5D1187084
:100A90001146704700B587B000BF002001901E4886
:100AA000006840F002001C4908600846006800F039
:100AB0000200019000BF00BF00BF00200190084667
:100AC000006840F0020008600846006800F002007C
:100AD000019000BF00BF10200290012003900490FD
:100AE0000320059002A90D4800F086F80820029026
:100AF00002A90A4800F080F800BF0122102107482F
:100B000000F06CF900BF00BF01220821034800F08B
:100B100065F900BF07B000BD303802400004024054
:100B20007047000070B5044600250CB9012070BD67
:100B30001549A06A884200D000BF206C30B9204619
:100B400000F024F80020606484F83C00206C00F081
:100B5000100088B9206C20F4885040F00200206416
:100B60002046FFF7EDFC00206064206C20F00200BE
:100B700040F00100206400E0012500BF002084F85F
:100B80003C0000BF2846D2E70100000F10B586B038
:100B9000044600BF002000901548006840F48070B3
:100BA000134908600846006800F48070009000BF98
:100BB00000BF00BF002000900D481438006840F0CE
:100BC00001000B49143908600846006800F0010074
:100BD000009000BF00BF3020019003200290002051
:100BE000039001A9034800F007F806B010BD00000B
:100BF0004438024000000240F8B503460A4600258A
:100C0000002400200021CDE0012606FA01F5166837
:100C100006EA0504AC4273D15668022E02D056682B
:100C2000122E13D1CF0803F1200656F827004E07E5
:100C3000F70E0F26BE40B0434F07FF0E1669BE40A9
:100C40003043CF0803F1200646F8270018684F000C
:100C50000326BE40B043167906F003064F00BE409F
:100C6000304318605668012E08D05668022E05D011
:100C70005668112E02D05668122E13D198684F0074
:100C80000326BE40B0434F00D668BE403043986054
:100C9000586801268E40B0431679C6F300168E4080
:100CA00030435860D8684F000326BE40B0434F0021
:100CB0009668BE403043D860566806F08056B6F15C
:100CC000805F6ED100BF00260096384E366846F42D
:100CD0008046364F3E603E46366806F480460096B3
:100CE00000BF00BF324E8F0856F827008E07370F1F
:100CF0000F26BE40B0432F4EB34202D1002615E06E
:100D00004FE02D4EB34201D101260FE02B4EB342EE
:100D100001D102260AE02A4EB34201D1032605E0A2
:100D2000284EB34201D1042600E007268F073F0F6B
:100D3000BE4030431E4E8F0846F82700224E3068D2
:100D4000A043566806F48036B6F5803F00D12043B4
:100D50001D4E3060361D3068A043566806F40036DC
:100D6000B6F5003F00D12043174E361D3060361DCA
:100D70003068A043566806F48016B6F5801F00D18F
:100D80002043114E08363060361D3068A043566847
:100D900006F40016B6F5001F00D120430A4E0C36AB
:100DA0003060491C1029FFF42FAFF8BD44380240D1
:100DB00008380140000002400004024000080240E0
:100DC000000C024000100240003C01400246136942
:100DD0000B400BB1012000E0002070470AB1816197
:100DE00001E00B0483617047014800687047000010
:100DF0001400002070B504460CB9012070BD94F8B1
:100E00003D0028B9002084F83C00204600F0CCFBCF
:100E1000242084F83D002068006820F0010021684B
:100E2000086000F08FFD05465C496068884206D87E
:100E30005B48854201D2012007E0002005E05948C7
:100E4000854201D2012000E00020012800D1D5E731
:100E50005548B5FBF0F62068406820F03F0030436D
:100E6000216848604D496068884201D8701C07E0DD
:100E70004FF4967070434FF47A71B0FBF1F0401C60
:100E80002168096A21F03F0108432168086243494B
:100E90006068884214D8681E61684900B0FBF1F0B0
:100EA000401CC0F30B00042801D204203DE0681E62
:100EB00061684900B0FBF1F0401CC0F30B0034E066
:100EC000A06838B9681E616801EB4101B0FBF1F020
:100ED000401C0AE0681E616801EBC10202EB0111CF
:100EE000B0FBF1F0401C40F48040C0F30B0008B9A7
:100EF00001201AE0A06848B9681E616801EB410151
:100F0000B0FBF1F0401CC0F30B000CE0681E616800
:100F100001EBC10202EB0111B0FBF1F0401CC0F388
:100F20000B0040F4804040F400402168C9694CF651
:100F3000FF72914308432168C861D4E9070108435F
:100F40002168096821F0C001084321680860D4E9DC
:100F5000031008432168896848F2FF32914308432F
:100F600021688860D4E9050108432168C96821F037
:100F7000FF0108432168C8602068006840F0010054
:100F80002168086000202064202084F83D000020B3
:100F9000206384F83E0000BF30E70000A086010017
:100FA00080841E0000093D0040420F002DE9F84FEB
:100FB00004460F4690461E46FFF716FF05464FF0C3
:100FC000010994F83D0020287ED1192301225E49B1
:100FD0002046009501F0DCFA10B10220BDE8F88F40
:100FE00000BF94F83C00012801D10220F6E701205F
:100FF00084F83C0000BF2068006800F0010028B9B8
:101000002068006840F001002168086020680068DE
:1010100020F4006021680860242084F83D0000204E
:1010200020644A48E06200BF2068006840F4807095
:1010300021680860334600224FF0011120460095D8
:1010400001F0A6FA08B10120C8E707F0FE00216808
:101050000861FFF7C9FE054620684069C0F3400AF1
:1010600020684069C0F3802B10E0FFF7BDFE401BF5
:10107000B04200D816B9A02084F83D00206840692D
:10108000C0F3400A20684069C0F3802B94F83D000B
:10109000A02805D0BAF1000F02D1BBF1000FE4D0B7
:1010A000202084F83D0020684069C0F3400028B348
:1010B0002068006840F400702168086000BF0020CC
:1010C00000902068406900E03BE000902068806963
:1010D000009000BF00BF192301221B492046009544
:1010E00001F056FA08B1012078E7202084F83D008D
:1010F00000BF002084F83C0000BF6FE72068006854
:1011000040F40070216808606FF4806021684861D5
:10111000192301220C492046009501F039FA08B143
:1011200001205BE709F10109C145FFF47DAF2020F3
:1011300084F83D0000BF002084F83C0000BF01207F
:101140004CE702204AE70000020010000000FFFF09
:101150002DE9FC5F04460F4690469946DDE90CAB4D
:101160000E9EFFF741FE054694F83D00202870D101
:1011700019230122B0492046009501F009FA10B167
:101180000220BDE8FC9F00BF94F83C00012801D17B
:101190000220F6E7012084F83C0000BF20680068C8
:1011A00000F0010028B92068006840F001002168C3
:1011B00008602068006820F4006021680860222030
:1011C00084F83D00402084F83E0000202064C4F8EC
:1011D00024A0A4F82AB0608D20859848E0624B4690
:1011E000424639462046CDE9006501F0A1F808B134
:1011F0000120C6E7208D88B900BF0020019020683B
:101200004069019020688069019000BF00BF20689C
:10121000006840F400702168086040E0208D0128DB
:1012200018D12068006820F480602168086000BF41
:101230000020019020684069019020688069019039
:1012400000BF00BF2068006840F40070216808609B
:1012500025E0EFE0208D022816D12068006820F4F8
:101260008060216808602068006840F400602168A0
:10127000086000BF0020019020684069019020684C
:101280008069019000BF0AE000BF00200190206843
:101290004069019020688069019000BF00BFBAE0FA
:1012A000208D03287ED8208D012815D12A4631466D
:1012B000204601F012FA08B1012062E720680069B7
:1012C000616A0870606A401C6062208D401E208543
:1012D000608D401E60859EE0208D02282AD1334615
:1012E000002257492046009501F052F908B101202B
:1012F00047E72068006840F40070216808602068B3
:101300000069616A0870606A401C6062208D401E3E
:101310002085608D401E608520680069616A0870C4
:10132000606A401C6062208D401E2085608D401EDA
:10133000608570E03346002241492046009501F067
:1013400027F908B101201CE72068006820F48060BC
:101350002168086020680069616A0870606A401C42
:101360006062208D401E2085608D401E6085334662
:10137000002233492046009501F00AF908B1012006
:10138000FFE62068006840F400702168086020686B
:101390000069616A0870606A401C6062208D401EAE
:1013A000208500E010E0608D401E608520680069A7
:1013B000616A0870606A401C6062208D401E208552
:1013C000608D401E608526E02A463146204601F0A9
:1013D00084F908B10120D4E620680069616A0870C8
:1013E000606A401C6062208D401E2085608D401E1A
:1013F000608520684069C0F3800060B120680069A2
:10140000616A0870606A401C6062208D401E208501
:10141000608D401E6085208D00287FF441AF202024
:1014200084F83D00002084F83E0000BF84F83C00B2
:1014300000BFA6E60220A4E6020010000000FFFFA5
:10144000040001002DE9FC5F04460F4690469946D2
:10145000DDE90CAB0E9EFFF7C7FC054694F83D0096
:1014600020287DD1192301224D492046009501F005
:101470008FF810B10220BDE8FC9F00BF94F83C003B
:10148000012801D10220F6E7012084F83C0000BFCA
:101490002068006800F0010028B92068006840F06A
:1014A0000100216808602068006820F4006021685D
:1014B0000860212084F83D00402084F83E00002090
:1014C0002064C4F824A0A4F82AB0608D2085354893
:1014D000E0624B46424639462046CDE9006500F0C1
:1014E000C3FF08B10120C6E731E02A463146204655
:1014F00001F033F950B1206C042805D12068006850
:1015000040F40070216808600120B4E7606A007848
:1015100021680861606A401C6062208D401E208541
:10152000608D401E608520684069C0F3800070B106
:10153000208D60B1606A007821680861606A401C93
:101540006062208D401E2085608D401E6085208D4C
:101550000028CAD12A463146204600F0EBFF00E0C1
:101560001CE050B1206C042805D12068006840F4CC
:1015700000702168086001207DE72068006840F461
:10158000007021680860202084F83D00002084F865
:101590003E0000BF84F83C0000BF6CE702206AE711
:1015A000020010000000FFFF10B586B004461421B1
:1015B00001A8FEF759FE25492068884244D100BFA2
:1015C000002000902248006840F400102049086084
:1015D0000846006800F40010009000BF00BF00BF84
:1015E000002000901A481038006840F002001849A6
:1015F000103908600846006800F00200009000BF43
:1016000000BF402001901220029000200390032090
:1016100004900420059001A90E48FFF7EDFA802000
:1016200001900420059001A90A48FFF7E5FA08484F
:101630002038006840F40010054920390860084649
:10164000006820F40010086006B010BD005400408F
:10165000403802400004024003480068034909780A
:101660000844014908607047140000201C00002055
:1016700010B50D48006840F400700B49086008463A
:10168000006840F4806008600846006840F480709C
:101690000860032000F07CF80F2000F007F800F04D
:1016A0002BF8002010BD0000003C024070B504463D
:1016B0000E4800784FF47A71B1FBF0F00C490968DC
:1016C000B1FBF0F5284600F0EDFB08B1012070BD3C
:1016D000102C07D200222146501E00F01BF80548AE
:1016E000046001E00120F2E70020F0E71C00002088
:1016F0000000002018000020704700BF00F01F020B
:10170000012191404209920002F1E022C2F8001149
:1017100000BF70472DE9F05F80460D461646002752
:1017200001F0B6F9074639462A46334601F007006C
:10173000C0F1070ABAF1040F02D94FF0040A01E020
:10174000C0F1070AD14600F1040ABAF1070F02D22C
:101750004FF0000A01E0A0F1030AD4464FF0010A5D
:101760000AFA09FAAAF1010A0AEA020A0AFA0CFAC2
:101770004FF0010B0BFA0CFBABF1010B0BEA030B67
:101780004AEA0B042146404601F08AF9BDE8F09F81
:1017900000BF00F00702064B19684FF6FF0319401F
:1017A000044B0B4343EA0221014B196000BF704711
:1017B0000CED00E00000FA0570B504460D460CB9CA
:1017C000012070BD5848006800F00F00A84209D2FF
:1017D00055490D700846006800F00F00A84201D07E
:1017E0000120EEE7207800F0020002281DD12078C9
:1017F00000F00400042805D14C48006840F4E05093
:101800004A490860207800F00800082805D14748B8
:10181000006840F46040454908604448006820F092
:10182000F000A168084341490860207800F00100F9
:10183000A8B36068012807D13C4808380068C0F3A5
:101840004040B8B90120BCE76068022802D0606857
:10185000032807D1354808380068C0F3406048B90C
:101860000120AEE7314808380068C0F3400008B9ED
:101870000120A6E72D48006820F0030061680843B6
:101880002A490860FFF7B0FA064609E0FFF7ACFA0C
:10189000801B41F28831884202D9032091E707E09A
:1018A0002248006800F00C006168B0EB810FEDD1B8
:1018B0001D48006800F00F00A84209D91A490D70B0
:1018C0000846006800F00F00A84201D0012078E728
:1018D000207800F00400042807D11448006820F4A0
:1018E000E050E168084311490860207800F00800E2
:1018F000082808D10D48006820F46040216940EABA
:10190000C1000A49086000F03DF808490968C1F3C0
:101910000311074A515CC840064908600F20FFF7D1
:10192000C5FE00204DE70000003C024008380240A0
:10193000C836000800000020014800687047000019
:101940000000002000B5FFF7F7FF04490968C1F364
:101950008221034A515CC84000BD000008380240A3
:10196000D836000800B5FFF7E7FF04490968C1F35E
:101970004231034A515CC84000BD000008380240B3
:10198000D83600082DE9F047002400250026A1469E
:101990002548006800F00C0020B1042805D0082874
:1019A0003AD105E0DFF8849039E0DFF8849036E042
:1019B0001D48001F006800F03F041B48001F00681E
:1019C00000F4800078B11A481749091F0968C1F36B
:1019D0008811A0FB01700146224600233846FEF71D
:1019E000F9FB05460EE011480F49091F0968C1F3CC
:1019F0008811A0FB01700146224600233846FEF7FD
:101A0000E9FB05460848001F0068C0F30140401C80
:101A10004600B5FBF6F902E0DFF8109000BF00BF0A
:101A20004846BDE8F0870000083802400024F40072
:101A300000127A00F8B504460CB90120F8BD2078F0
:101A400000F00100002874D0F948006800F00C0094
:101A500004280DD0F648006800F00C00082813D1C7
:101A6000F348001F006800F48000B0F5800F0BD130
:101A7000EF4808380068C0F34040002859D060683B
:101A8000002856D10120D9E700BF6068B0F5803F3B
:101A900008D1E7480838006840F48030E449083944
:101AA00008601EE06068B0F5A02F0DD1E04808384E
:101AB000006840F48020DE49083908600846006864
:101AC00040F4803008600CE0D9480838006820F401
:101AD0008030D749083908600846006820F4802023
:101AE000086000BF606890B1FFF77EF9054606E028
:101AF000FFF77AF9401B642801D903209EE7CC4800
:101B000008380068C0F340400028F1D011E0FFF72A
:101B10006BF9054606E0FFF767F9401B642801D919
:101B200003208BE7C24808380068C0F34040002813
:101B3000F1D1207800F0020002285FD1BC48006893
:101B400000F00C0058B1BA48006800F00C000828FA
:101B50001CD1B748001F006800F48000B0B9B44839
:101B600008380068C0F3400020B1E068012801D0C7
:101B7000012063E7AE480838006820F0F8002169CA
:101B800040EAC100AA490839086037E0E06800B3BC
:101B90000120A8490860FFF727F9054606E0FFF78E
:101BA00023F9401B022801D9032047E7A048083841
:101BB0000068C0F340000028F1D09D480838006854
:101BC00020F0F800216940EAC1009949083908600D
:101BD00014E0002097490860FFF706F9054606E083
:101BE000FFF702F9401B022801D9032026E790489D
:101BF00008380068C0F340000028F1D1207800F0D8
:101C0000080008282CD16069A8B101208A49086021
:101C1000FFF7EAF8054606E0FFF7E6F8401B022862
:101C200001D903200AE782486C300068C0F3400005
:101C30000028F1D014E000207F490860FFF7D4F8B5
:101C4000054606E0FFF7D0F8401B022801D9032023
:101C5000F4E677486C300068C0F340000028F1D10A
:101C6000207800F00400042870D100267048383035
:101C7000006800F0805090B900BF002000906C48D0
:101C80003830006840F080506949383108600846B3
:101C9000006800F08050009000BF00BF0126674838
:101CA000006800F48070B0B96448006840F4807047
:101CB00062490860FFF798F8054606E0FFF794F8D8
:101CC000401B022801D90320B8E65C48006800F4F4
:101CD00080700028F2D000BFA068012808D15448C5
:101CE0006830006840F001005149683108601DE02B
:101CF000A06805280DD14E486830006840F0040007
:101D00004B49683108600846006840F001000860EF
:101D10000CE047486830006820F001004449683111
:101D200008600846006820F00400086000BFA06852
:101D3000A8B1FFF759F8054609E0FFF755F8401B31
:101D400041F28831884202D9032077E626E03848FC
:101D500068300068C0F340000028EED013E0FFF7C1
:101D600043F8054608E0FFF73FF8401B41F2883191
:101D7000884201D9032061E62D4868300068C0F32D
:101D800040000028EFD1012E07D1294838300068E3
:101D900020F0805026493831086000BFA069B8B3F0
:101DA0002348006800F00C0008285ED0A0690228D3
:101DB00046D100201F490866FFF716F8054606E0E1
:101DC000FFF712F8401B022801D9032036E6184815
:101DD00008380068C0F340600028F1D1D4E9070159
:101DE0000843616A40EA81110122A06AC2EB5000F7
:101DF00041EA00412C20005D41EA00600C49091FC6
:101E0000086001200B490866FEF7EEFF054607E073
:101E10002DE0FEF7E9FF401B022801D903200DE663
:101E2000034808380068C0F340600028F1D01EE085
:101E30000838024000004742800E474200700040D0
:101E400000200C490866FEF7CFFF054606E0FEF7C6
:101E5000CBFF401B022801D90320EFE506480068AC
:101E6000C0F340600028F2D101E00120E6E5002047
:101E7000E4E500000000474200380240042808D191
:101E80004FF0E021096941F004014FF0E0221161B7
:101E900007E04FF0E021096921F004014FF0E02252
:101EA0001161704770B504462546681EB0F1807F09
:101EB00001D301200FE0681E4FF0E02148610F219F
:101EC0004FF0FF3000F0ECFD00204FF0E021886182
:101ED00007200861002070BD70477047704710B53B
:101EE000044620680069C0F34000D8B12068C0688B
:101EF000C0F34000B0B16FF002002168086101201A
:101F000020772068806900F0030018B12046FFF7B1
:101F1000E5FF05E0204600F0ADF8204600F0ABF804
:101F20000020207720680069C0F38000D8B12068C5
:101F3000C068C0F38000B0B16FF004002168086190
:101F4000022020772068806900F4407018B1204694
:101F5000FFF7C4FF05E0204600F08CF8204600F0B3
:101F60008AF80020207720680069C0F3C000D8B14B
:101F70002068C068C0F3C000B0B16FF008002168ED
:101F80000861042020772068C06900F0030018B1C0
:101F90002046FFF7A3FF05E0204600F06BF820463F
:101FA00000F069F80020207720680069C0F3001075
:101FB000D8B12068C068C0F30010B0B16FF0100055
:101FC00021680861082020772068C06900F440700B
:101FD00018B12046FFF782FF05E0204600F04AF8DE
:101FE000204600F048F8002020772068006900F0C3
:101FF000010058B12068C06800F0010030B16FF0F6
:10200000010021680861204600F036F82068006968
:10201000C0F3C01058B12068C068C0F3C01030B120
:102020006FF08000216808612046FFF755FF2068A7
:102030000069C0F3801058B12068C068C0F38010F8
:1020400030B16FF0400021680861204600F08EF842
:1020500020680069C0F3401058B12068C068C0F320
:10206000401030B16FF02000216808612046FFF772
:1020700034FF10BD704770472F4988425AD12F490D
:102080000988491C2D4A11802D490988491C2C4A70
:1020900011802C490988491C2A4A11802A4909883B
:1020A000491C294A118029490988491C274A11805D
:1020B00027490988491C264A118020490988022994
:1020C00005DB00211D4A11800121224A11701C49A3
:1020D0000988052905DB0021194A118001211E4AC2
:1020E0001170184909880A2905DB0021154A118059
:1020F00001211A4A117014490988642905DB00215D
:10210000114A11800121164A117010490988C82905
:1021100005DB00210D4A11800121124A11700C4982
:102120000988B1F5C87F05DB0021094A118001212A
:102130000D4A1170704700004C0900202400002057
:1021400026000020280000202A0000202C0000206B
:102150002E0000201E0000201F0000202000002074
:10216000210000202200002023000020704710B52D
:1021700004460CB9012010BDA06900B100E000BF09
:1021800094F8390028B9002084F83800204600F07F
:1021900027F8242084F839002068C06820F4005013
:1021A0002168C860204600F0F1FD2068006920F435
:1021B0009040216808612068406920F02A00216869
:1021C00048612068C06840F400502168C860002061
:1021D000E063202084F8390084F83A000020CAE740
:1021E00010B586B004462249206888423ED100BF1F
:1021F000002000901F48006840F001001D49086061
:102200000846006800F00100009000BF00BF00BF5A
:102210000020009017481430006840F01000154965
:10222000143108600846006800F01000009000BFFC
:1022300000BF481501900220029001200390022067
:1022400004900720059001A90B48FEF7D5FC4FF438
:102250008060019001A90848FEF7CEFC2520FFF719
:102260004CFA032211462520FFF754FA06B010BDA0
:1022700000100140303802400000024010B5034613
:1022800093F83A0020282FD101B10AB9012010BDDE
:1022900000BF93F83800012801D10220F7E70120A0
:1022A00083F8380000BF99629A85DA850020D863E8
:1022B000222083F83A0000BF002083F8380000BFD6
:1022C0001868C06840F480701C68E0601868406955
:1022D00040F001001C6860611868C06840F0200090
:1022E0001C68E0600020D2E70220D0E700BFFEE7D4
:1022F000014608684069C0F38020B0B16FF4806087
:102300000A68506100200863202081F83D00002009
:1023100081F83E00086C40F00400086400BF002013
:1023200081F83C0000BF012070470020FCE700005E
:102330002DE9F84304460F4615469946DDE908861F
:102340002068006840F480602168086020680068A8
:1023500040F4807021680860434600224FF001116C
:102360002046009600F014F910B10120BDE8F88372
:1023700007F0FE002168086133464246394920468D
:1023800000F049F908B10120F0E700BF00200090FB
:1023900020684069009020688069009000BF00BFFD
:1023A00032464146204600F0D8F950B1206C04284E
:1023B00005D12068006840F40070216808600120A1
:1023C000D4E7B9F1010F03D1E8B22168086117E041
:1023D000C5F307202168086132464146204600F0D7
:1023E000BCF950B1206C042805D12068006840F485
:1023F0000070216808600120B8E7E8B22168086130
:1024000032464146204600F0A8F950B1206C04281D
:1024100005D12068006840F4007021680860012040
:10242000A4E72068006840F4807021680860434693
:1024300000224FF001112046009600F0A9F808B1E3
:10244000012093E7F8B240F00100216808613346AB
:1024500042460449204600F0DEF808B1012085E735
:10246000002083E7020001002DE9F8430446884676
:1024700015469946DDE908672068006840F48070D9
:1024800021680860334600224FF001112046009772
:1024900000F07EF810B10120BDE8F88308F0FE00DE
:1024A000216808613B4632462149204600F0B3F8D6
:1024B00008B10120F0E700BF0020009020684069CB
:1024C000009020688069009000BF00BF3A46314606
:1024D000204600F042F950B1206C042805D1206854
:1024E000006840F40070216808600120D4E7B9F169
:1024F000010F03D1E8B22168086117E0C5F3072096
:10250000216808613A463146204600F026F950B16C
:10251000206C042805D12068006840F40070216810
:1025200008600120B8E7E8B2216808610020B3E73D
:102530000200010070B504460D46164620E0204614
:10254000FFF7D6FE08B1012070BD681CC0B1FEF7D0
:102550004BFC801BA84200D895B9002020632020A6
:1025600084F83D00002084F83E00206C40F02000FC
:10257000206400BF002084F83C0000BF0120E3E796
:1025800020684069C0F380000028D8D00020DBE735
:102590002DE9F04104460D4617461E46DDF8188029
:1025A0001CE0701CD0B1FEF71FFCA0EB0800B0428D
:1025B00000D89EB900202063202084F83D00002030
:1025C00084F83E00206C40F02000206400BF002012
:1025D00084F83C0000BF0120BDE8F081C5F307404E
:1025E00001280AD120684069A9B20840A9B28842EE
:1025F00001D101200BE0002009E020688069A9B228
:102600000840A9B2884201D1012000E00020B84270
:10261000C7D00020E0E72DE9F04104460D461646FC
:102620001F463DE020684069C0F38020E8B1206883
:10263000006840F40070216808606FF480602168D1
:10264000486100202063202084F83D00002084F8A9
:102650003E00206C40F00400206400BF002084F89D
:102660003C0000BF0120BDE8F081701CC0B1FEF746
:10267000BBFBC01BB04200D896B9002020632020CD
:1026800084F83D00002084F83E00206C40F02000DB
:10269000206400BF002084F83C0000BF0120E2E776
:1026A000C5F3074001280AD120684069A9B2084053
:1026B000A9B2884201D101200BE0002009E0206886
:1026C0008069A9B20840A9B2884201D1012000E086
:1026D00000200028A6D00020C5E770B504460D46AE
:1026E000164632E020684069C0F30010A0B16FF0D8
:1026F00010002168486100202063202084F83D00FC
:10270000002084F83E00206C206400BF002084F884
:102710003C0000BF012070BDFEF766FB801BA84295
:1027200000D895B900202063202084F83D000020C7
:1027300084F83E00206C40F02000206400BF0020A0
:1027400084F83C0000BF0120E5E720684069C0F341
:1027500080100028C6D00020DDE770B504460D4685
:10276000164620E02046FFF7C3FD08B1012070BDEA
:10277000681CC0B1FEF738FB801BA84200D895B991
:1027800000202063202084F83D00002084F83E00D3
:10279000206C40F02000206400BF002084F83C0042
:1027A00000BF0120E3E720684069C0F3C0100028A3
:1027B000D8D00020DBE7000010B5044600BF00229F
:1027C0004FF480511148FEF709FB00BF00BF012202
:1027D00091020E48FEF702FB00BF00BF0122D102AA
:1027E0000A48FEF7FBFA00BF204600F03FFE002239
:1027F0000321104600F069F918B105A000F0E8FCCB
:1028000002E009A000F0E4FC10BD00000008024056
:102810004C617463685F43315832475F4D412045D6
:1028200072726F720A0000004C617463685F43311A
:102830005832475F4D41204E6F726D656C0A000043
:1028400010B5044600BF012211031248FEF7C6FA74
:1028500000BF00BF012291020E48FEF7BFFA00BF81
:1028600000BF00224FF400610A48FEF7B7FA00BF2C
:10287000204600F0FBFD01220221002000F025F996
:1028800018B105A000F0A4FC02E009A000F0A0FC33
:1028900010BD0000000802404C617463685F433162
:1028A0005832475F4D42204572726F720A00000035
:1028B0004C617463685F43315832475F4D42204E2C
:1028C0006F726D656C0A000070B506460C462548AF
:1028D00090F87805322801DB012070BD3046FDF705
:1028E000E4FC142801D30120F7E71E4890F878058E
:1028F000C0F13200A0420ADA1A4890F87805C0F117
:102900003200211A18A000F063FC0120E5E7002541
:1029100024E0C5EBC50206EB8201124A92F8782545
:10292000C2EBC2020F4B03EB8200FDF7D3FCC5EBF9
:10293000C50006EB800080690A4991F87815C1EB63
:10294000C101084A02EB81018861104690F87805C0
:10295000401C114681F87805681CC5B2A542D8DB39
:102960000020BAE7300000204D454D4F52595F45D9
:10297000584345454445443A2564200A0000000078
:1029800000B587B000BF002001901048006840F0FB
:1029900008000E4908600846006800F00800019031
:1029A00000BF00BF04200290012003900490032088
:1029B000059002A90648FEF71FF900BF0022042176
:1029C0000348FEF70BFA00BF07B000BD30380240E5
:1029D000000C024000B587B000BF002001902848DD
:1029E000006840F00100264908600846006800F0D1
:1029F0000100019000BF00BF4FF400400290012091
:102A0000039004900320059002A91E48FEF7F4F8F5
:102A10004FF48050029002A91A48FEF7EDF84FF4E7
:102A20000060029002A91748FEF7E6F84FF48070A4
:102A3000029002A91348FEF7DFF800BF00224FF40E
:102A400000411048FEF7CAF900BF00BF00224FF452
:102A500080510C48FEF7C2F900BF00BF00224FF4BE
:102A600000610848FEF7BAF900BF00BF00224FF42A
:102A700080710448FEF7B2F900BF07B000BD000046
:102A8000303802400000024000BFFEE770470000FF
:102A900002480068C0F30220704700000CED00E01F
:102AA00010B5002807DA0A07140E054A00F00F03D4
:102AB0001B1FD45403E00A07130E024A135410BD1F
:102AC00018ED00E000E400E07047F8B506460C465B
:102AD00015466946304600F011F80120A0409DF8E7
:102AE0000010084038B90120A8409DF800100840A7
:102AF00008B90020F8BD0120FCE70000FEB504463F
:102B00000D462646642001210B463246CDE9005190
:102B1000029040210148FEF71BFBFEBD8C090020FE
:102B200000B587B000BF002001903E48006840F02B
:102B300002003C4908600846006800F0020001906D
:102B400000BF00BF00BF002001900846006840F0B1
:102B5000040008600846006800F00400019000BF0F
:102B600000BF881502900120039004900320059077
:102B700002A92D48FEF740F88020029002A92A48B9
:102B8000FEF73AF84020029002A92748FEF734F8F1
:102B90004FF40070029002A92348FEF72DF84FF47D
:102BA000004002900120039004900320059002A9A8
:102BB0001E48FEF721F84FF48040029002A91B48FE
:102BC000FEF71AF800BF00224FF480711648FEF796
:102BD00005F900BF00BF00224FF400711248FEF754
:102BE000FDF800BF00BF002280210F48FEF7F6F875
:102BF00000BF00BF012240210B48FEF7EFF800BFE5
:102C000000BF00224FF400410848FEF7E7F800BF7C
:102C100000BF012291030548FEF7E0F800BF07B0AE
:102C200000BD0000303802400008024000040240AD
:102C3000704700002DE9F04393B004460D46164658
:102C40009846002700BF002001902F48006840F000
:102C500080502D4908600846006800F080500190BF
:102C600000BF00BF00BF002001902848006840F46A
:102C70004040264908600846006800F44040019042
:102C800000BF00BF0220079001200A9002200D9093
:102C900000210E910F9510941196CDF8488007A849
:102CA000FEF7C8FE07460FB100BFFEE70F200290F7
:102CB00002200390002004904FF4805005900020E3
:102CC0000690032102A8FEF777FD07460FB100BF6B
:102CD000FEE7FEF731FE4FF47A71B0FBF1F948469A
:102CE000FFF7E0F8FEF728FE4FF47A71B0FBF1F938
:102CF0004846FFF7D7F800221146501EFEF70AFD9E
:102D000013B0BDE8F083000040380240007000407E
:102D100010B5FEF7A1FC10BD1448006840F4700027
:102D2000124908601248006840F00100104908602C
:102D300000200F49083108600D4800680D4908401F
:102D40000B4908600C48091D0860081F006820F442
:102D50008020091F0860002005490C3108604FF0F1
:102D600000600249803908607047000088ED00E08B
:102D700000380240FFFFF6FE1030002410B5024874
:102D8000FFF7ADF810BD00004C0900202DE9F0411F
:102D900004462068006920F44050E1680843216837
:102DA00008612169A068084361690843E16940EA54
:102DB00001052068C06849F20C61884328432168F6
:102DC000C8602068406920F44070A1690843216808
:102DD0004861E069B0F5004F7ED1C449206888425F
:102DE00003D0C349206888425DD1FEF7BBFD00EBEC
:102DF000C00101EB001061684900B0FBF1F06421F3
:102E0000B0FBF1F00601FEF7ADFD00EBC00101EBF8
:102E1000001061684900B0FBF1F7FEF7A3FD00EB7D
:102E2000C00101EB001061684900B0FBF1F06421C2
:102E3000B0FBF1F000EBC00101EB0010A7EB80004C
:102E4000322101EBC0006421B0FBF1F000F0F8008A
:102E500006EB4006FEF786FD00EBC00101EB00101B
:102E600061684900B0FBF1F7FEF77CFD00EBC001A3
:102E700001EB001061684900B0FBF1F06421B0FB88
:102E8000F1F000EBC00101EB0010A7EB8000322154
:102E900001EBC0006421B0FBF1F000F0070030440A
:102EA0002168886020E1FEF74DFD00EBC00101EBD9
:102EB000001061684900B0FBF1F06421B0FBF1F053
:102EC0000601FEF73FFD00EBC00101EB0010616859
:102ED0004900B0FBF1F700E045E0FEF733FD00EB01
:102EE000C00101EB001061684900B0FBF1F0642102
:102EF000B0FBF1F000EBC00101EB0010A7EB80008C
:102F0000322101EBC0006421B0FBF1F000F0F800C9
:102F100006EB4006FEF716FD00EBC00101EB0010CA
:102F200061684900B0FBF1F7FEF70CFD00EBC00152
:102F300001EB001061684900B0FBF1F06421B0FBC7
:102F4000F1F000EBC00101EB0010A7EB8000322193
:102F500001EBC0006421B0FBF1F000F00700304449
:102F600021688860C0E061492068884203D06049D8
:102F7000206888425CD1FEF7F5FC00EBC00101EB54
:102F8000001061688900B0FBF1F6FEF7EBFC00EB86
:102F9000C00101EB001061688900B0FBF1F0642111
:102FA000B0FBF1F000EBC00101EB0010A6EB8000DC
:102FB000322101EB00106421B0FBF1F000F0F006CB
:102FC000FEF7D0FC00EBC00101EB00106168890046
:102FD000B0FBF1F06421B0FBF1F006EB0016FEF758
:102FE000C1FC00EBC00101EB001061688900B0FB7F
:102FF000F1F7FEF7B7FC00EBC00101EB00106168D0
:103000008900B0FBF1F06421B0FBF1F000EBC001EE
:1030100001EB0010A7EB8000322101EB00106421CE
:10302000B0FBF1F000F00F003044216888605BE0F5
:10303000FEF788FC00EBC00101EB0010616889001D
:10304000B0FBF1F6FEF77EFC00EBC00101EB0010D7
:1030500061688900B0FBF1F06421B0FBF1F000EB96
:10306000C00101EB0010A6EB8000322101EB001043
:103070006421B0FBF1F000F0F006FEF763FC00EB1A
:10308000C00101EB001061688900B0FBF1F0642120
:10309000B0FBF1F006EB0016FEF754FC00EBC001AC
:1030A00001EB001061688900B0FBF1F7FEF74AFC04
:1030B00000EBC00101EB001061688900B0FBF1F08A
:1030C0006421B0FBF1F000EBC00101EB0010A7EBB5
:1030D0008000322101EB00106421B0FBF1F000F020
:1030E0000F00304421688860BDE8F0810010014085
:1030F0000014014030B5224A12681268C2F340122F
:10310000002A3BD01E4A12685268D1B21D4A137879
:103110001278521C1B4C22701B4AD1542246127842
:10312000921E194B9A5C0D2A28D122461278521E03
:103130009A5C0A2A22D10022144B1A70144A107881
:103140000EE0FF2800DD00200F4A135C0F4A1478C0
:103150001278521C0D4D2A700E4A1355421CD0B2E3
:10316000084A12789042ECD1064A1278084B1A703D
:103170000122094B1A700022084B1A7030BD000062
:103180008406002010000020040700201100002009
:1031900012000020040800200F000020B0050020CD
:1031A00000BFFEE72DE9FE4305460C461646A04645
:1031B00045F08007642001233A464021CDE900868E
:1031C00002900248FEF73EF9BDE8FE838C0900201C
:1031D0000FB4054B10B503A9044A029800F01CF87F
:1031E00010BC5DF814FB0000CD340008080000207E
:1031F00000487047B805002002E008C8121F08C147
:10320000002AFAD170477047002001E001C1121F67
:10321000002AFBD1704700002DE9FF4F8BB09A4682
:103220000F460546002606E025280BD052460D998C
:1032300090476D1C761C28780028F5D10FB03046D9
:10324000BDE8F08F0024A0460122604900E004435D
:1032500015F8013F203B02FA03F00842F7D1287825
:103260002E2817D115F8010F44F004042A280ED097
:103270006FF02F022878A0F1300109290AD808EB55
:10328000880102EB410100EB01086D1CF2E757F8E1
:10329000048B6D1C287869283ED006DC0028CDD030
:1032A00063280BD0642804D136E0732810D0752829
:1032B0004BD052460D999047761C85E017F8040BC9
:1032C0008DF8000000208DF80100E946012003E0A0
:1032D00057F8049B4FF0FF3061074FF0000401D412
:1032E0000AE0641C44450DDA8442FADB19F8041044
:1032F0000029F6D106E0641C8442FCDB19F80410B6
:103300000029F8D1264404E019F8010B52460D9922
:103310009047641EF8D257E001CF4FF00A0B002807
:1033200002DA40422D2102E0210504D52B218DF83F
:103330002410012103E0E10705D02021F7E70DF17A
:10334000200908910CE00021F9E701CF4FF00A0BAA
:10335000F9E75946FCF7F7FF01F1300209F8012DB2
:103360000028F6D1ADEB090000F1200B600701D475
:103370004FF00108D84502DDA8EB0B0000E000206B
:103380008046002406E009A85246005D0D9990474A
:10339000641C761C08988442F5DB04E03020524619
:1033A0000D999047761CB8F10001A8F10108F5DCF1
:1033B00005E019F8010B52460D999047761CBBF1B8
:1033C0000001ABF1010BF4DC6D1C34E709280100AE
:1033D00000B587B000BF002001901348006840F09E
:1033E0000400114908600846006800F004000190DC
:1033F00000BF00BF012002900390049003200590BD
:1034000002A90A48FDF7F8FB002201210748FDF751
:10341000E5FC642000F02AF8012211460348FDF77C
:10342000DDFC07B000BD000030380240000802405B
:1034300010B5FFF7CDFF00F0C9F8FDF731F9FFF740
:103440009FFAFDF7D7F9FDF725FBFFF7C3FAFFF762
:1034500067FBFDF749F910BD10B504460420FEF7DF
:103460000DFD0148046010BD0400002030B5044685
:10347000002504E04FF47A7000F004F86D1CA542BA
:10348000F8D330BD70B5034600224FF0E0267569D1
:103490000D4E366803FB06F44FF0E026B16910E0EC
:1034A0004FF0E026B06988420BD0884202D20E1A53
:1034B000324402E02E1A0E4432440146A24200D3A6
:1034C00000E0EDE700BF70BD0400002000BF054A2A
:1034D000126802F04002002AF9D0C2B2014B5A60D1
:1034E0007047000000100140014608E008783028CD
:1034F00002DB0878392801DD01207047491C087873
:103500000028F3D100BFF8E790B0FEF7B1F804232C
:10351000022208216020FFF78DFB6020FFF79CFF4F
:103520004FF4E13000F098F8FFF782FF3822194994
:1035300002A8FCF780FE022102A8FFF7C5F94FF4AC
:103540007A730A2258211448FDF730FD10B913A0F0
:10355000FFF73EFE4FF47A730A2240210E48FDF732
:1035600025FD10B911A0FFF733FE14A103C9CDE961
:103570000001052269461820FFF714FE08E01148F3
:10358000007828B100200F4908700F48FDF7B8F9FE
:10359000F5E70000903600088C09002041443531E1
:1035A0003735205355434345530A000050434139B2
:1035B000363938205355434345530A00FFFFFFFF78
:1035C000FF0000000F0000200408002000B587B0B5
:1035D00000BF002001901E48006840F002001C4916
:1035E00008600846006800F00200019000BF00BFBC
:1035F000881502900120039004900320059002A9F1
:103600001448FDF7F9FA2020029002A91148FDF7AD
:10361000F3FA4FF4007002900020039002A90D48C5
:10362000FDF7EAFA012211020A48FDF7D7FB002252
:1036300020210848FDF7D2FB4FF400710548FDF743
:10364000C5FB012802D0002007B000BD0120FBE728
:10365000303802400004024010B5044609480A49C7
:1036600008600846446000218160C1600161816199
:103670000C214161FEF77BFD012204490248FEF75F
:10368000FDFD10BD00100140840600200E0000204A
:1036900043315832470000000000000000000000E5
:1036A0000000000000000000D90700084331583234
:1036B0005F5354415445000000000000000000002A
:1036C00000000000C1080008000000000000000029
:1036D00001020304060708090000000001020304B8
:1036E0000040404040404040404041414141414015
:1036F00040404040404040404040404040404040CA
:103700004005020202020202020202020202020258
:10371000022020202020202020202002020202025D
:1037200002029090909090901010101010101010B5
:1037300010101010101010101010101002020202C1
:103740000202888888888888080808080808080805
:103750000808080808080808080808080202020201
:1037600040000000E1360008883700080000002013
:10377000BC05000006050008A4370008BC050020B1
:10378000540800000832000804160024F442100215
:10379000FF0101FF01FF01FF01FF019AC6550A0069
:0437A000080100001C
:040000050800019955
:00000001FF
