:020000040800F2
:10000000400E0020B1010008CD4900085D32000813
:10001000C9490008F10C00087564000800000000E0
:10002000000000000000000000000000395E000831
:10003000611500080000000017560008ED5F000879
:10004000CB010008CB010008CB010008CB01000860
:10005000CB010008CB010008CB010008CB01000850
:10006000631500086D150008CB010008CB010008DE
:10007000CB010008CB010008CB010008CB01000830
:10008000CB010008CB010008CB01000800000000F4
:10009000000000000000000000000000CB0100088C
:1000A000CB010008CB010008CB010008CB01000800
:1000B000CB010008CB0100085D600008CB010008FF
:1000C000CB010008CB010008CB010008CB010008E0
:1000D000CB010008D5630008CB0100080000000038
:1000E000CB010008CB010008CB0100080000000094
:1000F000000000000000000000000000CB0100082C
:1001000000000000CB010008CB010008CB01000873
:1001100000000000000000000000000000000000DF
:10012000CB010008CB010008CB010008CB0100087F
:10013000CB010008000000000000000000000000EB
:10014000000000000000000000000000CB010008DB
:10015000CB010008CB010008CB010008CB0100084F
:10016000CB010008CB0100080000000000000000E7
:10017000000000000000000000000000000000007F
:1001800000000000CB01000800000000000000009B
:10019000CB010008CB010008DFF810D000F010FB05
:1001A00000480047156F0008AFF30080400E0020A4
:1001B0000648804706480047FEE7FEE7FEE7FEE701
:1001C000FEE7FEE7FEE7FEE7FEE7FEE7F95F000871
:1001D000990100082DE9F05F0546002092469B46F4
:1001E00088460646814640241BE02846414647464D
:1001F000224600F0E4F853465A46C01A914110D303
:1002000011461846224600F0CBF82D1A67EB01087C
:100210004F4622460120002100F0C2F817EB0009EA
:100220004E41201EA4F10104DFDC484631462A4637
:100230004346BDE8F09F000000487047187300086F
:1002400040EA01039B0703D009E008C9121F08C058
:10025000042AFAD203E011F8013B00F8013B521ED8
:10026000F9D27047D2B201E000F8012B491EFBD24F
:1002700070470022F6E710B513460A4604461946B1
:10028000FFF7F0FF204610BD10B5044604E00B78E0
:1002900000F8013B03B1491C521EF8D2204610BDA4
:1002A000CAB2401E10F8011F8A4202D00029F9D1BB
:1002B00000207047421C10F8011B0029FBD1801A56
:1002C000704710B5002200E0521C835C8C5CA34296
:1002D00001D1002BF8D1D8B2E1B2401A10BD0346CB
:1002E00011F8012B00F8012B002AF9D118467047AC
:1002F00070B50F4D00B92868002412E00A4602E0EC
:100300009E4203D0521C1378002BF9D1DAB222435B
:1003100005D02BB124B1002100F8011B04E00446F4
:10032000401C0678002EE9D12860204670BD0000F0
:100330001006002070B5064606F0C4F804680546AD
:100340000A220021304600F04AF82C6070BD00F00F
:10035000004230F000400AD0C10D01F56071C0F3D9
:10036000160042EA0151C2084007114370470020BD
:100370000146704730B50B4601460020202201247B
:1003800009E021FA02F59D4205D303FA02F5491B63
:1003900004FA02F52844151EA2F10102F1DC30BD79
:1003A000202A04DB203A00FA02F100207047914035
:1003B000C2F1200320FA03F3194390407047202A2A
:1003C00004DB203A21FA02F00021704721FA02F3FF
:1003D000D040C2F1200291400843194670472DE9F0
:1003E000F04791460F4680460446002614F8015B0C
:1003F0002DB1FFF721FF0068405DC007F6D12B2D1E
:1004000002D02D2D18D0641E4A463946204600F0F1
:10041000FBF927B13968A14201D1C7F80080710505
:100420004FF002040BD54042002803DD06F04AF8E5
:100430000460A007BDE8F08746F48066E4E7002882
:10044000F8DA06F03FF804606FF00040F2E72DE9BB
:10045000FE4F804681EA0300C00F0C46009021F059
:10046000004123F00045B8EB0200A94105D2404607
:10047000214690461C460B46024623F0004010439E
:1004800047D0270DC7F30A00C3F30A510290401A60
:10049000019040286BDAC3F3130040F4801B0098EE
:1004A000924620B10023D2EB030A63EB0B0B0198B9
:1004B0005946C0F140025046FFF772FF06460D460E
:1004C00050465946019A00F08DF910EB0800614141
:1004D000002487EA115284EAE7731A4340D0009A55
:1004E00062B3019A012A4FEA075215DC001B61EB47
:1004F00002014FF0004202EA0752CDE90042001C1F
:1005000041F5801132462B4600F0DCF903B0BDE81E
:10051000F08F40462146F9E7001B61EB0201001C09
:1005200041F5801300185B412018A2F5001747EB36
:10053000030140EAD570B6196D4111E06D084FEA2C
:10054000360645EAC0754FEA0752001B61EB02010F
:10055000001C41F5801149084FEA30000019514153
:1005600032462B4603B0BDE8F04F00F09CB900982E
:10057000012240000023D0EB020263EBE0730098FD
:1005800021464FEAE074B8EB000061EB0401E9E7B3
:1005900083F000435BE781F0004158E72DE9FE4F0F
:1005A00081EA030404F0004421F0004100944FF07C
:1005B000000B23F0004350EA01045ED052EA03042A
:1005C0005BD0C3F30A54C1F30A552C44A4F2F334AC
:1005D0000194A0FB0254C1F3130141F48011C3F351
:1005E000130343F4801301FB024400FB034E840A0F
:1005F000970A44EA815447EA8357A4FB07680295A7
:100600008D0A05FB07854FEA932C04FB0C54270544
:10061000029D4FEA065847EA1637B5EB08056EEB20
:10062000070C870E920E47EA811742EA8312A7FB56
:100630000201B6EB0B0164EB00042B0D43EA0C3313
:100640005E1844EB1C50DA465146E7FB0201C5F345
:1006500013044FEA0B3343EA14534FEA0432019C6C
:1006600043EA0603A4F10C040294009CCDE900B413
:1006700000F028F903B0BDE8F08F00200146F9E74B
:100680002DE9F04D81EA030404F0004B21F0004510
:1006900014464FF0000A23F0004150EA050220D032
:1006A00054EA01021DD0C5F30A570246C5F31303ED
:1006B000C1F31300C1F30A5640F4801543F48013CC
:1006C000A7EB0608101BD64608F2FD3873EB0500B1
:1006D00002D308F1010801E092185B41B8F1000F64
:1006E00003DA00200146BDE8F08D00204FF48011B0
:1006F000064684460EE0171B73EB050705D3121B55
:1007000063EB050306434CEA010C49084FEA30004D
:1007100092185B4150EA0107EDD152EA030012D072
:1007200082EA040083EA0501084305D0101BAB41AF
:1007300006D20122002306E000224FF0004302E02F
:100740006FF0010253101AEB06004CEB085110EB4E
:100750000A0041EB0B01BDE8F04D00F0A4B8C1F375
:100760000A52C1F3130140F2FF3341F480119A425F
:1007700002DA00200146704740F233439A42A2F267
:10078000334202DC5242FFF71ABEFFF709BE0000F7
:1007900030B5041E71F1000404DB4FF00044404208
:1007A00064EB0101141E73F1000405DB1C464FF0DD
:1007B0000043524263EB0403994208BF904230BDAC
:1007C000064C074D06E0E06840F0010394E807009E
:1007D00098471034AC42F6D3FFF7E2FC4C730008A4
:1007E0006C730008202A06DBCB17203A41FA02F08E
:1007F00043EAE07306E041FA02F3D040C2F120027E
:1008000091400843194670472DE9F05F8246007811
:10081000002715468B460AF10104B946302801D05D
:100820009DB113E014F8010B0127782803D0582854
:1008300001D045B10AE00DB1102D07D100271025D8
:1008400014F8010B02E0082500E00A250026B04656
:100850000EE005FB080005FB06F1012701EB104641
:100860001FFA80F8B6F5803F00D3B94614F8010BA3
:10087000294600F075F80028EBDABBF1000F05D02F
:100880000FB1641E00E05446CBF80040B9F1000FF0
:1008900006D005F017FE02210160C81EBDE8F09FDA
:1008A00048EA0640FAE710B5141E73F1000408DAAE
:1008B000401C41F1000192185B411A4301D120F024
:1008C000010010BD2DE9F04D92469B4611B1B1FAE1
:1008D00081F202E0B0FA80F220329046FFF760FD2C
:1008E00004460F4640EA0A0041EA0B0153465A46C5
:1008F000084313D0114653EA010019D0C8F1400251
:100900005046FFF75CFD05460E46504659464246A6
:10091000FFF746FD084305D0012004E02046394694
:10092000BDE8F08D0020054346EAE0762C433743CE
:100930000A986305E40AA0EB08000022FD0A44EAD5
:1009400047540A3002D500200146E9E70105101995
:100950006941DDE9084500196941BDE8F04DA2E7AC
:100960003A2800D2303820F02002412A01D3A2F1E7
:100970003700884201D34FF0FF30704770B58C18B4
:1009800010F8015B15F0070301D110F8013B2A11A3
:1009900006D110F8012B03E010F8016B01F8016B90
:1009A0005B1EF9D12B0705D40023521E0DD401F88C
:1009B000013BFAE710F8013BCB1A921C03E013F855
:1009C000015B01F8015B521EF9D5A142D8D300208A
:1009D00070BD000055494A6822F440324A604A68B6
:1009E00043681A434A600268526822F480720368BE
:1009F0005A6002685368026943EA022203685A6037
:100A00000268526822F0407203685A6002685268B5
:100A100083681A4303685A600268926822F400628D
:100A200003689A6002689268C3681A4303689A6010
:100A30003F4B826A9A4218D00268926822F0706234
:100A400003689A6002689268836A1A4303689A602E
:100A50000268926822F0405203689A6002689268C5
:100A6000C36A1A4303689A600BE00268926822F036
:100A7000706203689A600268926822F040520368CC
:100A80009A600268926822F0020203689A60026823
:100A90009368027E43EA420203689A602022125C55
:100AA000A2B10268526842F4006203685A600268A8
:100AB000526822F4604203685A6002685368426ACE
:100AC000521E43EA423203685A6005E002685268E7
:100AD00022F4006203685A600268D26A22F470024B
:100AE0000368DA620268D36A828B521E43EA0252BA
:100AF0000368DA620268926822F4007203689A60FE
:100B00000268936890F8302043EA422203689A60B2
:100B10000268926822F4806203689A6002689368AF
:100B2000426943EA822203689A60704700230140C9
:100B30000100000F10B500BF00228021094801F01C
:100B400005F900BF00BF01221102064801F0FEF8BE
:100B500000BF00BF01224021024801F0F7F800BFAA
:100B600010BD00000008024010B500BF0122802126
:100B7000094801F0EBF800BF00BF0122110206484E
:100B800001F0E4F800BF00BF00224021024801F05C
:100B9000DDF800BF10BD00000008024010B50E488F
:100BA0000E4908604FF48030486000210B48816096
:100BB000C1600161416101760121C161002180F8BC
:100BC00020104162064981620021C16280F8301024
:100BD00000F052FE10BD000000200140600900201E
:100BE0000100000F10B500BF00224FF4004109487A
:100BF00001F0ACF800BF00BF01225102064801F02D
:100C0000A5F800BF00BF01229103024801F09EF841
:100C100000BF10BD000402400008024010B500BF34
:100C20000122D103094801F091F800BF00BF012261
:100C30005102074801F08AF800BF00BF00224FF4BC
:100C40008041024801F082F800BF10BD000402405C
:100C50000008024008B500BF002000901C48006852
:100C600040F400101A4908600846006800F40010BB
:100C7000009000BF00BF00BF002000901448103853
:100C8000006840F002001249103908600846006808
:100C900000F00200009000BF00BF0E480E4908603F
:100CA0000E48486000210C4881604FF4804101618A
:100CB00000214161C16101620A21C160002181619D
:100CC00001F050F810B106A005F0ECFB08BD0000E3
:100CD0004038024000540040E8090020801A060015
:100CE00049324320494E4954204552524F520A003E
:100CF00000BFFEE72DE9F04782460C461546002767
:100D0000B8463BE020480078D0B985B9504602F09B
:100D100047FD8146504602F089FD0646B9F1000FB5
:100D200000D10EB17F1C19E008F1010816E0012D79
:100D300014D1504603F068FE504603F065FE0DE006
:100D400011480078012809D110A005F0ABFB4246FC
:100D5000394613A005F0A6FB002411E0201E04F183
:100D600001040BD101200849087015A005F09AFB79
:100D7000424639460AA005F095FB01E0002CC1D19E
:100D800000BFBDE8F0870000000600204331583264
:100D900047205377697463683A4F46460A0000005B
:100DA00053756363657373204E756D202564203B16
:100DB000204661696C204E756D202564200A000074
:100DC0005465737420636F756E74206F76657266F8
:100DD0006C6F770A0000000010B50446A07D012862
:100DE0000AD1E07D40B9002007490870627D608B20
:100DF0000121FFF77FFF05E0A07D022802D12046F8
:100E000000F06AF810BD00000006002000B587B0B1
:100E100000BF002001902E48006840F004002C49DB
:100E200008600846006800F00400019000BF00BFA1
:100E300000BF002001900846006840F004000860F0
:100E40000846006800F00400019000BF00BF00BF2A
:100E5000002001900846006840F004000860084641
:100E6000006800F00400019000BF00BF0815029068
:100E70000120039004900320059002A9154800F07A
:100E800073FE4FF48050029002A9124800F06CFEED
:100E90004FF40060029002A90E4800F065FE00BF0A
:100EA000012291020B4800F051FF00BF00BF002259
:100EB0004FF48051074800F049FF00BF00BF0022F7
:100EC0004FF40061034800F041FF00BF07B000BDD0
:100ED000303802400008024010B50446207E10B1B0
:100EE000012808D103E0142002F05AFC07E0142086
:100EF00002F09CFC03E003A005F0D4FA00BF00BFA1
:100F000010BD00004331583247205374617465208E
:100F10004572726F720A00002DE9F04F93B00446DB
:100F20004FF00009A246A548D0F87C152046884716
:100F300008E020780D2802D020780A2801D100206E
:100F40002070641C20780028F3D12070544634218E
:100F500006A8FFF78EF9322206A9204605F08EFF7B
:100F60009DF8180018B9012013B0BDE8F08F1821C2
:100F70006846FFF77EF93A2106A8FFF791F90028A5
:100F800070D08FA106A8FFF7B3F90746002F6AD0EB
:100F90003846FFF78FF9142800D90AE13846FFF7E1
:100FA00089F983465A4639466846FFF76DF90020AD
:100FB0008DF8140082A1FFF79BF9054680A100205F
:100FC000FFF796F906467EA10020FFF791F98046CB
:100FD0002DB37CA12846FFF774F928B900207B497E
:100FE00048754FF001091AE079A12846FFF769F921
:100FF00020B9012075494875814610E07348FFF714
:1010000059F9834659467148FFF733F92846FFF7E7
:1010100051F983465A4629466C48FFF735F9002EA8
:1010200074D06EA13046FFF74CF910BB0120674920
:101030008875B8F1000F1BD06AA14046FFF741F94F
:1010400028B900206149C8756749087074E067A134
:101050004046FFF736F938B901205C49C875624946
:10106000087069E06AE068E061A005F01BFAA0E0A2
:101070009FE063A13046FFF724F9002854D10220F5
:1010800052498875404605F031FF002854D05EA1D2
:101090004046FFF716F918B900204C4908764BE096
:1010A0005AA14046FFF70DF918B9012047490876C3
:1010B00042E057A14046FFF704F918B9022043491E
:1010C000087639E053A14046FFF7FBF818B9032032
:1010D0003E49087630E050A14046FFF7F2F818B9D3
:1010E00004203A49087627E04CA14046FFF7E9F88A
:1010F00018B90520354908761EE049A14046FFF79A
:10110000E0F820B906203149087615E00DE02EA15F
:101110004046FFF7D6F818B907202C4908760BE0AF
:1011200040A005F0BFF944E043E02EB9B9F1000F4B
:1011300002D04FF000093CE000BF11E006A8FFF725
:10114000B9F8142800D934E02046FFF7B3F8054673
:101150002A4606A96846FFF797F800208DF8140084
:10116000002513E0C5EBC500144A02EB8001684678
:10117000FFF7A7F840B9C5EBC500104A02EB8000A5
:1011800081691248884707E0681CC5B20B4890F88F
:101190007805A842E6DC00BF2046FFF78BF805463D
:1011A00029462046FFF765F823A005F07BF90020CB
:1011B000DAE622A005F076F90120D5E664000020E9
:1011C0003A0000004C41544348000000E405002070
:1011D0004E4F4E4C41544348000000004155544F7F
:1011E000000000004F4E0000000600204F46460061
:1011F0004175746F20436D64204572726F720A00EE
:101200005354415455530000410000004200000077
:1012100043000000440000004500000046000000BC
:1012200047000000537461746520436D642045726B
:10123000726F720A000000003E000000436D6420DF
:101240004572726F720D0A3E0000000001460A46A8
:101250000B4609E00878612805DB08787A2802DC6B
:10126000087820380870491C08780028F2D1114607
:1012700006E00878202802D0087803F8010B491C02
:1012800008780028F5D11870114670472DE9F0470D
:1012900007460C4600250026A846A94632E01C4811
:1012A000007888B9384600F021F98046384600F0C9
:1012B000DFF88146B8F1000F02D1B9F1000F01D07B
:1012C000761C0FE06D1C0DE011480078012809D153
:1012D000002410A005F0E6F83246294612A005F0D9
:1012E000E1F811E0201E04F101040BD101200849AE
:1012F000087018A005F0D6F8324629460AA005F075
:10130000D1F801E0002CCAD100BFBDE8F087000091
:1013100000060020433158324720537769746368D0
:10132000204F46460A00000043315832472041759D
:10133000746F2053756363657373204E756D20253C
:1013400064203B204661696C204E756D2025642029
:101350000A0000005465737420636F756E74206F0B
:10136000766572666C6F772C546578742053746F51
:10137000700A000010B50446A07D012809D1E07D67
:1013800038B9002006490870608B0121FFF77EFF05
:1013900005E0A07D022802D1204600F049F810BDEA
:1013A0000006002000B587B000BF002001901E4855
:1013B000006840F002001C4908600846006800F020
:1013C0000200019000BF00BF00BF0020019008464E
:1013D000006840F0020008600846006800F0020063
:1013E000019000BF00BF10200290012003900490E4
:1013F0000320059002A90D4800F0B6FB08200290DA
:1014000002A90A4800F0B0FB00BF012210210748E2
:1014100000F09CFC00BF00BF01220821034800F03F
:1014200095FC00BF07B000BD303802400004024008
:1014300010B50446207E10B1012808D103E0142025
:1014400000F054F807E0142000F012F803E003A0C5
:1014500005F028F800BF00BF10BD0000443258322C
:1014600042205374617465204572726F720A0000E5
:1014700010B5044600BF01221021114800F066FC9F
:1014800000BF00BF002208210D4800F05FFC00BF34
:10149000204605F0C3FC0021012004F0ABF820B980
:1014A0000521002004F0A6F820B106A004F0FAFF00
:1014B000012010BD08A004F0F5FF0020F9E70000AE
:1014C0000004024044325832425F42617220457249
:1014D000726F720A0000000044325832425F42616B
:1014E00072204E6F726D656C0A00000010B50446E4
:1014F00000BF002210210F4800F028FC00BF00BFF1
:10150000012208210B4800F021FC00BF204605F015
:1015100085FC06220721002004F0B0F820B106A0C7
:1015200004F0C0FF012010BD08A004F0BBFF0020A4
:10153000F9E700000004024044325832425F43722F
:101540006F7373204572726F720A00004432583212
:10155000425F43726F7373204E6F726D656C0A0049
:10156000704710B5042000F0F1FA10BD10B5082046
:1015700000F0ECFA10BD000070B52DED028B0446B2
:1015800021A12046FEF79DFEE8B93221042000F09B
:101590007BF8643800EE100AB8EEC00AF2EE080AD2
:1015A00020EE200ADFED1A0A80EE201A11EE105A02
:1015B0002846FEF7CCFE41EC180B53EC182B15A077
:1015C00004F070FF1CE019A12046FEF77AFEA0B9D6
:1015D0003221052000F058F800EE100AB8EE400A5B
:1015E00010EE105A2846FEF7B2FE41EC180B53ECF1
:1015F000182B10A004F056FF02E011A004F052FFD7
:10160000BDEC028B70BD0000564F4C544147450065
:1016100000007A445643432043555252454E543AB3
:1016200025302E326620560A00000000504F5745E4
:10163000520000005643433A25302E32660A00001D
:1016400041443F20436D64204572726F720A00006E
:101650001FB504460094012001900720029000204D
:1016600003906946074800F031F8064800F0D0F9C9
:101670000A21044800F06AF9024800F0F9F880B243
:1016800004B010BD600900202DE9F04107460C466A
:101690000025002605E03846FFF7DAFF0544701CF8
:1016A000C6B2A642F7DBB5FBF4F080B2BDE8F0812C
:1016B00010B50446618B02A004F0F4FE10BD0000DA
:1016C00054696D65723A25640A00000038B5024617
:1016D0000020009000BF92F83C00012801D10220B8
:1016E00038BD012082F83C0000BF0868092816D9DF
:1016F0001068C0680C780A3C04EB44050724AC4031
:10170000A0431468E0600C780A3C04EB4404886849
:10171000A0401468E46820431468E06013E0106897
:1017200000690C7804EB44050724AC40A04314681E
:1017300020610C7804EB44048868A0401468246994
:101740002043146820614868072817D21068406B4E
:101750000C79641E04EB84051F24AC40A04314687C
:101760006063088880B20C79641E04EB8404A04096
:101770001468646B20431468606331E048680D2886
:1017800017D21068006B0C79E41F04EB84051F244A
:10179000AC40A04314682063088880B20C79E41F31
:1017A00004EB8404A0401468246B20431468206375
:1017B00016E01068C06A0C790D3C04EB84051F2408
:1017C000AC40A0431468E062088880B20C790D3CFC
:1017D00004EB8404A0401468E46A20431468E062C7
:1017E0001E4B1F4C1068A0420AD10868122807D16E
:1017F000586820F400005860586840F48000586031
:10180000174C1068A04222D1164C0868A04202D0A2
:10181000086811281BD1586820F480005860586867
:1018200040F4000058600F4C0868A0420FD10E48E9
:1018300000680E4CB0FBF4F000EB8000400000901C
:1018400002E00098401E009000980028F9D100BFE7
:10185000002082F83C0000BF00BF41E700230140A8
:1018600000200140120000100400002040420F0040
:1018700001460868C06C704770B5044600250CB975
:10188000012070BD1549A06A884200D000BF206CBD
:1018900030B9204600F024F80020606484F83C0051
:1018A000206C00F0100088B9206C20F4885040F0C3
:1018B000020020642046FFF78DF800206064206C51
:1018C00020F0020040F00100206400E0012500BF8C
:1018D000002084F83C0000BF2846D2E70100000F3A
:1018E00010B586B0044600BF00200090154800687F
:1018F00040F48070134908600846006800F4807066
:10190000009000BF00BF00BF002000900D481438B9
:10191000006840F001000B4914390860084600686F
:1019200000F00100009000BF00BF302001900320B4
:1019300002900020039001A9034800F015F906B0B9
:1019400010BD0000443802400000024070B504465B
:101950000D4600262068806800F48060B0F5806F36
:1019600011D12068806800F48070B0F5807F0AD1C2
:10197000206C40F02000206400BF002084F83C0070
:1019800000BF012070BD00F0E7F9064612E0681CB8
:1019900080B125B100F0E0F9801BA8420AD9206C83
:1019A00040F00400206400BF002084F83C0000BF29
:1019B0000320E7E72068006800F002000228E6D173
:1019C0006FF0120021680860206C40F40070206401
:1019D0002068806800F04050B8B9207EA8B920681F
:1019E000C06A00F4700020B12068806800F4806054
:1019F00058B9206C20F480702064206C00F4805072
:101A000018B9206C40F0010020640020BAE7000003
:101A100008B501460020009000BF91F83C00012865
:101A200001D1022008BD012081F83C0000BF0868F8
:101A3000806800F00100A0B90868806840F00100EB
:101A40000B6898602F4800682F4BB0FBF3F000EB59
:101A50004000009002E00098401E0090009800288E
:101A6000F9D10868806800F00100002847D0086CB0
:101A700040F20163984340F480700864086840684D
:101A800000F4806028B1086C20F4005040F48050CD
:101A90000864086C00F48050B0F5805F04D1486C95
:101AA00020F00600486401E00020486400BF0020E8
:101AB00081F83C0000BF154A6FF022000B681860E7
:101AC000506800F01F0058B90868806800F0405066
:101AD000A8B90868806840F080400B6898600EE004
:101AE0000B4B086898420AD10868806800F04050A3
:101AF00028B90868806840F080400B689860002032
:101B000090E700000400002040420F000023014045
:101B10000020014070B50446042C0AD0082C11D1D5
:101B200000F01AF900F128052946002004F086F992
:101B300009E000F011F900F128052946012004F020
:101B40007DF900E000BF00BF70BD000010B5044685
:101B500004480068204020B1024804602046FFF796
:101B6000D9FF10BD143C0140F8B503460A460025D4
:101B7000002400200021CDE0012606FA01F51668B8
:101B800006EA0504AC4273D15668022E02D05668AC
:101B9000122E13D1CF0803F1200656F827004E0766
:101BA000F70E0F26BE40B0434F07FF0E1669BE402A
:101BB0003043CF0803F1200646F8270018684F008D
:101BC0000326BE40B043167906F003064F00BE4020
:101BD000304318605668012E08D05668022E05D092
:101BE0005668112E02D05668122E13D198684F00F5
:101BF0000326BE40B0434F00D668BE4030439860D5
:101C0000586801268E40B0431679C6F300168E4000
:101C100030435860D8684F000326BE40B0434F00A1
:101C20009668BE403043D860566806F08056B6F1DC
:101C3000805F6ED100BF00260096384E366846F4AD
:101C40008046364F3E603E46366806F48046009633
:101C500000BF00BF324E8F0856F827008E07370F9F
:101C60000F26BE40B0432F4EB34202D1002615E0EE
:101C70004FE02D4EB34201D101260FE02B4EB3426F
:101C800001D102260AE02A4EB34201D1032605E023
:101C9000284EB34201D1042600E007268F073F0FEC
:101CA000BE4030431E4E8F0846F82700224E306853
:101CB000A043566806F48036B6F5803F00D1204335
:101CC0001D4E3060361D3068A043566806F400365D
:101CD000B6F5003F00D12043174E361D3060361D4B
:101CE0003068A043566806F48016B6F5801F00D110
:101CF0002043114E08363060361D3068A0435668C8
:101D000006F40016B6F5001F00D120430A4E0C362B
:101D10003060491C1029FFF42FAFF8BD4438024051
:101D20000838014000000240000402400008024060
:101D3000000C024000100240003C014002461369C2
:101D40000B400BB1012000E0002070470AB1816117
:101D500001E00B0483617047014800687047000090
:101D60001800002070B504460CB9012070BD94F82D
:101D70003D0028B9002084F83C00204600F0CCFB50
:101D8000242084F83D002068006820F001002168CC
:101D9000086000F08FFD05465C496068884206D8FF
:101DA0005B48854201D2012007E0002005E0594848
:101DB000854201D2012000E00020012800D1D5E7B2
:101DC0005548B5FBF0F62068406820F03F003043EE
:101DD000216848604D496068884201D8701C07E05E
:101DE0004FF4967070434FF47A71B0FBF1F0401CE1
:101DF0002168096A21F03F010843216808624349CC
:101E00006068884214D8681E61684900B0FBF1F030
:101E1000401CC0F30B00042801D204203DE0681EE2
:101E200061684900B0FBF1F0401CC0F30B0034E0E6
:101E3000A06838B9681E616801EB4101B0FBF1F0A0
:101E4000401C0AE0681E616801EBC10202EB01114F
:101E5000B0FBF1F0401C40F48040C0F30B0008B927
:101E600001201AE0A06848B9681E616801EB4101D1
:101E7000B0FBF1F0401CC0F30B000CE0681E616881
:101E800001EBC10202EB0111B0FBF1F0401CC0F309
:101E90000B0040F4804040F400402168C9694CF6D2
:101EA000FF72914308432168C861D4E907010843E0
:101EB0002168096821F0C001084321680860D4E95D
:101EC000031008432168896848F2FF3291430843B0
:101ED00021688860D4E9050108432168C96821F0B8
:101EE000FF0108432168C8602068006840F00100D5
:101EF0002168086000202064202084F83D00002034
:101F0000206384F83E0000BF30E70000A086010097
:101F100080841E0000093D0040420F002DE9F84F6B
:101F200004460F4690461E46FFF716FF05464FF043
:101F3000010994F83D0020287ED1192301225E4931
:101F40002046009501F0DCFA10B10220BDE8F88FC0
:101F500000BF94F83C00012801D10220F6E70120DF
:101F600084F83C0000BF2068006800F0010028B938
:101F70002068006840F0010021680860206800685F
:101F800020F4006021680860242084F83D000020CF
:101F900020644A48E06200BF2068006840F4807016
:101FA00021680860334600224FF001112046009559
:101FB00001F0A6FA08B10120C8E707F0FE00216889
:101FC0000861FFF7C9FE054620684069C0F3400A72
:101FD00020684069C0F3802B10E0FFF7BDFE401B76
:101FE000B04200D816B9A02084F83D0020684069AE
:101FF000C0F3400A20684069C0F3802B94F83D008C
:10200000A02805D0BAF1000F02D1BBF1000FE4D037
:10201000202084F83D0020684069C0F3400028B3C8
:102020002068006840F400702168086000BF00204C
:1020300000902068406900E03BE0009020688069E3
:10204000009000BF00BF192301221B4920460095C4
:1020500001F056FA08B1012078E7202084F83D000D
:1020600000BF002084F83C0000BF6FE720680068D4
:1020700040F40070216808606FF480602168486156
:10208000192301220C492046009501F039FA08B1C4
:1020900001205BE709F10109C145FFF47DAF202074
:1020A00084F83D0000BF002084F83C0000BF012000
:1020B0004CE702204AE70000020010000000FFFF8A
:1020C0002DE9FC5F04460F4690469946DDE90CABCE
:1020D0000E9EFFF741FE054694F83D00202870D182
:1020E00019230122B0492046009501F009FA10B1E8
:1020F0000220BDE8FC9F00BF94F83C00012801D1FC
:102100000220F6E7012084F83C0000BF2068006848
:1021100000F0010028B92068006840F00100216843
:1021200008602068006820F40060216808602220B0
:1021300084F83D00402084F83E0000202064C4F86C
:1021400024A0A4F82AB0608D20859848E0624B4610
:10215000424639462046CDE9006501F0A1F808B1B4
:102160000120C6E7208D88B900BF002001902068BB
:102170004069019020688069019000BF00BF20681D
:10218000006840F400702168086040E0208D01285C
:1021900018D12068006820F480602168086000BFC2
:1021A00000200190206840690190206880690190BA
:1021B00000BF00BF2068006840F40070216808601C
:1021C00025E0EFE0208D022816D12068006820F479
:1021D0008060216808602068006840F40060216821
:1021E000086000BF002001902068406901902068CD
:1021F0008069019000BF0AE000BF002001902068C4
:102200004069019020688069019000BF00BFBAE07A
:10221000208D03287ED8208D012815D12A463146ED
:10222000204601F012FA08B1012062E72068006937
:10223000616A0870606A401C6062208D401E2085C3
:10224000608D401E60859EE0208D02282AD1334695
:10225000002257492046009501F052F908B10120AB
:1022600047E72068006840F4007021680860206833
:102270000069616A0870606A401C6062208D401EBF
:102280002085608D401E608520680069616A087045
:10229000606A401C6062208D401E2085608D401E5B
:1022A000608570E03346002241492046009501F0E8
:1022B00027F908B101201CE72068006820F480603D
:1022C0002168086020680069616A0870606A401CC3
:1022D0006062208D401E2085608D401E60853346E3
:1022E000002233492046009501F00AF908B1012087
:1022F000FFE62068006840F40070216808602068EC
:102300000069616A0870606A401C6062208D401E2E
:10231000208500E010E0608D401E60852068006927
:10232000616A0870606A401C6062208D401E2085D2
:10233000608D401E608526E02A463146204601F029
:1023400084F908B10120D4E620680069616A087048
:10235000606A401C6062208D401E2085608D401E9A
:10236000608520684069C0F3800060B12068006922
:10237000616A0870606A401C6062208D401E208582
:10238000608D401E6085208D00287FF441AF2020A5
:1023900084F83D00002084F83E0000BF84F83C0033
:1023A00000BFA6E60220A4E6020010000000FFFF26
:1023B000040001002DE9FC5F04460F469046994653
:1023C000DDE90CAB0E9EFFF7C7FC054694F83D0017
:1023D00020287DD1192301224D492046009501F086
:1023E0008FF810B10220BDE8FC9F00BF94F83C00BC
:1023F000012801D10220F6E7012084F83C0000BF4B
:102400002068006800F0010028B92068006840F0EA
:102410000100216808602068006820F400602168DD
:102420000860212084F83D00402084F83E00002010
:102430002064C4F824A0A4F82AB0608D2085354813
:10244000E0624B46424639462046CDE9006500F041
:10245000C3FF08B10120C6E731E02A4631462046D5
:1024600001F033F950B1206C042805D120680068D0
:1024700040F40070216808600120B4E7606A0078C9
:1024800021680861606A401C6062208D401E2085C2
:10249000608D401E608520684069C0F3800070B187
:1024A000208D60B1606A007821680861606A401C14
:1024B0006062208D401E2085608D401E6085208DCD
:1024C0000028CAD12A463146204600F0EBFF00E042
:1024D0001CE050B1206C042805D12068006840F44D
:1024E00000702168086001207DE72068006840F4E2
:1024F000007021680860202084F83D00002084F8E6
:102500003E0000BF84F83C0000BF6CE702206AE791
:10251000020010000000FFFF10B586B00446142131
:1025200001A8FDF7A6FE25492068884244D100BFD6
:10253000002000902248006840F400102049086004
:102540000846006800F40010009000BF00BF00BF04
:10255000002000901A481038006840F00200184926
:10256000103908600846006800F00200009000BFC3
:1025700000BF402001901220029000200390032011
:1025800004900420059001A90E48FFF7EDFA802081
:1025900001900420059001A90A48FFF7E5FA0848D0
:1025A0002038006840F400100549203908600846CA
:1025B000006820F40010086006B010BD0054004010
:1025C000403802400004024003480068034909788B
:1025D00008440149086070471800002020000020CE
:1025E00010B50D48006840F400700B4908600846BB
:1025F000006840F4806008600846006840F480701D
:102600000860032000F07CF80F2000F007F800F0CD
:102610002BF8002010BD0000003C024070B50446BD
:102620000E4800784FF47A71B1FBF0F00C4909685C
:10263000B1FBF0F5284600F0EDFB08B1012070BDBC
:10264000102C07D200222146501E00F01BF805482E
:10265000046001E00120F2E70020F0E72000002004
:10266000040000201C000020704700BF00F01F0283
:10267000012191404209920002F1E022C2F80011CA
:1026800000BF70472DE9F05F80460D4616460027D3
:1026900002F09EF9074639462A46334601F0070004
:1026A000C0F1070ABAF1040F02D94FF0040A01E0A1
:1026B000C0F1070AD14600F1040ABAF1070F02D2AD
:1026C0004FF0000A01E0A0F1030AD4464FF0010ADE
:1026D0000AFA09FAAAF1010A0AEA020A0AFA0CFA43
:1026E0004FF0010B0BFA0CFBABF1010B0BEA030BE8
:1026F0004AEA0B042146404602F072F9BDE8F09F19
:1027000000BF00F00702064B19684FF6FF0319409F
:10271000044B0B4343EA0221014B196000BF704791
:102720000CED00E00000FA0570B504460D460CB94A
:10273000012070BD5848006800F00F00A84209D27F
:1027400055490D700846006800F00F00A84201D0FE
:102750000120EEE7207800F0020002281DD1207849
:1027600000F00400042805D14C48006840F4E05013
:102770004A490860207800F00800082805D1474839
:10278000006840F46040454908604448006820F013
:10279000F000A168084341490860207800F001007A
:1027A000A8B36068012807D13C4808380068C0F326
:1027B0004040B8B90120BCE76068022802D06068D8
:1027C000032807D1354808380068C0F3406048B98D
:1027D0000120AEE7314808380068C0F3400008B96E
:1027E0000120A6E72D48006820F003006168084337
:1027F0002A490860FFF7B0FA064609E0FFF7ACFA8D
:10280000801B41F28831884202D9032091E707E01A
:102810002248006800F00C006168B0EB810FEDD138
:102820001D48006800F00F00A84209D91A490D7030
:102830000846006800F00F00A84201D0012078E7A8
:10284000207800F00400042807D11448006820F420
:10285000E050E168084311490860207800F0080062
:10286000082808D10D48006820F46040216940EA3A
:10287000C1000A49086000F03DF808490968C1F341
:102880000311074A515CC840064908600F20FFF752
:10289000C5FE00204DE70000003C02400838024021
:1028A0007C720008040000200148006870470000A6
:1028B0000400002000B5FFF7F7FF04490968C1F3E1
:1028C0008221034A515CC84000BD00000838024024
:1028D0008C72000800B5FFF7E7FF04490968C1F3EF
:1028E0004231034A515CC84000BD00000838024034
:1028F0008C7200082DE9F047002400250026A1462F
:102900002548006800F00C0020B1042805D00828F4
:102910003AD105E0DFF8849039E0DFF8849036E0C2
:102920001D48001F006800F03F041B48001F00689E
:1029300000F4800078B11A481749091F0968C1F3EB
:102940008811A0FB01700146224600233846FDF79E
:1029500041FC05460EE011480F49091F0968C1F303
:102960008811A0FB01700146224600233846FDF77E
:1029700031FC05460848001F0068C0F30140401CB8
:102980004600B5FBF6F902E0DFF8109000BF00BF8B
:102990004846BDE8F0870000083802400024F400F3
:1029A00000127A00F8B504460CB90120F8BD207871
:1029B00000F00100002874D0F948006800F00C0015
:1029C00004280DD0F648006800F00C00082813D148
:1029D000F348001F006800F48000B0F5800F0BD1B1
:1029E000EF4808380068C0F34040002859D06068BC
:1029F000002856D10120D9E700BF6068B0F5803FBC
:102A000008D1E7480838006840F48030E4490839C4
:102A100008601EE06068B0F5A02F0DD1E0480838CE
:102A2000006840F48020DE490839086008460068E4
:102A300040F4803008600CE0D9480838006820F481
:102A40008030D749083908600846006820F48020A3
:102A5000086000BF606890B1FFF77EF9054606E0A8
:102A6000FFF77AF9401B642801D903209EE7CC4880
:102A700008380068C0F340400028F1D011E0FFF7AB
:102A80006BF9054606E0FFF767F9401B642801D99A
:102A900003208BE7C24808380068C0F34040002894
:102AA000F1D1207800F0020002285FD1BC48006814
:102AB00000F00C0058B1BA48006800F00C0008287B
:102AC0001CD1B748001F006800F48000B0B9B448BA
:102AD00008380068C0F3400020B1E068012801D048
:102AE000012063E7AE480838006820F0F80021694B
:102AF00040EAC100AA490839086037E0E06800B33D
:102B00000120A8490860FFF727F9054606E0FFF70E
:102B100023F9401B022801D9032047E7A0480838C1
:102B20000068C0F340000028F1D09D4808380068D4
:102B300020F0F800216940EAC1009949083908608D
:102B400014E0002097490860FFF706F9054606E003
:102B5000FFF702F9401B022801D9032026E790481D
:102B600008380068C0F340000028F1D1207800F058
:102B7000080008282CD16069A8B101208A490860A2
:102B8000FFF7EAF8054606E0FFF7E6F8401B0228E3
:102B900001D903200AE782486C300068C0F3400086
:102BA0000028F1D014E000207F490860FFF7D4F836
:102BB000054606E0FFF7D0F8401B022801D90320A4
:102BC000F4E677486C300068C0F340000028F1D18B
:102BD000207800F00400042870D1002670483830B6
:102BE000006800F0805090B900BF002000906C4851
:102BF0003830006840F08050694938310860084634
:102C0000006800F08050009000BF00BF01266748B8
:102C1000006800F48070B0B96448006840F48070C7
:102C200062490860FFF798F8054606E0FFF794F858
:102C3000401B022801D90320B8E65C48006800F474
:102C400080700028F2D000BFA068012808D1544845
:102C50006830006840F001005149683108601DE0AB
:102C6000A06805280DD14E486830006840F0040087
:102C70004B49683108600846006840F00100086070
:102C80000CE047486830006820F001004449683192
:102C900008600846006820F00400086000BFA068D3
:102CA000A8B1FFF759F8054609E0FFF755F8401BB2
:102CB00041F28831884202D9032077E626E038487D
:102CC00068300068C0F340000028EED013E0FFF742
:102CD00043F8054608E0FFF73FF8401B41F2883112
:102CE000884201D9032061E62D4868300068C0F3AE
:102CF00040000028EFD1012E07D129483830006864
:102D000020F0805026493831086000BFA069B8B370
:102D10002348006800F00C0008285ED0A069022853
:102D200046D100201F490866FFF716F8054606E061
:102D3000FFF712F8401B022801D9032036E6184895
:102D400008380068C0F340600028F1D1D4E90701D9
:102D50000843616A40EA81110122A06AC2EB500077
:102D600041EA00412C20005D41EA00600C49091F46
:102D7000086001200B490866FEF7EEFF054607E0F4
:102D80002DE0FEF7E9FF401B022801D903200DE6E4
:102D9000034808380068C0F340600028F1D01EE006
:102DA0000838024000004742800E47420070004051
:102DB00000200C490866FEF7CFFF054606E0FEF747
:102DC000CBFF401B022801D90320EFE5064800682D
:102DD000C0F340600028F2D101E00120E6E50020C8
:102DE000E4E500000000474200380240042808D112
:102DF0004FF0E021096941F004014FF0E022116138
:102E000007E04FF0E021096921F004014FF0E022D2
:102E10001161704770B504462546681EB0F1807F89
:102E200001D301200FE0681E4FF0E02148610F211F
:102E30004FF0FF3001F0D4FD00204FF0E021886119
:102E400007200861002070BD70477047704710B5BB
:102E5000044620680069C0F34000D8B12068C0680B
:102E6000C0F34000B0B16FF002002168086101209A
:102E700020772068806900F0030018B12046FFF732
:102E8000E5FF05E0204600F0ADF8204600F0ABF885
:102E90000020207720680069C0F38000D8B1206846
:102EA000C068C0F38000B0B16FF004002168086111
:102EB000022020772068806900F4407018B1204615
:102EC000FFF7C4FF05E0204600F08CF8204600F034
:102ED0008AF80020207720680069C0F3C000D8B1CC
:102EE0002068C068C0F3C000B0B16FF0080021686E
:102EF0000861042020772068C06900F0030018B141
:102F00002046FFF7A3FF05E0204600F06BF82046BF
:102F100000F069F80020207720680069C0F30010F5
:102F2000D8B12068C068C0F30010B0B16FF01000D5
:102F300021680861082020772068C06900F440708B
:102F400018B12046FFF782FF05E0204600F04AF85E
:102F5000204600F048F8002020772068006900F043
:102F6000010058B12068C06800F0010030B16FF076
:102F7000010021680861204600F036F820680069E9
:102F8000C0F3C01058B12068C068C0F3C01030B1A1
:102F90006FF08000216808612046FFF755FF206828
:102FA0000069C0F3801058B12068C068C0F3801079
:102FB00030B16FF0400021680861204600F08EF8C3
:102FC00020680069C0F3401058B12068C068C0F3A1
:102FD000401030B16FF02000216808612046FFF7F3
:102FE00034FF10BD704770472F4988425AD12F498E
:102FF0000988491C2D4A11802D490988491C2C4AF1
:1030000011802C490988491C2A4A11802A490988BB
:10301000491C294A118029490988491C274A1180DD
:1030200027490988491C264A118020490988022914
:1030300005DB00211D4A11800121224A11701C4923
:103040000988052905DB0021194A118001211E4A42
:103050001170184909880A2905DB0021154A1180D9
:1030600001211A4A117014490988642905DB0021DD
:10307000114A11800121164A117010490988C82986
:1030800005DB00210D4A11800121124A11700C4903
:103090000988B1F5C87F05DB0021094A11800121AB
:1030A0000D4A117070470000A80900202800002078
:1030B0002A0000202C0000202E00002030000020DC
:1030C00032000020220000202300002024000020E5
:1030D000250000202600002027000020704710B5A2
:1030E00004460CB9012010BDA06900B100E000BF8A
:1030F00094F8390028B9002084F83800204600F000
:1031000027F8242084F839002068C06820F4005093
:103110002168C860204602F0A9FF2068006920F4F9
:103120009040216808612068406920F02A002168E9
:1031300048612068C06840F400502168C8600020E1
:10314000E063202084F8390084F83A000020CAE7C0
:1031500010B586B004462249206888423ED100BF9F
:10316000002000901F48006840F001001D490860E1
:103170000846006800F00100009000BF00BF00BFDB
:103180000020009017481430006840F010001549E6
:10319000143108600846006800F01000009000BF7D
:1031A00000BF4815019002200290012003900220E8
:1031B00004900720059001A90B48FEF7D5FC4FF4B9
:1031C0008060019001A90848FEF7CEFC2520FFF79A
:1031D0004CFA032211462520FFF754FA06B010BD21
:1031E00000100140303802400000024010B5034694
:1031F00093F83A0020282FD101B10AB9012010BD5F
:1032000000BF93F83800012801D10220F7E7012020
:1032100083F8380000BF99629A85DA850020D86368
:10322000222083F83A0000BF002083F8380000BF56
:103230001868C06840F480701C68E06018684069D5
:1032400040F001001C6860611868C06840F0200010
:103250001C68E0600020D2E70220D0E700BFFEE754
:10326000014608684069C0F38020B0B16FF4806007
:103270000A68506100200863202081F83D0000208A
:1032800081F83E00086C40F00400086400BF002094
:1032900081F83C0000BF012070470020FCE70000DF
:1032A0002DE9F84304460F4615469946DDE90886A0
:1032B0002068006840F48060216808602068006829
:1032C00040F4807021680860434600224FF00111ED
:1032D0002046009600F014F910B10120BDE8F883F3
:1032E00007F0FE002168086133464246394920460E
:1032F00000F049F908B10120F0E700BF002000907C
:1033000020684069009020688069009000BF00BF7D
:1033100032464146204600F0D8F950B1206C0428CE
:1033200005D12068006840F4007021680860012021
:10333000D4E7B9F1010F03D1E8B22168086117E0C1
:10334000C5F307202168086132464146204600F057
:10335000BCF950B1206C042805D12068006840F405
:103360000070216808600120B8E7E8B221680861B0
:1033700032464146204600F0A8F950B1206C04289E
:1033800005D12068006840F40070216808600120C1
:10339000A4E72068006840F4807021680860434614
:1033A00000224FF001112046009600F0A9F808B164
:1033B000012093E7F8B240F001002168086133462C
:1033C00042460449204600F0DEF808B1012085E7B6
:1033D000002083E7020001002DE9F84304468846F7
:1033E00015469946DDE908672068006840F480705A
:1033F00021680860334600224FF0011120460097F3
:1034000000F07EF810B10120BDE8F88308F0FE005E
:10341000216808613B4632462149204600F0B3F856
:1034200008B10120F0E700BF00200090206840694B
:10343000009020688069009000BF00BF3A46314686
:10344000204600F042F950B1206C042805D12068D4
:10345000006840F40070216808600120D4E7B9F1E9
:10346000010F03D1E8B22168086117E0C5F3072016
:10347000216808613A463146204600F026F950B1ED
:10348000206C042805D12068006840F40070216891
:1034900008600120B8E7E8B2216808610020B3E7BE
:1034A0000200010070B504460D46164620E0204695
:1034B000FFF7D6FE08B1012070BD681CC0B1FEF751
:1034C0004BFC801BA84200D895B900202063202027
:1034D00084F83D00002084F83E00206C40F020007D
:1034E000206400BF002084F83C0000BF0120E3E717
:1034F00020684069C0F380000028D8D00020DBE7B6
:103500002DE9F04104460D4617461E46DDF81880A9
:103510001CE0701CD0B1FEF71FFCA0EB0800B0420D
:1035200000D89EB900202063202084F83D000020B0
:1035300084F83E00206C40F02000206400BF002092
:1035400084F83C0000BF0120BDE8F081C5F30740CE
:1035500001280AD120684069A9B20840A9B288426E
:1035600001D101200BE0002009E020688069A9B2A8
:103570000840A9B2884201D1012000E00020B842F1
:10358000C7D00020E0E72DE9F04104460D4616467D
:103590001F463DE020684069C0F38020E8B1206804
:1035A000006840F40070216808606FF48060216852
:1035B000486100202063202084F83D00002084F82A
:1035C0003E00206C40F00400206400BF002084F81E
:1035D0003C0000BF0120BDE8F081701CC0B1FEF7C7
:1035E000BBFBC01BB04200D896B90020206320204E
:1035F00084F83D00002084F83E00206C40F020005C
:10360000206400BF002084F83C0000BF0120E2E7F6
:10361000C5F3074001280AD120684069A9B20840D3
:10362000A9B2884201D101200BE0002009E0206806
:103630008069A9B20840A9B2884201D1012000E006
:1036400000200028A6D00020C5E770B504460D462E
:10365000164632E020684069C0F30010A0B16FF058
:1036600010002168486100202063202084F83D007C
:10367000002084F83E00206C206400BF002084F805
:103680003C0000BF012070BDFEF766FB801BA84216
:1036900000D895B900202063202084F83D00002048
:1036A00084F83E00206C40F02000206400BF002021
:1036B00084F83C0000BF0120E5E720684069C0F3C2
:1036C00080100028C6D00020DDE770B504460D4606
:1036D000164620E02046FFF7C3FD08B1012070BD6B
:1036E000681CC0B1FEF738FB801BA84200D895B912
:1036F00000202063202084F83D00002084F83E0054
:10370000206C40F02000206400BF002084F83C00C2
:1037100000BF0120E3E720684069C0F3C010002823
:10372000D8D00020DBE7000000B587B000BF002044
:1037300001901848006840F00100164908600846EA
:10374000006800F00100019000BF00BF0820029057
:1037500011480390012004900320059002A90F480E
:10376000FEF702FA0420029002A90C48FEF7FCF9C9
:10377000012200210820FEF785FF0820FEF775FFD3
:10378000012200210920FEF77DFF0920FEF76DFFD1
:1037900007B000BD303802400000111000000240A8
:1037A00010B5044600BF012211031348FEF7CEFAFC
:1037B00000BF00BF012291020F48FEF7C7FA00BF09
:1037C00000BF00224FF400610B48FEF7BFFA00BFB4
:1037D000204603F023FB01220221002001F04EFFCE
:1037E00020B106A002F05EFE002010BD09A002F08C
:1037F00059FE0120F9E70000000802404C617463A3
:10380000685F43315832475F4D41204572726F7295
:103810000A0000004C617463685F43315832475FAF
:103820004D41204E6F726D656C0A000010B5044664
:1038300000BF00224FF480511248FEF787FA00BF04
:1038400000BF012291020F48FEF780FA00BF00BFBF
:103850000122D1020B48FEF779FA00BF204603F09F
:10386000DDFA00220321104601F008FF20B106A076
:1038700002F018FE002010BD09A002F013FE012086
:10388000F9E70000000802404C617463685F43314F
:103890005832475F4D42204572726F720A00000035
:1038A0004C617463685F43315832475F4D42204E2C
:1038B0006F726D656C0A000010B50446FDF754F98F
:1038C000FDF7ACF9204603F0A9FA052204210320F4
:1038D00001F0D4FE28B903220221104601F0CEFEE9
:1038E00020B105A002F0DEFD012010BD07A002F00E
:1038F000D9FD0020F9E700005331583420434F4DE3
:103900002D5031204572726F650A000053315834D2
:1039100020434F4D2D5031204E65726D6F6C0A0063
:1039200010B50446FDF706F9FDF778F9204603F0D7
:1039300075FA03220221012001F0A0FE28B903221A
:103940000221104601F09AFE20B105A002F0AAFD66
:10395000012010BD07A002F0A5FD0020F9E700003E
:103960005331583420434F4D2D5032204572726FE1
:10397000650A00005331583420434F4D2D503220FA
:103980004E65726D6F6C0A0010B50446FDF7ECF8D9
:10399000FDF728F9204603F041FA0522042103200F
:1039A00001F06CFE28B900220121032001F066FE1F
:1039B00020B105A002F076FD012010BD07A002F0A5
:1039C00071FD0020F9E700005331583420434F4D7A
:1039D0002D5033204572726F650A00005331583400
:1039E00020434F4D2D5033204E65726D6F6C0A0091
:1039F00010B50446FDF79EF8FDF7F4F8204603F0F5
:103A00000DFA03220221012001F038FE28B900221C
:103A10000121032001F032FE20B105A002F042FD99
:103A2000012010BD07A002F03DFD0020F9E70000D5
:103A30005331583420434F4D2D5034204572726F0E
:103A4000650A00005331583420434F4D2D50342027
:103A50004E65726D6F6C0A002DE9F74F84B00C460D
:103A60001546002600279AE050480078002878D1B3
:103A7000002D37D1049800F0D5F88046049800F066
:103A80001FF98146049800F069F98246049800F015
:103A9000B3F98346049800F0FDF90390049800F010
:103AA00047FA0290049800F091FA0190049800F00F
:103AB000DBFA0090B8F1000F10D1B9F1000F0DD171
:103AC000BAF1000F0AD1BBF1000F07D1039828B952
:103AD000029818B9019808B9009808B17F1C4EE007
:103AE000761C4CE0012D38D1049801F0F9F880469D
:103AF000049801F057F98146049801F0B5F982461F
:103B0000049801F013FA8346049801F071FA0390C7
:103B1000049801F0CFFA0290049801F02DFB019077
:103B2000049801F08BFB0090B8F1000F10D1B9F1AF
:103B3000000F0DD1BAF1000F0AD1BBF1000F07D170
:103B4000039828B9029818B9019808B9009810B1DB
:103B50007F1C14E005E0761C11E015A002F0A2FC29
:103B60000DE012480078012809D1002415A002F0C8
:103B700099FC3A4631461AA002F094FC12E0201E4D
:103B800004F101040BD10120084908701FA002F0C4
:103B900089FC3A46314612A002F084FC02E0002C77
:103BA0007FF462AF00BF07B0BDE8F08F00060020D1
:103BB00053315838205479706564656620457272B7
:103BC0006F720A004C61746368696E6720533158E4
:103BD0003820537769746368204F46460A00000016
:103BE00053315838204175746F2053756363657382
:103BF00073204E756D202564203B204661696C2042
:103C00004E756D202564200A000000005465737411
:103C100020636F756E74206F766572666C6F770ABD
:103C20000000000010B5044601F02CFF01F062FF17
:103C300001F07CFF204603F0F1F80421002001F0A0
:103C4000D9FCA0B90121084601F0D4FC78B90522BD
:103C50000421084601F012FD48B90121042001F0B9
:103C6000C9FC20B90221042001F0C4FC20B105A048
:103C700002F018FC012010BD09A002F013FC002086
:103C8000F9E700004C61746368696E67205331582E
:103C90003820434F4D2D5031204572726F720A000B
:103CA0004C61746368696E67205331583820434F04
:103CB0004D2D5031204E65726D6F6C0A0000000072
:103CC00010B5044601F0C2FE01F014FF01F02EFF12
:103CD000204603F0A3F80721042001F08BFCA0B9D3
:103CE0000621032001F086FC78B90121042001F0AF
:103CF00081FC50B90221042001F07CFC28B9052286
:103D00000421084601F0BAFC20B105A002F0CAFB6C
:103D1000012010BD09A002F0C5FB0020F9E700005A
:103D20004C61746368696E67205331583820434F83
:103D30004D2D5032204572726F720A004C617463CF
:103D400068696E67205331583820434F4D2D5032EB
:103D5000204E65726D6F6C0A0000000010B50446BD
:103D600001F090FE01F0AAFE01F0E0FE204603F013
:103D700055F80421002001F03DFCA0B901210846BE
:103D800001F038FC78B90121042001F033FC50B96E
:103D90000221042001F02EFC28B906220321042070
:103DA00001F06CFC20B105A002F07CFB012010BDED
:103DB00009A002F077FB0020F9E700004C61746372
:103DC00068696E67205331583820434F4D2D50336A
:103DD000204572726F720A004C61746368696E6785
:103DE000205331583820434F4D2D5033204E6572AB
:103DF0006D6F6C0A0000000010B5044601F026FE4D
:103E000001F05CFE01F092FE204603F007F8072166
:103E1000042001F0EFFBA0B90621032001F0EAFB2A
:103E200078B90121042001F0E5FB50B902210420FA
:103E300001F0E0FB28B906220321042001F01EFC5A
:103E400020B105A002F02EFB012010BD09A002F058
:103E500029FB0020F9E700004C61746368696E6714
:103E6000205331583820434F4D2D50342045727225
:103E70006F720A004C61746368696E672053315831
:103E80003820434F4D2D5034204E65726D6F6C0AB3
:103E90000000000010B5044601F0F4FD01F02AFE18
:103EA00001F060FE204602F0B9FF0421002001F07D
:103EB000A1FBA0B90121084601F09CFB78B90021C3
:103EC000042001F097FB50B90721032001F092FB79
:103ED00028B905220421084601F0D0FB20B105A035
:103EE00002F0E0FA012010BD09A002F0DBFA002088
:103EF000F9E700004C61746368696E6720533158BC
:103F00003820434F4D2D5035204572726F720A0094
:103F10004C61746368696E67205331583820434F91
:103F20004D2D5035204E65726D6F6C0A00000000FB
:103F300010B5044601F08AFD01F0DCFD01F012FE2F
:103F4000204602F06BFF0721042001F053FBA0B9CB
:103F50000621032001F04EFB78B90021042001F076
:103F600049FB50B90721032001F044FB28B9052281
:103F70000421084601F082FB20B105A002F092FA6C
:103F8000012010BD09A002F08DFA0020F9E7000021
:103F90004C61746368696E67205331583820434F11
:103FA0004D2D5036204572726F720A004C61746359
:103FB00068696E67205331583820434F4D2D503675
:103FC000204E65726D6F6C0A0000000010B504464B
:103FD00001F058FD01F072FD01F0C4FD204602F031
:103FE0001DFF0421002001F005FBA0B901210846B6
:103FF00001F000FB78B90021042001F0FBFA50B970
:104000000721032001F0F6FA28B906220321042033
:1040100001F034FB20B105A002F044FA012010BDEC
:1040200009A002F03FFA0020F9E700004C61746338
:1040300068696E67205331583820434F4D2D5037F3
:10404000204572726F720A004C61746368696E6712
:10405000205331583820434F4D2D5037204E657234
:104060006D6F6C0A0000000010B5044601F0EEFC14
:1040700001F024FD01F076FD204602F0CFFE07217D
:10408000042001F0B7FAA0B90621032001F0B2FA2A
:1040900078B90021042001F0ADFA50B907210320BE
:1040A00001F0A8FA28B906220321042001F0E6FA5B
:1040B00020B105A002F0F6F9012010BD09A002F020
:1040C000F1F90020F9E700004C61746368696E67DC
:1040D000205331583820434F4D2D503820457272AF
:1040E0006F720A004C61746368696E6720533158BF
:1040F0003820434F4D2D5038204E65726D6F6C0A3D
:104100000000000070B506460C46254890F878057A
:10411000322801DB012070BD3046FCF7CBF81428B3
:1041200001D30120F7E71E4890F87805C0F132006E
:10413000A0420ADA1A4890F87805C0F13200211A34
:1041400018A002F0AFF90120E5E7002524E0C5EB57
:10415000C50206EB8201124A92F87825C2EBC20230
:104160000F4B03EB8200FCF7BAF8C5EBC50006EB7A
:10417000800080690A4991F87815C1EBC101084AAD
:1041800002EB81018861104690F87805401C1146C9
:1041900081F87805681CC5B2A542D8DB0020BAE7D3
:1041A000640000204D454D4F52595F4558434545E9
:1041B0004445443A2564200A000000002DE9F047F8
:1041C00007460C4600250026A846A94632E01C48B2
:1041D000007888B9384600F0A3F88046384600F0E9
:1041E000D1F88146B8F1000F02D1B9F1000F01D02A
:1041F000761C0FE06D1C0DE011480078012809D1F4
:1042000010A002F04FF93246294613A002F04AF9F5
:10421000002411E0201E04F101040BD10120084903
:10422000087018A002F03EF9324629460AA002F0B2
:1042300039F901E0002CCAD100BFBDE8F0870000C9
:104240000006002043315832472053776974636871
:10425000204F46460A0000004D3158312041757408
:104260006F2053756363657373204E756D202564ED
:10427000203B204661696C204E756D202564200A24
:10428000000000005465737420636F756E74206FB6
:10429000766572666C6F770A0000000010B5044600
:1042A000A07D012809D1E07D38B9002006490870B9
:1042B000608B0121FFF782FF05E0A07D022802D17B
:1042C000204600F091F810BD0006002000B587B030
:1042D00000BF002001901048006840F008000E491F
:1042E00008600846006800F00800019000BF00BFA9
:1042F000042002900120039004900320059002A95D
:104300000648FDF731FC00BF012204210348FDF7F8
:104310001DFD00BF07B000BD30380240000C024058
:1043200010B5044600BF012204210B48FDF70EFD25
:1043300000BF204602F072FD05220621022001F096
:104340009DF920B105A002F0ADF8012010BD08A034
:1043500002F0A8F80020F9E7000C02404D31583176
:104360005F537461746541206572726F720A000058
:104370004D3158315F537461746541204E6F726DD9
:10438000616C0A0010B5044600BF002204210B48EE
:10439000FDF7DCFC00BF204602F040FD04220721AF
:1043A000022001F06BF920B105A002F07BF801209A
:1043B00010BD08A002F076F80020F9E7000C0240DA
:1043C0004D3158315F537461746542206572726F6C
:1043D000720A00004D3158315F5374617465422098
:1043E0004E6F726D616C0A0010B50446207E10B1EC
:1043F000012808D103E01420FFF792FF07E0142002
:10440000FFF7C0FF03E003A002F04CF800BF00BFBD
:1044100010BD00004D315831205374617465204542
:1044200072726F720A0000002DE9F74F0C461546B4
:1044300000260027B046B146B246B34668E0384889
:104440000078002846D1FDB9009800F075F9804643
:10445000009800F0C3F98146009800F011FA8246F6
:10446000009800F05FFA8346B8F1000F08D1B9F167
:10447000000F05D1BAF1000F02D1BBF1000F01D03E
:104480007F1C35E0761C33E0012D1FD1009800F031
:1044900037FF8046009800F093FF8146009800F0B7
:1044A000EDFF8246009801F047F88346B8F1000F0F
:1044B00008D1B9F1000F05D1BAF1000F02D1BBF15B
:1044C000000F01D07F1C13E0761C11E015A001F055
:1044D000E9FF0DE012480078012809D1002416A058
:1044E00001F0E0FF3A46314618A001F0DBFF13E08F
:1044F000201E04F101040BD10120094908701EA0FF
:1045000001F0D0FF3A46314610A001F0CBFF03E0A6
:10451000201EA4F1010492D100BFBDE8FE8F00006F
:104520000006002053776974636820547970652011
:104530004572726F720A0000433158324720537738
:10454000697463683A4F46460A0000004D3158349A
:10455000204175746F2053756363657373204E75C6
:104560006D202564203B204661696C204E756D20CE
:104570002564200A000000005465737420636F7581
:104580006E74206F766572666C6F772C54657874E4
:104590002053746F700A000010B50446A07D0128F6
:1045A0000AD1E07D40B9002007490870627D608B28
:1045B0000121FFF739FF05E0A07D022802D1204646
:1045C00000F05EF810BD00000006002000B587B0C6
:1045D00000BF002001902848006840F001002649F3
:1045E00008600846006800F00100019000BF00BFAD
:1045F0004FF40040029001200390049003200590A6
:1046000002A91E48FDF7B0FA4FF48050029002A9AB
:104610001A48FDF7A9FA4FF40060029002A9174862
:10462000FDF7A2FA4FF48070029002A91348FDF73B
:104630009BFA00BF00224FF400411048FDF786FBB3
:1046400000BF00BF00224FF480510C48FDF77EFBF5
:1046500000BF00BF00224FF400610848FDF776FB61
:1046600000BF00BF00224FF480710448FDF76EFBCD
:1046700000BF07B000BD000030380240000002401B
:1046800010B50446607DE8B9207E30B1012808D01D
:1046900002280AD0032810D10BE0142000F04CF8B7
:1046A0000FE0142000F09AF80BE0142000F0E8F876
:1046B00007E0142000F036F903E015A001F0F2FE47
:1046C00000BF23E0607D01281DD1207E30B101288C
:1046D00008D002280AD0032810D10BE0142000F0E3
:1046E0000FFE0FE0142000F06BFE0BE0142000F032
:1046F000C5FE07E0142000F01FFF03E004A001F056
:10470000D1FE00BF02E007A001F0CCFE10BD00000A
:104710004D315834205374617465204572726F7244
:104720000A0000004D31583420545950452045723C
:10473000726F720A0000000010B5044600BF00222C
:104740004FF400411948FDF701FB00BF00BF0122F3
:1047500011031648FDF7FAFA00BF00BF00224FF41C
:1047600000611248FDF7F2FA00BF00BF01221102FA
:104770000E48FDF7EBFA00BF204602F04FFB072280
:104780000621012000F07AFF28B901220021022031
:1047900000F074FF20B106A001F084FE012010BDDE
:1047A00008A001F07FFE0020F9E7000000000240B1
:1047B0004D31583420537461746520412045727224
:1047C0006F720A004D315834205374617465204172
:1047D000204E6F726D656C0A0000000010B5044633
:1047E00000BF0122D1031A48FDF7B0FA00BF00BF95
:1047F00000224FF480511648FDF7A8FA00BF00BF11
:1048000000224FF400611248FDF7A0FA00BF00BF7C
:10481000012211020E48FDF799FA00BF204602F06E
:10482000FDFA04220521012000F028FF28B9012209
:104830000021022000F022FF20B106A001F032FE8C
:10484000012010BD08A001F02DFE0020F9E70000B6
:10485000000002404D315834205374617465204289
:10486000204572726F720A004D31583420537461C2
:1048700074652042204E6F726D656C0A0000000066
:1048800010B5044600BF00224FF400411948FDF75F
:104890005DFA00BF00BF012211031648FDF756FA6A
:1048A00000BF00BF0122D1021248FDF74FFA00BF3E
:1048B00000BF00224FF480710E48FDF747FA00BF99
:1048C000204602F0ABFA07220621012000F0D6FEB6
:1048D00028B902220321104600F0D0FE20B106A024
:1048E00001F0E0FD012010BD08A001F0DBFD00207B
:1048F000F9E70000000002404D3158342053746144
:1049000074652043204572726F720A004D3158342D
:104910002053746174652043204E6F726D656C0A7C
:104920000000000010B5044600BF0122D1031A4860
:10493000FDF70CFA00BF00BF00224FF4805116486B
:10494000FDF704FA00BF00BF0122D1021248FDF7B3
:10495000FDF900BF00BF00224FF480710E48FDF743
:10496000F5F900BF204602F059FA04220521012082
:1049700000F084FE28B902220321104600F07EFEDA
:1049800020B106A001F08EFD012010BD08A001F0AD
:1049900089FD0020F9E70000000002404D31583445
:1049A0002053746174652044204572726F720A004E
:1049B0004D3158342053746174652044204E6F7219
:1049C0006D656C0A0000000000BFFEE77047000044
:1049D00002480068C0F30220704700000CED00E0C0
:1049E00010B5002807DA0A07140E054A00F00F0375
:1049F0001B1FD45403E00A07130E024A135410BDC0
:104A000018ED00E000E400E010B5044600BF01220C
:104A100091020B48FDF79AF900BF204602F0FEF91B
:104A200000220321104600F029FE20B105A001F06C
:104A300039FD012010BD0AA001F034FD0020F9E786
:104A4000000802404E6F6E4C617463685F433158DA
:104A500032475F4D42204572726F720A00000000BB
:104A60004E6F6E4C617463685F43315832475F4DDF
:104A700042204E6F726D656C0A00000010B504464E
:104A800000BF012211021248FDF760F900BF00BF0C
:104A9000012251020E48FDF759F900BF204602F0ED
:104AA000BDF905220421032000F0E8FD28B9032206
:104AB0000221104600F0E2FD20B106A001F0F2FC58
:104AC000012010BD0BA001F0EDFC0020F9E7000073
:104AD000000802404E6F6E206C6174636820533191
:104AE000583420434F4D2D5031204572726F650A66
:104AF000000000004E6F6E206C61746368205331BB
:104B0000583420434F4D2D5031204E65726D6F6CDF
:104B10000A00000010B5044600BF00224FF4807167
:104B20001148FDF713F900BF00BF012251020E48E2
:104B3000FDF70CF900BF204602F070F903220221B4
:104B4000012000F09BFD28B903220221104600F04D
:104B500095FD20B105A001F0A5FC012010BD0BA022
:104B600001F0A0FC0020F9E7000802404E6F6E2023
:104B70006C61746368205331583420434F4D2D507D
:104B800032204572726F650A000000004E6F6E2081
:104B90006C61746368205331583420434F4D2D505D
:104BA00032204E65726D6F6C0A00000010B504462D
:104BB00000BF012211021248FDF7C8F800BF00BF74
:104BC00000224FF400710E48FDF7C0F800BF2046E8
:104BD00002F024F905220421032000F04FFD28B93A
:104BE00000220121032000F049FD20B105A001F0C1
:104BF00059FC012010BD0BA001F054FC0020F9E786
:104C0000000802404E6F6E206C617463682053315F
:104C1000583420434F4D2D5033204572726F650A32
:104C2000000000004E6F6E206C6174636820533189
:104C3000583420434F4D2D5033204E65726D6F6CAC
:104C40000A00000010B5044600BF00224FF4807136
:104C50001248FDF77BF800BF00BF00224FF400713F
:104C60000E48FDF773F800BF204602F0D7F8032284
:104C70000221012000F002FD28B9002201210320B9
:104C800000F0FCFC20B106A001F00CFC012010BDDE
:104C90000BA001F007FC0020F9E70000000802402B
:104CA0004E6F6E206C61746368205331583420431A
:104CB0004F4D2D5033204572726F650A0000000081
:104CC0004E6F6E206C6174636820533158342043FA
:104CD0004F4D2D5033204E65726D6F6C0A000000F1
:104CE00010B5044600BF012240211C48FDF72EF8F4
:104CF00000BF00BF012280211848FDF727F800BF40
:104D000000BF002210211648FDF720F800BF204602
:104D100002F084F80421002000F06CFCA0B901210D
:104D2000084600F067FC78B905220421084600F027
:104D3000A5FC48B90121042000F05CFC20B9022147
:104D4000042000F057FC20B106A001F0ABFB0120CD
:104D500010BD0CA001F0A6FB0020F9E70000024006
:104D6000000802404E6F6E4C61746368696E672084
:104D70005331583820434F4D2D5031204572726FBA
:104D8000720A00004E6F6E4C61746368696E672032
:104D90005331583820434F4D2D5031204E65726DA0
:104DA0006F6C0A0010B5044600BF002240211C4869
:104DB000FCF7CCFF00BF00BF002280211848FCF7A1
:104DC000C5FF00BF00BF002210211648FCF7BEFF40
:104DD00000BF204602F022F80721042000F00AFC60
:104DE000A0B90621032000F005FC78B901210420B8
:104DF00000F000FC50B90221042000F0FBFB28B9B0
:104E000005220421084600F039FC20B106A001F07B
:104E100049FB012010BD0CA001F044FB0020F9E784
:104E200000000240000802404E6F6E4C61746368DF
:104E3000696E67205331583820434F4D2D50322032
:104E40004572726F720A00004E6F6E4C6174636837
:104E5000696E67205331583820434F4D2D50322012
:104E60004E65726D6F6C0A0010B5044600BF0022DB
:104E700040211C48FCF76AFF00BF00BF01228021CF
:104E80001848FCF763FF00BF00BF0022102116483E
:104E9000FCF75CFF00BF204601F0C0FF04210020AA
:104EA00000F0A8FBA0B90121084600F0A3FB78B9E7
:104EB0000121042000F09EFB50B90221042000F0E3
:104EC00099FB28B906220321042000F0D7FB20B16A
:104ED00006A001F0E7FA012010BD0CA001F0E2FAF3
:104EE0000020F9E700000240000802404E6F6E4CBF
:104EF00061746368696E67205331583820434F4DA1
:104F00002D5033204572726F720A00004E6F6E4C46
:104F100061746368696E67205331583820434F4D80
:104F20002D5033204E65726D6F6C0A0010B504462B
:104F300000BF002240211C48FCF708FF00BF00BF53
:104F4000002280211848FCF701FF00BF00BF0022AB
:104F500010211648FCF7FAFE00BF204601F05EFF64
:104F60000721042000F046FBA0B90621032000F031
:104F700041FB78B90121042000F03CFB50B902212B
:104F8000042000F037FB28B906220321042000F09A
:104F900075FB20B106A001F085FA012010BD0CA020
:104FA00001F080FA0020F9E700000240000802400A
:104FB0004E6F6E4C61746368696E67205331583868
:104FC00020434F4D2D5034204572726F720A0000FD
:104FD0004E6F6E4C61746368696E67205331583848
:104FE00020434F4D2D5034204E65726D6F6C0A007A
:104FF00010B5044600BF012240211C48FCF7A6FE64
:1050000000BF00BF012280211848FCF79FFE00BFAF
:1050100000BF012210211648FCF798FE00BF204671
:1050200001F0FCFE0421002000F0E4FAA0B9012107
:10503000084600F0DFFA78B90021042000F0DAFA1F
:1050400050B90721032000F0D5FA28B90522042120
:10505000084600F013FB20B106A001F023FA01205E
:1050600010BD0CA001F01EFA0020F9E7000002407C
:10507000000802404E6F6E4C61746368696E672071
:105080005331583820434F4D2D5035204572726FA3
:10509000720A00004E6F6E4C61746368696E67201F
:1050A0005331583820434F4D2D5035204E65726D89
:1050B0006F6C0A0010B5044600BF002240211C4856
:1050C000FCF744FE00BF00BF012280211848FCF716
:1050D0003DFE00BF00BF012210211648FCF736FE3E
:1050E00000BF204601F09AFE0721042000F082FA5A
:1050F000A0B90621032000F07DFA78B90021042030
:1051000000F078FA50B90721032000F073FA28B9AB
:1051100005220421084600F0B1FA20B106A001F0F2
:10512000C1F9012010BD0CA001F0BCF90020F9E785
:1051300000000240000802404E6F6E4C61746368CC
:10514000696E67205331583820434F4D2D5036201B
:105150004572726F720A00004E6F6E4C6174636824
:10516000696E67205331583820434F4D2D503620FB
:105170004E65726D6F6C0A0010B5044600BF0122C7
:1051800040211C48FCF7E2FD00BF00BF0022802147
:105190001848FCF7DBFD00BF00BF012210211648B4
:1051A000FCF7D4FD00BF204601F038FE04210020AA
:1051B00000F020FAA0B90121084600F01BFA78B9E6
:1051C0000021042000F016FA50B90721032000F056
:1051D00011FA28B906220321042000F04FFA20B169
:1051E00006A001F05FF9012010BD0CA001F05AF9F2
:1051F0000020F9E700000240000802404E6F6E4CAC
:1052000061746368696E67205331583820434F4D8D
:105210002D5037204572726F720A00004E6F6E4C2F
:1052200061746368696E67205331583820434F4D6D
:105230002D5037204E65726D6F6C0A0010B5044614
:1052400000BF002240211C48FCF780FD00BF00BFCA
:10525000002280211848FCF779FD00BF00BF012221
:1052600010211648FCF772FD00BF204601F0D6FD64
:105270000721042000F0BEF9A0B90621032000F0A8
:10528000B9F978B90021042000F0B4F950B9072128
:10529000032000F0AFF928B906220321042000F012
:1052A000EDF920B106A001F0FDF8012010BD0CA021
:1052B00001F0F8F80020F9E7000002400008024081
:1052C0004E6F6E4C61746368696E67205331583855
:1052D00020434F4D2D5038204572726F720A0000E6
:1052E0004E6F6E4C61746368696E67205331583835
:1052F00020434F4D2D5038204E65726D6F6C0A0063
:1053000010B5044600BF00224FF400411A48FCF7D4
:105310001DFD00BF00BF00224FF480511648FCF76E
:1053200015FD00BF00BF00224FF400611248FCF7DA
:105330000DFD00BF00BF00224FF480710E48FCF746
:1053400005FD00BF204601F069FD0722062101206E
:1053500000F094F928B901220021022000F08EF912
:1053600020B106A001F09EF8012010BD0BA001F0B5
:1053700099F80020F9E70000000002404E6F6E4CE3
:1053800061746368696E67204D31583420537461CD
:1053900074652041204572726F720A004E6F6E4C28
:1053A00061746368696E67204D31583420537461AD
:1053B00074652041204E6F726D656C0A000000001C
:1053C00010B5044600BF0122D1031A48FCF7BEFC09
:1053D00000BF00BF00224FF480511648FCF7B6FC16
:1053E00000BF00BF00224FF400611248FCF7AEFC82
:1053F00000BF00BF00224FF480710E48FCF7A6FCEE
:1054000000BF204601F00AFD04220521012000F022
:1054100035F928B901220021022000F02FF920B12E
:1054200005A001F03FF8012010BD0BA001F03AF8F3
:105430000020F9E7000002404E6F6E4C6174636813
:10544000696E67204D315834205374617465204271
:10545000204572726F720A004E6F6E4C6174636801
:10546000696E67204D315834205374617465204251
:10547000204E6F726D656C0A0000000010B5044686
:1054800000BF00224FF400411948FCF75FFC00BF49
:1054900000BF00224FF480511548FCF757FC00BFB5
:1054A00000BF0122D1021248FCF750FC00BF00BF30
:1054B00000224FF480710E48FCF748FC00BF2046E4
:1054C00001F0ACFC07220621012000F0D7F828B932
:1054D00002220321104600F0D1F820B105A000F00F
:1054E000E1FF012010BD0BA000F0DCFF0020F9E778
:1054F000000002404E6F6E4C61746368696E6720F5
:105500004D315834205374617465204320457272C4
:105510006F720A004E6F6E4C61746368696E67202B
:105520004D3158342053746174652043204E6F729E
:105530006D656C0A0000000010B5044600BF012232
:10554000D1031A48FCF702FC00BF00BF00224FF451
:1055500080511648FCF7FAFB00BF00BF0122D102C0
:105560001248FCF7F3FB00BF00BF00224FF480712C
:105570000E48FCF7EBFB00BF204601F04FFC042275
:105580000521012000F07AF828B9022203211046F3
:1055900000F074F820B106A000F084FF012010BDD7
:1055A0000BA000F07FFF0020F9E7000000000240A0
:1055B0004E6F6E4C61746368696E67204D3158346C
:1055C0002053746174652044204572726F720A0022
:1055D0004E6F6E4C61746368696E67204D3158344C
:1055E0002053746174652044204E6F726D656C0A9F
:1055F0000000000038B505460C466946284600F014
:1056000055F80120A0409DF80010084008B1012085
:1056100038BD0020FCE7704710B5002424E0144892
:1056200050F82400F8B1FCF797FB114951F8241009
:10563000884218D374B90F480078012803D100209C
:105640000C4908700BE00B48007840B9012009496B
:10565000087004E0012C02D10120074908700020E5
:10566000034941F82400641C022CD8DB10BD000063
:1056700004060020000600200C060020F8B50646AF
:105680000C4615466946304600F010F80120A0404F
:105690009DF80010084038B90120A8409DF800107E
:1056A000084008B90020F8BD0120FCE7FEB504461B
:1056B0000D462646642001210B463246CDE90051B5
:1056C000029040210148FCF7FBFCFEBDE8090020E8
:1056D0002DE9F74F0C4615460026002768E03748AD
:1056E0000078002846D1FDB90098FEF7E5F880461D
:1056F0000098FEF715F981460098FEF745F98246B5
:105700000098FEF775F98346B8F1000F08D1B9F19A
:10571000000F05D1BAF1000F02D1BBF1000F01D08B
:105720007F1C35E0761C33E0012D1FD10098FFF778
:10573000A5F980460098FFF7EDF981460098FFF73C
:1057400035FA82460098FFF77DFA8346B8F1000FDC
:1057500008D1B9F1000F05D1BAF1000F02D1BBF1A8
:10576000000F01D07F1C13E0761C11E014A000F0A4
:1057700099FE0DE011480078012809D115A000F02C
:1057800091FE3A46314619A000F08CFE002411E04B
:10579000201E04F101040BD10120084908701EA04D
:1057A00000F080FE3A46314610A000F07BFE01E09A
:1057B000002C94D100BFBDE8FE8F00000006002041
:1057C000533158342054797065646566204572728F
:1057D0006F720A004C617463685F53315834205310
:1057E0007769746368204F46460A00005331583485
:1057F000204175746F2053756363657373204E7514
:105800006D202564203B204661696C204E756D201B
:105810002564200A000000005465737420636F75CE
:105820006E74206F766572666C6F770A00000000F8
:1058300010B50446A07D01280AD1E07D40B90020C2
:1058400007490870627D608B0121FFF741FF05E089
:10585000A07D022802D1204600F09CF810BD000077
:105860000006002000B587B000BF00200190464828
:10587000006840F00200444908600846006800F0F3
:105880000200019000BF00BF00BF00200190084649
:10589000006840F0040008600846006800F004005A
:1058A000019000BF00BF8815029001200390049072
:1058B0000320059002A93548FCF756F98020029094
:1058C0000120039004900320059002A92F48FCF7C3
:1058D0004BF9402002900120039004900320059092
:1058E00002A92A48FCF740F94FF400700290012009
:1058F000039004900320059002A92448FCF734F992
:105900004FF4004002900120039004900320059082
:1059100002A91F48FCF728F94FF4804002900120AB
:10592000039004900320059002A91948FCF71CF984
:1059300000BF012211021548FCF708FA00BF00BFA2
:10594000012251021148FCF701FA00BF00BF0122F9
:1059500080210E48FCF7FAF900BF00BF0122402168
:105960000A48FCF7F3F900BF00BF0122D103084841
:10597000FCF7ECF900BF00BF012291030448FCF7DB
:10598000E5F900BF07B000BD303802400008024012
:105990000004024010B50446607DE8B9207E30B1B5
:1059A000012808D002280AD0032810D10BE01420C7
:1059B000FDF782FF0FE01420FDF7B2FF0BE014208B
:1059C000FDF7E2FF07E01420FEF712F803E015A050
:1059D00000F068FD00BF23E0607D01281DD1207E1E
:1059E00030B1012808D002280AD0032810D10BE0DA
:1059F0001420FFF743F80FE01420FFF78BF80BE0BB
:105A00001420FFF7D3F807E01420FFF71BF903E099
:105A100004A000F047FD00BF02E007A000F042FD37
:105A200010BD000053315834205374617465204513
:105A300072726F720A00000053315834205459506A
:105A400045204572726F720A0000000010B500BF59
:105A500000224FF400510948FCF778F900BF00BF5D
:105A6000012240210648FCF771F900BF00BF012266
:105A700011030248FCF76AF900BF10BD00040240A0
:105A80000000024010B500BF012251030948FCF795
:105A90005DF900BF00BF012240210748FCF756F91D
:105AA00000BF00BF00224FF480510248FCF74EF9BE
:105AB00000BF10BD000402400000024010B500BF4E
:105AC00000224FF480610948FCF740F900BF00BF95
:105AD000012280210648FCF739F900BF00BF0122EE
