:020000040800F2
:10000000080E0020B1010008114000084D2600082C
:100010000D40000885070008515500080000000049
:10002000000000000000000000000000E14F000898
:10003000FD0D000800000000FB4B0008C150000847
:10004000CB010008CB010008CB010008CB01000860
:10005000CB010008CB010008CB010008CB01000850
:10006000FF0D0008090E0008CB010008CB010008B5
:10007000CB010008CB010008CB010008CB01000830
:10008000CB010008CB010008CB01000800000000F4
:10009000000000000000000000000000CB0100088C
:1000A000CB010008CB010008CB010008CB01000800
:1000B000CB010008CB0100082D510008CB0100083E
:1000C000CB010008CB010008CB010008CB010008E0
:1000D000CB010008A5540008CB0100080000000077
:1000E000CB010008CB010008CB0100080000000094
:1000F000000000000000000000000000CB0100082C
:1001000000000000CB010008CB010008CB01000873
:1001100000000000000000000000000000000000DF
:10012000CB010008CB010008CB010008CB0100087F
:10013000CB010008000000000000000000000000EB
:10014000000000000000000000000000CB010008DB
:10015000CB010008CB010008CB010008CB0100084F
:10016000CB010008CB0100080000000000000000E7
:10017000000000000000000000000000000000007F
:1001800000000000CB01000800000000000000009B
:10019000CB010008CB010008DFF810D000F044F9D3
:1001A0000048004719590008AFF30080080E0020EE
:1001B0000648804706480047FEE7FEE7FEE7FEE701
:1001C000FEE7FEE7FEE7FEE7FEE7FEE7C9500008B0
:1001D000990100082DE9F05F0546002092469B46F4
:1001E00088460646814640241BE02846414647464D
:1001F000224600F0D1F853465A46C01A914110D316
:1002000011461846224600F0B8F82D1A67EB01088F
:100210004F4622460120002100F0AFF817EB0009FD
:100220004E41201EA4F10104DFDC484631462A4637
:100230004346BDE8F09F000000487047A45C0008FA
:1002400040EA01039B0703D009E008C9121F08C058
:10025000042AFAD203E011F8013B00F8013B521ED8
:10026000F9D27047D2B201E000F8012B491EFBD24F
:1002700070470022F6E710B513460A4604461946B1
:10028000FFF7F0FF204610BD10B5044604E00B78E0
:1002900000F8013B03B1491C521EF8D2204610BDA4
:1002A000CAB2401E10F8011F8A4202D00029F9D1BB
:1002B00000207047421C10F8011B0029FBD1801A56
:1002C000704710B5002200E0521C835C8C5CA34296
:1002D00001D1002BF8D1D8B2E1B2401A10BD0346CB
:1002E00011F8012B00F8012B002AF9D118467047AC
:1002F00070B50F4D00B92868002412E00A4602E0EC
:100300009E4203D0521C1378002BF9D1DAB222435B
:1003100005D02BB124B1002100F8011B04E00446F4
:10032000401C0678002EE9D12860204670BD0000F0
:10033000B405002070B5064605F032F9046805469C
:100340000A220021304600F037F82C6070BD30B52D
:100350000B46014600202022012409E021FA02F583
:100360009D4205D303FA02F5491B04FA02F528441D
:10037000151EA2F10102F1DC30BD202A04DB203A77
:1003800000FA02F1002070479140C2F1200320FAE8
:1003900003F3194390407047202A04DB203A21FAE6
:1003A00002F00021704721FA02F3D040C2F120028E
:1003B00091400843194670472DE9F04791460F4692
:1003C00080460446002614F8015B2DB1FFF734FF88
:1003D0000068405DC007F6D12B2D02D02D2D18D01E
:1003E000641E4A463946204600F030F827B1396885
:1003F000A14201D1C7F8008071054FF002040BD56E
:100400004042002803DD05F0CBF80460A007BDE8FA
:10041000F08746F48066E4E70028F8DA05F0C0F8D3
:1004200004606FF00040F2E7064C074D06E0E0681C
:1004300040F0010394E8070098471034AC42F6D32B
:10044000FFF7AEFEA85C0008C85C00082DE9F05F6D
:1004500082460078002715468B460AF10104B9460A
:10046000302801D09DB113E014F8010B0127782842
:1004700003D0582801D045B10AE00DB1102D07D1A5
:100480000027102514F8010B02E0082500E00A25DA
:100490000026B0460EE005FB080005FB06F101272B
:1004A00001EB10461FFA80F8B6F5803F00D3B9463D
:1004B00014F8010B294600F018F80028EBDABBF11C
:1004C000000F05D00FB1641E00E05446CBF8004089
:1004D000B9F1000F06D005F063F802210160C81ED3
:1004E000BDE8F09F48EA0640FAE73A2800D23038E3
:1004F00020F02002412A01D3A2F13700884201D323
:100500004FF0FF30704730B58C1810F8012B12F007
:100510000F0301D110F8013B120906D110F8012B8D
:1005200003E010F8015B01F8015B5B1EF9D101E00B
:1005300001F8013B521EFBD1A142E6D3002030BDA1
:1005400055494A6822F440324A604A6843681A436F
:100550004A600268526822F4807203685A60026836
:100560005368026943EA022203685A6002685268CB
:1005700022F0407203685A600268526883681A4326
:1005800003685A600268926822F4006203689A6005
:1005900002689268C3681A4303689A603F4B826A94
:1005A0009A4218D00268926822F0706203689A60DA
:1005B00002689268836A1A4303689A6002689268C4
:1005C00022F0405203689A6002689268C36A1A4334
:1005D00003689A600BE00268926822F07062036818
:1005E0009A600268926822F0405203689A6002683A
:1005F000926822F0020203689A6002689368027EA1
:1006000043EA420203689A602022125CA2B10268A7
:10061000526842F4006203685A600268526822F429
:10062000604203685A6002685368426A521E43EA95
:10063000423203685A6005E00268526822F40062A0
:1006400003685A600268D26A22F470020368DA62B0
:100650000268D36A828B521E43EA02520368DA624E
:100660000268926822F4007203689A6002689368D4
:1006700090F8302043EA422203689A600268926848
:1006800022F4806203689A6002689368426943EAD0
:10069000822203689A607047002301400100000F26
:1006A00010B50E480E4908604FF4803048600021B4
:1006B0000B488160C1600161416101760121C16126
:1006C000002180F820104162064981620021C16248
:1006D00080F8301000F09EFB10BD000000200140AB
:1006E000040900200100000F08B500BF00200090A1
:1006F0001C48006840F400101A4908600846006869
:1007000000F40010009000BF00BF00BF0020009068
:1007100014481038006840F002001249103908608F
:100720000846006800F00200009000BF00BF0E48BD
:100730000E4908600E48486000210C4881604FF463
:100740008041016100214161C16101620A21C160F2
:100750000021816100F0FEFC10B106A004F010FF42
:1007600008BD000040380240005400408C090020C1
:10077000801A060049324320494E495420455252BE
:100780004F520A0000BFFEE770B506460D461446FC
:1007900019E00F48007880B134B9304602F0F8F91A
:1007A000304602F039FA0EE0012C0CD1304603F04D
:1007B0004DFC304603F04AFC05E00548017805A0F1
:1007C00004F0DEFE0025281EA5F10105E1D170BD73
:1007D000B00500204331583247205377697463686D
:1007E0003A25640A0000000010B5044601200449BF
:1007F0000870627DA08B216AFFF7C6FF10BD000064
:10080000B005002000B587B000BF002001902E4841
:10081000006840F004002C4908600846006800F0B9
:100820000400019000BF00BF00BF002001900846F7
:10083000006840F0040008600846006800F004000A
:10084000019000BF00BF00BF002001900846006873
:1008500040F0040008600846006800F004000190C1
:1008600000BF00BF081502900120039004900320F0
:10087000059002A9154800F06FFB4FF480500290DC
:1008800002A9124800F068FB4FF40060029002A930
:100890000E4800F061FB00BF012291020B4800F0FE
:1008A0004DFC00BF00BF00224FF48051074800F00C
:1008B00045FC00BF00BF00224FF40061034800F078
:1008C0003DFC00BF07B000BD3038024000080240C8
:1008D00010B50446A07E10B1012808D103E0142011
:1008E00002F056F907E0142002F096F903E003A0A5
:1008F00004F046FE00BF00BF10BD00004331583277
:1009000047205374617465204572726F720A00004B
:100910002DE9F0478EB0044627468E48D0F87C1566
:100920002046884708E020780D2802D020780A2841
:1009300001D100202070641C20780028F3D12070A1
:100940003C46342101A8FFF794FC322201A920463D
:1009500004F096FF9DF8040018B901200EB0BDE820
:10096000F08724217C48FFF784FC3A2101A8FFF797
:1009700097FC002874D079A101A8FFF7B9FC0546BF
:10098000002D6ED02846FFF795FC142801D90120D0
:10099000E4E72846FFF78EFC8246524629466E4819
:1009A000FFF772FC00206C4908756CA1FFF7A0FCF2
:1009B00080466AA10020FFF79BFC814667A10020CA
:1009C000FFF796FC064666A14046FFF77AFC18B989
:1009D0000020614948750AE063A14046FFF771FCB9
:1009E00018B901205C49487501E00120B6E760A113
:1009F0004846FFF766FC28B9002057498875012052
:100A0000C8756BE05CA14846FFF75BFC58B9012054
:100A1000514988751EB13046FFF78CFC00E000207C
:100A20004D4908835AE055A14846FFF74AFC002883
:100A300052D1304604F05CFF00284BD051A1304623
:100A4000FFF73FFC18B900204349887646E04EA1E5
:100A50003046FFF736FC28B901203F4988763DE053
:100A60003EE03CE049A13046FFF72BFC18B90220DC
:100A70003949887632E046A13046FFF722FC18B9A2
:100A800003203549887629E042A13046FFF719FC5A
:100A900018B904203049887620E03FA13046FFF79E
:100AA00010FC18B905202C49887617E03BA1304688
:100AB000FFF707FC18B90620274988760EE038A111
:100AC0003046FFF7FEFB18B907202349887605E07A
:100AD000012043E7012041E701203FE700BF12E08A
:100AE00001A8FFF7E7FB142801D9012036E72046CB
:100AF000FFF7E0FB05462A4601A91748FFF7C4FBAC
:100B0000002015490875002513E0C5EBC500114A02
:100B100002EB80011048FFF7D4FB40B9C5EBC500DC
:100B20000C4A02EB800081690B48884707E0681C8B
:100B3000C5B2084890F87805A842E6DC00BF204618
:100B4000FFF7B8FB054629462046FFF792FB002039
:100B500004E7000030000020E00900203A00000017
:100B60004C4F434B000000004E4F4C4F434B000096
:100B70004155544F00000000534554005354415414
:100B800055530000410000004200000043000000F7
:100B9000440000004500000046000000470000003F
:100BA0004800000001460A460B4609E00878612823
:100BB00005DB08787A2802DC087820380870491CA0
:100BC00008780028F2D1114606E00878202802D0E3
:100BD000087803F8010B491C08780028F5D1187033
:100BE0001146704770B505460C460FE00A4800787C
:100BF00030B1284600F0C6F8284600F08BF805E032
:100C00000548017805A004F0BBFC0024201EA4F1D7
:100C10000104EBD170BD0000B00500204331583213
:100C200047205377697463683A25640A000000001E
:100C300010B50446012003490870A08B216AFFF714
:100C4000D1FF10BDB005002000B587B000BF002067
:100C500001901E48006840F002001C4908600846E8
:100C6000006800F00200019000BF00BF00BF00203C
:100C700001900846006840F00200086008460068DD
:100C800000F00200019000BF00BF10200290012080
:100C9000039004900320059002A90D4800F05CF930
:100CA0000820029002A90A4800F056F900BF01226C
:100CB0001021074800F042FA00BF00BF01220821BE
:100CC000034800F03BFA00BF07B000BD30380240D7
:100CD0000004024010B50446A07E10B1012808D1DE
:100CE00003E0142000F04EF807E0142000F012F8A2
:100CF00003E003A004F044FC00BF00BF10BD0000EF
:100D00004432583242205374617465204572726FC8
:100D1000720A000010B5044600BF012210210E48DF
:100D200000F00CFA00BF00BF002208210A4800F0C2
:100D300005FA00BF204604F073FD062207210020BB
:100D400003F05CFF18B105A004F01AFC02E008A053
:100D500004F016FC10BD000000040240443258327A
:100D6000425F426172204572726F720A0000000099
:100D700044325832425F426172204E6F726D656C30
:100D80000A00000010B5044600BF002210211048E0
:100D900000F0D4F900BF00BF012208210C4800F088
:100DA000CDF900BF204604F03BFD0021012003F0F7
:100DB00013FF20B90521002003F00EFF18B105A094
:100DC00004F0DEFB02E008A004F0DAFB10BD000036
:100DD0000004024044325832425F43726F73732002
:100DE0004572726F720A000044325832425F437299
:100DF0006F7373204E6F726D656C0A00704710B58B
:100E0000042000F09BF810BD10B5082000F096F803
:100E100010BD000070B5044600250CB9012070BD5E
:100E20001549A06A884200D000BF206C30B9204626
:100E300000F024F80020606484F83C00206C00F08E
:100E4000100088B9206C20F4885040F00200206423
:100E50002046FFF775FB00206064206C20F0020044
:100E600040F00100206400E0012500BF002084F86C
:100E70003C0000BF2846D2E70100000F10B586B045
:100E8000044600BF002000901548006840F48070C0
:100E9000134908600846006800F48070009000BFA5
:100EA00000BF00BF002000900D481438006840F0DB
:100EB00001000B49143908600846006800F0010081
:100EC000009000BF00BF302001900320029000205E
:100ED000039001A9034800F03FF806B010BD0000E0
:100EE000443802400000024010B50446142004F0CB
:100EF00097FC042C10D0082C12D10B48007818B99C
:100F000001200949087006E007480078012802D14D
:100F100000200549087004E004A004F031FB00E063
:100F200000BF00BF10BD0000B00500204B45595F59
:100F300053454C45545F50494E0A000010B50446D5
:100F400004480068204020B1024804602046FFF7B2
:100F5000CBFF10BD143C0140F8B503460A460025FE
:100F6000002400200021CDE0012606FA01F51668D4
:100F700006EA0504AC4273D15668022E02D05668C8
:100F8000122E13D1CF0803F1200656F827004E0782
:100F9000F70E0F26BE40B0434F07FF0E1669BE4046
:100FA0003043CF0803F1200646F8270018684F00A9
:100FB0000326BE40B043167906F003064F00BE403C
:100FC000304318605668012E08D05668022E05D0AE
:100FD0005668112E02D05668122E13D198684F0011
:100FE0000326BE40B0434F00D668BE4030439860F1
:100FF000586801268E40B0431679C6F300168E401D
:1010000030435860D8684F000326BE40B0434F00BD
:101010009668BE403043D860566806F08056B6F1F8
:10102000805F6ED100BF00260096384E366846F4C9
:101030008046364F3E603E46366806F4804600964F
:1010400000BF00BF324E8F0856F827008E07370FBB
:101050000F26BE40B0432F4EB34202D1002615E00A
:101060004FE02D4EB34201D101260FE02B4EB3428B
:1010700001D102260AE02A4EB34201D1032605E03F
:10108000284EB34201D1042600E007268F073F0F08
:10109000BE4030431E4E8F0846F82700224E30686F
:1010A000A043566806F48036B6F5803F00D1204351
:1010B0001D4E3060361D3068A043566806F4003679
:1010C000B6F5003F00D12043174E361D3060361D67
:1010D0003068A043566806F48016B6F5801F00D12C
:1010E0002043114E08363060361D3068A0435668E4
:1010F00006F40016B6F5001F00D120430A4E0C3648
:101100003060491C1029FFF42FAFF8BD443802406D
:10111000083801400000024000040240000802407C
:10112000000C024000100240003C014002461369DE
:101130000B400BB1012000E0002070470AB1816133
:1011400001E00B04836170470148006870470000AC
:101150001400002070B504460CB9012070BD94F84D
:101160003D0028B9002084F83C00204600F0CCFB6C
:10117000242084F83D002068006820F001002168E8
:10118000086000F08FFD05465C496068884206D81B
:101190005B48854201D2012007E0002005E0594864
:1011A000854201D2012000E00020012800D1D5E7CE
:1011B0005548B5FBF0F62068406820F03F0030430A
:1011C000216848604D496068884201D8701C07E07A
:1011D0004FF4967070434FF47A71B0FBF1F0401CFD
:1011E0002168096A21F03F010843216808624349E8
:1011F0006068884214D8681E61684900B0FBF1F04D
:10120000401CC0F30B00042801D204203DE0681EFE
:1012100061684900B0FBF1F0401CC0F30B0034E002
:10122000A06838B9681E616801EB4101B0FBF1F0BC
:10123000401C0AE0681E616801EBC10202EB01116B
:10124000B0FBF1F0401C40F48040C0F30B0008B943
:1012500001201AE0A06848B9681E616801EB4101ED
:10126000B0FBF1F0401CC0F30B000CE0681E61689D
:1012700001EBC10202EB0111B0FBF1F0401CC0F325
:101280000B0040F4804040F400402168C9694CF6EE
:10129000FF72914308432168C861D4E907010843FC
:1012A0002168096821F0C001084321680860D4E979
:1012B000031008432168896848F2FF3291430843CC
:1012C00021688860D4E9050108432168C96821F0D4
:1012D000FF0108432168C8602068006840F00100F1
:1012E0002168086000202064202084F83D00002050
:1012F000206384F83E0000BF30E70000A0860100B4
:1013000080841E0000093D0040420F002DE9F84F87
:1013100004460F4690461E46FFF716FF05464FF05F
:10132000010994F83D0020287ED1192301225E494D
:101330002046009501F0DCFA10B10220BDE8F88FDC
:1013400000BF94F83C00012801D10220F6E70120FB
:1013500084F83C0000BF2068006800F0010028B954
:101360002068006840F0010021680860206800687B
:1013700020F4006021680860242084F83D000020EB
:1013800020644A48E06200BF2068006840F4807032
:1013900021680860334600224FF001112046009575
:1013A00001F0A6FA08B10120C8E707F0FE002168A5
:1013B0000861FFF7C9FE054620684069C0F3400A8E
:1013C00020684069C0F3802B10E0FFF7BDFE401B92
:1013D000B04200D816B9A02084F83D0020684069CA
:1013E000C0F3400A20684069C0F3802B94F83D00A8
:1013F000A02805D0BAF1000F02D1BBF1000FE4D054
:10140000202084F83D0020684069C0F3400028B3E4
:101410002068006840F400702168086000BF002068
:1014200000902068406900E03BE0009020688069FF
:10143000009000BF00BF192301221B4920460095E0
:1014400001F056FA08B1012078E7202084F83D0029
:1014500000BF002084F83C0000BF6FE720680068F0
:1014600040F40070216808606FF480602168486172
:10147000192301220C492046009501F039FA08B1E0
:1014800001205BE709F10109C145FFF47DAF202090
:1014900084F83D0000BF002084F83C0000BF01201C
:1014A0004CE702204AE70000020010000000FFFFA6
:1014B0002DE9FC5F04460F4690469946DDE90CABEA
:1014C0000E9EFFF741FE054694F83D00202870D19E
:1014D00019230122B0492046009501F009FA10B104
:1014E0000220BDE8FC9F00BF94F83C00012801D118
:1014F0000220F6E7012084F83C0000BF2068006865
:1015000000F0010028B92068006840F0010021685F
:1015100008602068006820F40060216808602220CC
:1015200084F83D00402084F83E0000202064C4F888
:1015300024A0A4F82AB0608D20859848E0624B462C
:10154000424639462046CDE9006501F0A1F808B1D0
:101550000120C6E7208D88B900BF002001902068D7
:101560004069019020688069019000BF00BF206839
:10157000006840F400702168086040E0208D012878
:1015800018D12068006820F480602168086000BFDE
:1015900000200190206840690190206880690190D6
:1015A00000BF00BF2068006840F400702168086038
:1015B00025E0EFE0208D022816D12068006820F495
:1015C0008060216808602068006840F4006021683D
:1015D000086000BF002001902068406901902068E9
:1015E0008069019000BF0AE000BF002001902068E0
:1015F0004069019020688069019000BF00BFBAE097
:10160000208D03287ED8208D012815D12A46314609
:10161000204601F012FA08B1012062E72068006953
:10162000616A0870606A401C6062208D401E2085DF
:10163000608D401E60859EE0208D02282AD13346B1
:10164000002257492046009501F052F908B10120C7
:1016500047E72068006840F400702168086020684F
:101660000069616A0870606A401C6062208D401EDB
:101670002085608D401E608520680069616A087061
:10168000606A401C6062208D401E2085608D401E77
:10169000608570E03346002241492046009501F004
:1016A00027F908B101201CE72068006820F4806059
:1016B0002168086020680069616A0870606A401CDF
:1016C0006062208D401E2085608D401E60853346FF
:1016D000002233492046009501F00AF908B10120A3
:1016E000FFE62068006840F4007021680860206808
:1016F0000069616A0870606A401C6062208D401E4B
:10170000208500E010E0608D401E60852068006943
:10171000616A0870606A401C6062208D401E2085EE
:10172000608D401E608526E02A463146204601F045
:1017300084F908B10120D4E620680069616A087064
:10174000606A401C6062208D401E2085608D401EB6
:10175000608520684069C0F3800060B1206800693E
:10176000616A0870606A401C6062208D401E20859E
:10177000608D401E6085208D00287FF441AF2020C1
:1017800084F83D00002084F83E0000BF84F83C004F
:1017900000BFA6E60220A4E6020010000000FFFF42
:1017A000040001002DE9FC5F04460F46904699466F
:1017B000DDE90CAB0E9EFFF7C7FC054694F83D0033
:1017C00020287DD1192301224D492046009501F0A2
:1017D0008FF810B10220BDE8FC9F00BF94F83C00D8
:1017E000012801D10220F6E7012084F83C0000BF67
:1017F0002068006800F0010028B92068006840F007
:101800000100216808602068006820F400602168F9
:101810000860212084F83D00402084F83E0000202C
:101820002064C4F824A0A4F82AB0608D208535482F
:10183000E0624B46424639462046CDE9006500F05D
:10184000C3FF08B10120C6E731E02A4631462046F1
:1018500001F033F950B1206C042805D120680068EC
:1018600040F40070216808600120B4E7606A0078E5
:1018700021680861606A401C6062208D401E2085DE
:10188000608D401E608520684069C0F3800070B1A3
:10189000208D60B1606A007821680861606A401C30
:1018A0006062208D401E2085608D401E6085208DE9
:1018B0000028CAD12A463146204600F0EBFF00E05E
:1018C0001CE050B1206C042805D12068006840F469
:1018D00000702168086001207DE72068006840F4FE
:1018E000007021680860202084F83D00002084F802
:1018F0003E0000BF84F83C0000BF6CE702206AE7AE
:10190000020010000000FFFF10B586B0044614214D
:1019100001A8FEF7AEFC25492068884244D100BFEB
:10192000002000902248006840F400102049086020
:101930000846006800F40010009000BF00BF00BF20
:10194000002000901A481038006840F00200184942
:10195000103908600846006800F00200009000BFDF
:1019600000BF40200190122002900020039003202D
:1019700004900420059001A90E48FFF7EDFA80209D
:1019800001900420059001A90A48FFF7E5FA0848EC
:101990002038006840F400100549203908600846E6
:1019A000006820F40010086006B010BD005400402C
:1019B00040380240000402400348006803490978A7
:1019C0000844014908607047140000201C000020F2
:1019D00010B50D48006840F400700B4908600846D7
:1019E000006840F4806008600846006840F4807039
:1019F0000860032000F07CF80F2000F007F800F0EA
:101A00002BF8002010BD0000003C024070B50446D9
:101A10000E4800784FF47A71B1FBF0F00C49096878
:101A2000B1FBF0F5284600F0EDFB08B1012070BDD8
:101A3000102C07D200222146501E00F01BF805484A
:101A4000046001E00120F2E70020F0E71C00002024
:101A50000000002018000020704700BF00F01F02A7
:101A6000012191404209920002F1E022C2F80011E6
:101A700000BF70472DE9F05F80460D4616460027EF
:101A800002F0C8FA074639462A46334601F00700F5
:101A9000C0F1070ABAF1040F02D94FF0040A01E0BD
:101AA000C0F1070AD14600F1040ABAF1070F02D2C9
:101AB0004FF0000A01E0A0F1030AD4464FF0010AFA
:101AC0000AFA09FAAAF1010A0AEA020A0AFA0CFA5F
:101AD0004FF0010B0BFA0CFBABF1010B0BEA030B04
:101AE0004AEA0B042146404602F09CFABDE8F09F0A
:101AF00000BF00F00702064B19684FF6FF031940BC
:101B0000044B0B4343EA0221014B196000BF7047AD
:101B10000CED00E00000FA0570B504460D460CB966
:101B2000012070BD5848006800F00F00A84209D29B
:101B300055490D700846006800F00F00A84201D01A
:101B40000120EEE7207800F0020002281DD1207865
:101B500000F00400042805D14C48006840F4E0502F
:101B60004A490860207800F00800082805D1474855
:101B7000006840F46040454908604448006820F02F
:101B8000F000A168084341490860207800F0010096
:101B9000A8B36068012807D13C4808380068C0F342
:101BA0004040B8B90120BCE76068022802D06068F4
:101BB000032807D1354808380068C0F3406048B9A9
:101BC0000120AEE7314808380068C0F3400008B98A
:101BD0000120A6E72D48006820F003006168084353
:101BE0002A490860FFF7B0FA064609E0FFF7ACFAA9
:101BF000801B41F28831884202D9032091E707E037
:101C00002248006800F00C006168B0EB810FEDD154
:101C10001D48006800F00F00A84209D91A490D704C
:101C20000846006800F00F00A84201D0012078E7C4
:101C3000207800F00400042807D11448006820F43C
:101C4000E050E168084311490860207800F008007E
:101C5000082808D10D48006820F46040216940EA56
:101C6000C1000A49086000F03DF808490968C1F35D
:101C70000311074A515CC840064908600F20FFF76E
:101C8000C5FE00204DE70000003C0240083802403D
:101C9000085C000800000020014800687047000050
:101CA0000000002000B5FFF7F7FF04490968C1F301
:101CB0008221034A515CC84000BD00000838024040
:101CC000185C000800B5FFF7E7FF04490968C1F395
:101CD0004231034A515CC84000BD00000838024050
:101CE000185C00082DE9F047002400250026A146D5
:101CF0002548006800F00C0020B1042805D0082811
:101D00003AD105E0DFF8849039E0DFF8849036E0DE
:101D10001D48001F006800F03F041B48001F0068BA
:101D200000F4800078B11A481749091F0968C1F307
:101D30008811A0FB01700146224600233846FEF7B9
:101D400049FA05460EE011480F49091F0968C1F319
:101D50008811A0FB01700146224600233846FEF799
:101D600039FA05460848001F0068C0F30140401CCE
:101D70004600B5FBF6F902E0DFF8109000BF00BFA7
:101D80004846BDE8F0870000083802400024F4000F
:101D900000127A00F8B504460CB90120F8BD20788D
:101DA00000F00100002874D0F948006800F00C0031
:101DB00004280DD0F648006800F00C00082813D164
:101DC000F348001F006800F48000B0F5800F0BD1CD
:101DD000EF4808380068C0F34040002859D06068D8
:101DE000002856D10120D9E700BF6068B0F5803FD8
:101DF00008D1E7480838006840F48030E4490839E1
:101E000008601EE06068B0F5A02F0DD1E0480838EA
:101E1000006840F48020DE49083908600846006800
:101E200040F4803008600CE0D9480838006820F49D
:101E30008030D749083908600846006820F48020BF
:101E4000086000BF606890B1FFF77EF9054606E0C4
:101E5000FFF77AF9401B642801D903209EE7CC489C
:101E600008380068C0F340400028F1D011E0FFF7C7
:101E70006BF9054606E0FFF767F9401B642801D9B6
:101E800003208BE7C24808380068C0F340400028B0
:101E9000F1D1207800F0020002285FD1BC48006830
:101EA00000F00C0058B1BA48006800F00C00082897
:101EB0001CD1B748001F006800F48000B0B9B448D6
:101EC00008380068C0F3400020B1E068012801D064
:101ED000012063E7AE480838006820F0F800216967
:101EE00040EAC100AA490839086037E0E06800B359
:101EF0000120A8490860FFF727F9054606E0FFF72B
:101F000023F9401B022801D9032047E7A0480838DD
:101F10000068C0F340000028F1D09D4808380068F0
:101F200020F0F800216940EAC100994908390860A9
:101F300014E0002097490860FFF706F9054606E01F
:101F4000FFF702F9401B022801D9032026E7904839
:101F500008380068C0F340000028F1D1207800F074
:101F6000080008282CD16069A8B101208A490860BE
:101F7000FFF7EAF8054606E0FFF7E6F8401B0228FF
:101F800001D903200AE782486C300068C0F34000A2
:101F90000028F1D014E000207F490860FFF7D4F852
:101FA000054606E0FFF7D0F8401B022801D90320C0
:101FB000F4E677486C300068C0F340000028F1D1A7
:101FC000207800F00400042870D1002670483830D2
:101FD000006800F0805090B900BF002000906C486D
:101FE0003830006840F08050694938310860084650
:101FF000006800F08050009000BF00BF01266748D5
:10200000006800F48070B0B96448006840F48070E3
:1020100062490860FFF798F8054606E0FFF794F874
:10202000401B022801D90320B8E65C48006800F490
:1020300080700028F2D000BFA068012808D1544861
:102040006830006840F001005149683108601DE0C7
:10205000A06805280DD14E486830006840F00400A3
:102060004B49683108600846006840F0010008608C
:102070000CE047486830006820F0010044496831AE
:1020800008600846006820F00400086000BFA068EF
:10209000A8B1FFF759F8054609E0FFF755F8401BCE
:1020A00041F28831884202D9032077E626E0384899
:1020B00068300068C0F340000028EED013E0FFF75E
:1020C00043F8054608E0FFF73FF8401B41F288312E
:1020D000884201D9032061E62D4868300068C0F3CA
:1020E00040000028EFD1012E07D129483830006880
:1020F00020F0805026493831086000BFA069B8B38D
:102100002348006800F00C0008285ED0A06902286F
:1021100046D100201F490866FFF716F8054606E07D
:10212000FFF712F8401B022801D9032036E61848B1
:1021300008380068C0F340600028F1D1D4E90701F5
:102140000843616A40EA81110122A06AC2EB500093
:1021500041EA00412C20005D41EA00600C49091F62
:10216000086001200B490866FEF7EEFF054607E010
:102170002DE0FEF7E9FF401B022801D903200DE600
:10218000034808380068C0F340600028F1D01EE022
:102190000838024000004742800E4742007000406D
:1021A00000200C490866FEF7CFFF054606E0FEF763
:1021B000CBFF401B022801D90320EFE50648006849
:1021C000C0F340600028F2D101E00120E6E50020E4
:1021D000E4E500000000474200380240042808D12E
:1021E0004FF0E021096941F004014FF0E022116154
:1021F00007E04FF0E021096921F004014FF0E022EF
:102200001161704770B504462546681EB0F1807FA5
:1022100001D301200FE0681E4FF0E02148610F213B
:102220004FF0FF3001F0FEFE00204FF0E02188610A
:1022300007200861002070BD70477047704710B5D7
:10224000044620680069C0F34000D8B12068C06827
:10225000C0F34000B0B16FF00200216808610120B6
:1022600020772068806900F0030018B12046FFF74E
:10227000E5FF05E0204600F0ADF8204600F0ABF8A1
:102280000020207720680069C0F38000D8B1206862
:10229000C068C0F38000B0B16FF00400216808612D
:1022A000022020772068806900F4407018B1204631
:1022B000FFF7C4FF05E0204600F08CF8204600F050
:1022C0008AF80020207720680069C0F3C000D8B1E8
:1022D0002068C068C0F3C000B0B16FF0080021688A
:1022E0000861042020772068C06900F0030018B15D
:1022F0002046FFF7A3FF05E0204600F06BF82046DC
:1023000000F069F80020207720680069C0F3001011
:10231000D8B12068C068C0F30010B0B16FF01000F1
:1023200021680861082020772068C06900F44070A7
:1023300018B12046FFF782FF05E0204600F04AF87A
:10234000204600F048F8002020772068006900F05F
:10235000010058B12068C06800F0010030B16FF092
:10236000010021680861204600F036F82068006905
:10237000C0F3C01058B12068C068C0F3C01030B1BD
:102380006FF08000216808612046FFF755FF206844
:102390000069C0F3801058B12068C068C0F3801095
:1023A00030B16FF0400021680861204600F08EF8DF
:1023B00020680069C0F3401058B12068C068C0F3BD
:1023C000401030B16FF02000216808612046FFF70F
:1023D00034FF10BD704770472F4988425AD12F49AA
:1023E0000988491C2D4A11802D490988491C2C4A0D
:1023F00011802C490988491C2A4A11802A490988D8
:10240000491C294A118029490988491C274A1180F9
:1024100027490988491C264A118020490988022930
:1024200005DB00211D4A11800121224A11701C493F
:102430000988052905DB0021194A118001211E4A5E
:102440001170184909880A2905DB0021154A1180F5
:1024500001211A4A117014490988642905DB0021F9
:10246000114A11800121164A117010490988C829A2
:1024700005DB00210D4A11800121124A11700C491F
:102480000988B1F5C87F05DB0021094A11800121C7
:102490000D4A1170704700004C09002024000020F4
:1024A00026000020280000202A0000202C00002008
:1024B0002E0000201E0000201F0000202000002011
:1024C000210000202200002023000020704710B5CA
:1024D00004460CB9012010BDA06900B100E000BFA6
:1024E00094F8390028B9002084F83800204600F01C
:1024F00027F8242084F839002068C06820F40050B0
:102500002168C860204602F019FE2068006920F4A6
:102510009040216808612068406920F02A00216805
:1025200048612068C06840F400502168C8600020FD
:10253000E063202084F8390084F83A000020CAE7DC
:1025400010B586B004462249206888423ED100BFBB
:10255000002000901F48006840F001001D490860FD
:102560000846006800F00100009000BF00BF00BFF7
:102570000020009017481430006840F01000154902
:10258000143108600846006800F01000009000BF99
:1025900000BF481501900220029001200390022004
:1025A00004900720059001A90B48FEF7D5FC4FF4D5
:1025B0008060019001A90848FEF7CEFC2520FFF7B6
:1025C0004CFA032211462520FFF754FA06B010BD3D
:1025D00000100140303802400000024010B50346B0
:1025E00093F83A0020282FD101B10AB9012010BD7B
:1025F00000BF93F83800012801D10220F7E701203D
:1026000083F8380000BF99629A85DA850020D86384
:10261000222083F83A0000BF002083F8380000BF72
:102620001868C06840F480701C68E06018684069F1
:1026300040F001001C6860611868C06840F020002C
:102640001C68E0600020D2E70220D0E700BFFEE770
:10265000014608684069C0F38020B0B16FF4806023
:102660000A68506100200863202081F83D000020A6
:1026700081F83E00086C40F00400086400BF0020B0
:1026800081F83C0000BF012070470020FCE70000FB
:102690002DE9F84304460F4615469946DDE90886BC
:1026A0002068006840F48060216808602068006845
:1026B00040F4807021680860434600224FF0011109
:1026C0002046009600F014F910B10120BDE8F8830F
:1026D00007F0FE002168086133464246394920462A
:1026E00000F049F908B10120F0E700BF0020009098
:1026F00020684069009020688069009000BF00BF9A
:1027000032464146204600F0D8F950B1206C0428EA
:1027100005D12068006840F400702168086001203D
:10272000D4E7B9F1010F03D1E8B22168086117E0DD
:10273000C5F307202168086132464146204600F073
:10274000BCF950B1206C042805D12068006840F421
:102750000070216808600120B8E7E8B221680861CC
:1027600032464146204600F0A8F950B1206C0428BA
:1027700005D12068006840F40070216808600120DD
:10278000A4E72068006840F4807021680860434630
:1027900000224FF001112046009600F0A9F808B180
:1027A000012093E7F8B240F0010021680861334648
:1027B00042460449204600F0DEF808B1012085E7D2
:1027C000002083E7020001002DE9F8430446884613
:1027D00015469946DDE908672068006840F4807076
:1027E00021680860334600224FF00111204600970F
:1027F00000F07EF810B10120BDE8F88308F0FE007B
:10280000216808613B4632462149204600F0B3F872
:1028100008B10120F0E700BF002000902068406967
:10282000009020688069009000BF00BF3A463146A2
:10283000204600F042F950B1206C042805D12068F0
:10284000006840F40070216808600120D4E7B9F105
:10285000010F03D1E8B22168086117E0C5F3072032
:10286000216808613A463146204600F026F950B109
:10287000206C042805D12068006840F400702168AD
:1028800008600120B8E7E8B2216808610020B3E7DA
:102890000200010070B504460D46164620E02046B1
:1028A000FFF7D6FE08B1012070BD681CC0B1FEF76D
:1028B0004BFC801BA84200D895B900202063202043
:1028C00084F83D00002084F83E00206C40F0200099
:1028D000206400BF002084F83C0000BF0120E3E733
:1028E00020684069C0F380000028D8D00020DBE7D2
:1028F0002DE9F04104460D4617461E46DDF81880C6
:102900001CE0701CD0B1FEF71FFCA0EB0800B04229
:1029100000D89EB900202063202084F83D000020CC
:1029200084F83E00206C40F02000206400BF0020AE
:1029300084F83C0000BF0120BDE8F081C5F30740EA
:1029400001280AD120684069A9B20840A9B288428A
:1029500001D101200BE0002009E020688069A9B2C4
:102960000840A9B2884201D1012000E00020B8420D
:10297000C7D00020E0E72DE9F04104460D46164699
:102980001F463DE020684069C0F38020E8B1206820
:10299000006840F40070216808606FF4806021686E
:1029A000486100202063202084F83D00002084F846
:1029B0003E00206C40F00400206400BF002084F83A
:1029C0003C0000BF0120BDE8F081701CC0B1FEF7E3
:1029D000BBFBC01BB04200D896B90020206320206A
:1029E00084F83D00002084F83E00206C40F0200078
:1029F000206400BF002084F83C0000BF0120E2E713
:102A0000C5F3074001280AD120684069A9B20840EF
:102A1000A9B2884201D101200BE0002009E0206822
:102A20008069A9B20840A9B2884201D1012000E022
:102A300000200028A6D00020C5E770B504460D464A
:102A4000164632E020684069C0F30010A0B16FF074
:102A500010002168486100202063202084F83D0098
:102A6000002084F83E00206C206400BF002084F821
:102A70003C0000BF012070BDFEF766FB801BA84232
:102A800000D895B900202063202084F83D00002064
:102A900084F83E00206C40F02000206400BF00203D
:102AA00084F83C0000BF0120E5E720684069C0F3DE
:102AB00080100028C6D00020DDE770B504460D4622
:102AC000164620E02046FFF7C3FD08B1012070BD87
:102AD000681CC0B1FEF738FB801BA84200D895B92E
:102AE00000202063202084F83D00002084F83E0070
:102AF000206C40F02000206400BF002084F83C00DF
:102B000000BF0120E3E720684069C0F3C01000283F
:102B1000D8D00020DBE7000000B587B000BF002060
:102B200001901848006840F0010016490860084606
:102B3000006800F00100019000BF00BF0820029073
:102B400011480390012004900320059002A90F482A
:102B5000FEF702FA0420029002A90C48FEF7FCF9E5
:102B6000012200210820FEF785FF0820FEF775FFEF
:102B7000002211460920FEF77DFF0920FEF76DFFB8
:102B800007B000BD303802400000211000000240B4
:102B900010B5044600BF012211031248FEF7CEFA19
:102BA00000BF00BF012291020E48FEF7C7FA00BF26
:102BB00000BF00224FF400610A48FEF7BFFA00BFD1
:102BC000204602F02DFE01220221002002F016F81C
:102BD00018B105A002F0D4FC02E009A002F0D0FC7C
:102BE00010BD0000000802404C617463685F43310F
:102BF0005832475F4D41204572726F720A000000E3
:102C00004C617463685F43315832475F4D41204ED9
:102C10006F726D656C0A000010B5044600BF00229B
:102C20004FF480511148FEF789FA00BF00BF01221E
:102C300091020E48FEF782FA00BF00BF0122D102C6
:102C40000A48FEF77BFA00BF204602F0E9FD0022A9
:102C50000321104601F0D2FF18B105A002F090FC4C
:102C600002E009A002F08CFC10BD00000008024048
:102C70004C617463685F43315832475F4D42204571
:102C800072726F720A0000004C617463685F4331B6
:102C90005832475F4D42204E6F726D656C0A0000DE
:102CA00010B5044600BF012280211F48FEF746FAF6
:102CB00000BF00BF002240211B48FEF73FFA00BFC3
:102CC00000BF012211021848FEF738FA00BF00BF0A
:102CD0000122D1031548FEF731FA00BF00BF0022E0
:102CE0004FF480411148FEF729FA00BF00BF0122CE
:102CF00051020D48FEF722FA00BF204602F090FD77
:102D000003220221012001F079FF28B900220121CC
:102D1000032001F073FF18B105A002F031FC02E0BE
:102D200008A002F02DFC10BD000802400004024083
:102D30005331583420434F4D2D5031204572726F1E
:102D4000650A00005331583420434F4D2D50312037
:102D50004E65726D6F6C0A0010B5044600BF00220C
:102D600080212048FEF7EAF900BF00BF0022402181
:102D70001C48FEF7E3F900BF00BF00224FF480714A
:102D80001848FEF7DBF900BF00BF0122D103164847
:102D9000FEF7D4F900BF00BF00224FF48041124873
:102DA000FEF7CCF900BF00BF012251020D48FEF72B
:102DB000C5F900BF204602F033FD0522042103209F
:102DC00001F01CFF28B900220121032001F016FFA9
:102DD00018B106A002F0D4FB02E009A002F0D0FB7B
:102DE00010BD000000080240000402405331583476
:102DF00020434F4D2D5032204572726F650A0000FE
:102E00005331583420434F4D2D5032204E65726D52
:102E10006F6C0A0010B5044600BF012280212048D3
:102E2000FEF78CF900BF00BF002240211C48FEF7CE
:102E300085F900BF00BF012211021948FEF77EF993
:102E400000BF00BF00224FF400411648FEF776F99C
:102E500000BF00BF00224FF480411248FEF76EF918
:102E600000BF00BF00224FF400710D48FEF766F965
:102E700000BF204602F0D4FC03220221012001F011
:102E8000BDFE28B903220221104601F0B7FE18B199
:102E900005A002F075FB02E008A002F071FB10BD76
:102EA00000080240000402405331583420434F4D83
:102EB0002D5033204572726F650A0000533158342B
:102EC00020434F4D2D5033204E65726D6F6C0A00BC
:102ED00010B5044600BF002280212148FEF72EF9DC
:102EE00000BF00BF002240211D48FEF727F900BFA8
:102EF00000BF00224FF480711948FEF71FF900BF90
:102F000000BF00224FF400411648FEF717F900BF3A
:102F100000BF00224FF480411248FEF70FF900BFB6
:102F200000BF00224FF400710D48FEF707F900BF03
:102F3000204602F075FC05220421032001F05EFE0C
:102F400028B903220221104601F058FE18B106A04C
:102F500002F016FB02E009A002F012FB10BD000017
:102F600000080240000402405331583420434F4DC2
:102F70002D5034204572726F650A00005331583469
:102F800020434F4D2D5034204E65726D6F6C0A00FA
:102F900070B506460D46144642E0244800780028E5
:102FA00038D0C4B9304600F059F8304600F0E2F8A5
:102FB000304600F06BF9304600F0F4F9304600F08E
:102FC0007FFA304600F008FB304600F091FB3046B7
:102FD00000F01AFC24E0012C18D1304601F098F9D9
:102FE000304601F0F5F9304601F080FA304601F044
:102FF000DBFA304601F036FB304601F091FB3046FB
:1030000001F0ECFB304601F047FC09E008A002F0BB
:10301000B7FA05E0054801780AA002F0B1FA0025E8
:10302000281EA5F10105B8D170BD0000B005002033
:103030005331583820547970656465662045727242
:103040006F720A004C61746368696E67205331586F
:1030500038205377697463683A25640010B50446D4
:1030600000BF012240213148FEF768F800BF00BFD1
:1030700000224FF480512E48FEF760F800BF00BFD9
:10308000012251032A48FEF759F800BF00BF012270
:1030900080212648FEF752F800BF00BF002202211F
:1030A0002348FEF74BF800BF00BF012291022048E1
:1030B000FEF744F800BF00BF002210211D48FEF7B4
:1030C0003DF800BF00BF002220211A48FEF736F865
:1030D00000BF00BF002201211548FEF72FF800BFF6
:1030E000204602F09DFB0721042001F075FDA0B9E8
:1030F0000621032001F070FD78B906220321042087
:1031000001F07CFD48B90021042001F065FD20B9E3
:103110000321084601F060FD18B107A002F030FA63
:1031200002E00CA002F02CFA10BD000000000240EA
:1031300000040240000802404C61746368696E67D5
:10314000205331583820434F4D2D50312045727255
:103150006F720A004C61746368696E67205331585E
:103160003820434F4D2D5031204E65726D6F6C0AE3
:103170000000000010B5044600BF00224021314885
:10318000FDF7DCFF00BF00BF00224FF480512E4846
:10319000FDF7D4FF00BF00BF00224FF400512A48C2
:1031A000FDF7CCFF00BF00BF012280212548FDF7BD
:1031B000C5FF00BF00BF002202212348FDF7BEFF6C
:1031C00000BF00BF012291021F48FDF7B7FF00BFFB
:1031D00000BF002210211D48FDF7B0FF00BF00BF57
:1031E000002220211948FDF7A9FF00BF00BF0022DF
:1031F00001211548FDF7A2FF00BF204602F010FB99
:103200000421002001F0E8FCA0B90121084601F0EA
:10321000E3FC78B90021042001F0DEFC50B9032161
:10322000084601F0D9FC28B906220321042001F048
:10323000E5FC18B106A002F0A3F902E00BA002F031
:103240009FF910BD00000240000402400008024047
:103250004C61746368696E67205331583820434F5E
:103260004D2D5032204572726F720A004C617463AA
:1032700068696E67205331583820434F4D2D5032C6
:10328000204E65726D6F6C0A0000000010B5044698
:1032900000BF012240213148FDF750FF00BF00BFB1
:1032A00000224FF480512E48FDF748FF00BF00BFB9
:1032B000012251032A48FDF741FF00BF00BF002251
:1032C00080212648FDF73AFF00BF00BF00220221FF
:1032D0002348FDF733FF00BF00BF00224FF4806199
:1032E0001F48FDF72BFF00BF00BF002210211D4823
:1032F000FDF724FF00BF00BF002220211948FDF781
:103300001DFF00BF00BF002201211548FDF716FF79
:1033100000BF204602F084FA0721042001F05CFC83
:10332000A0B90621032001F057FC78B90021042040
:1033300001F052FC50B90321084601F04DFC28B9B8
:1033400005220421084601F059FC18B106A002F03C
:1033500017F902E00BA002F013F910BD00000240C3
:1033600000040240000802404C61746368696E67A3
:10337000205331583820434F4D2D50332045727221
:103380006F720A004C61746368696E67205331582C
:103390003820434F4D2D5033204E65726D6F6C0AAF
:1033A0000000000010B5044600BF00224021324852
:1033B000FDF7C4FE00BF00BF00224FF480512F482C
:1033C000FDF7BCFE00BF00BF00224FF400512B48A8
:1033D000FDF7B4FE00BF00BF002280212648FDF7A4
:1033E000ADFE00BF00BF002202212448FDF7A6FE6B
:1033F00000BF00BF00224FF480612048FDF79EFE11
:1034000000BF00BF002210211D48FDF797FE00BF3E
:1034100000BF002220211A48FDF790FE00BF00BF28
:10342000002201211548FDF789FE00BF204602F069
:10343000F7F90421002001F0CFFBA0B901210846D3
:1034400001F0CAFB78B90021042001F0C5FB50B996
:103450000321084601F0C0FB28B9052204210846D3
:1034600001F0CCFB18B107A002F08AF802E00CA032
:1034700002F086F810BD0000000002400004024087
:10348000000802404C61746368696E6720533158CC
:103490003820434F4D2D5033204572726F720A0011
:1034A0004C61746368696E67205331583820434F0C
:1034B0004D2D5033204E65726D6F6C0A0000000078
:1034C00010B5044600BF012240213148FDF736FE09
:1034D00000BF00BF00224FF480512E48FDF72EFEA2
:1034E00000BF00BF012251032A48FDF727FE00BF9D
:1034F00000BF012280212648FDF720FE00BF00BF4B
:10350000002202212348FDF719FE00BF00BF01225F
:1035100091022048FDF712FE00BF00BF01221021DA
:103520001D48FDF70BFE00BF00BF002220211A48F6
:10353000FDF704FE00BF00BF012211461548FDF74C
:10354000FDFD00BF204602F06BF90721042001F0C9
:1035500043FBA0B90621032001F03EFB78B901210D
:10356000042001F039FB50B90221042001F034FBA2
:1035700028B906220321042001F040FB18B107A05E
:1035800001F0FEFF02E00CA001F0FAFF10BD000008
:103590000000024000040240000802404C617463D5
:1035A00068696E67205331583820434F4D2D503392
:1035B000204572726F720A004C61746368696E67AD
:1035C000205331583820434F4D2D5033204E6572D3
:1035D0006D6F6C0A0000000010B5044600BF0022A9
:1035E00040213148FDF7AAFD00BF00BF00224FF483
:1035F00080512E48FDF7A2FD00BF00BF00224FF40E
:1036000000512A48FDF79AFD00BF00BF012280212A
:103610002548FDF793FD00BF00BF0022022123488B
:10362000FDF78CFD00BF00BF012291021F48FDF78E
:1036300085FD00BF00BF012210211D48FDF77EFD62
:1036400000BF00BF002220211948FDF777FD00BF11
:1036500000BF012211461548FDF770FD00BF20464E
:1036600002F0DEF80421002001F0B6FAA0B9012131
:10367000084601F0B1FA78B90121042001F0ACFA52
:1036800050B90221042001F0A7FA28B9062203212B
:10369000042001F0B3FA18B106A001F071FF02E0B6
:1036A0000BA001F06DFF10BD0000024000040240BD
:1036B000000802404C61746368696E67205331589A
:1036C0003820434F4D2D5033204572726F720A00DF
:1036D0004C61746368696E67205331583820434FDA
:1036E0004D2D5033204E65726D6F6C0A0000000046
:1036F00010B5044600BF012240213148FDF71EFDF0
:1037000000BF00BF00224FF480512E48FDF716FD88
:1037100000BF00BF012251032A48FDF70FFD00BF83
:1037200000BF002280212648FDF708FD00BF00BF32
:10373000002202212348FDF701FD00BF00BF002247
:103740004FF480611F48FDF7F9FC00BF00BF012264
:1037500010211D48FDF7F2FC00BF00BF0022202110
:103760001948FDF7EBFC00BF00BF012211461548C8
:10377000FDF7E4FC00BF204602F052F807210420C8
:1037800001F02AFAA0B90621032001F025FA78B940
:103790000121042001F020FA50B90221042001F097
:1037A0001BFA28B905220421084601F027FA18B1AE
:1037B00006A001F0E5FE02E00BA001F0E1FE10BD65
:1037C0000000024000040240000802404C617463A3
:1037D00068696E67205331583820434F4D2D503360
:1037E000204572726F720A004C61746368696E677B
:1037F000205331583820434F4D2D5033204E6572A1
:103800006D6F6C0A0000000010B5044600BF002276
:1038100040213248FDF792FC00BF00BF00224FF468
:1038200080512F48FDF78AFC00BF00BF00224FF4F3
:1038300000512B48FDF782FC00BF00BF0022802111
:103840002648FDF77BFC00BF00BF00220221244870
:10385000FDF774FC00BF00BF00224FF480612048D8
:10386000FDF76CFC00BF00BF012210211D48FDF7D1
:1038700065FC00BF00BF002220211A48FDF75EFC56
:1038800000BF00BF012211461548FDF757FC00BFDD
:10389000204601F0C5FF0421002001F09DF9A0B9E8
:1038A0000121084601F098F978B90121042001F0BE
:1038B00093F950B90221042001F08EF928B90522AC
:1038C0000421084601F09AF918B107A001F058FE4A
:1038D00002E00CA001F054FE10BD00000000024008
:1038E00000040240000802404C61746368696E671E
:1038F000205331583820434F4D2D5033204572729C
:103900006F720A004C61746368696E6720533158A6
:103910003820434F4D2D5033204E65726D6F6C0A29
:103920000000000070B506460C46254890F8780562
:10393000322801DB012070BD3046FCF7BBFC1428A7
:1039400001D30120F7E71E4890F87805C0F1320056
:10395000A0420ADA1A4890F87805C0F13200211A1C
:1039600018A001F00DFE0120E5E7002524E0C5EBDD
:10397000C50206EB8201124A92F87825C2EBC20218
:103980000F4B03EB8200FCF7AAFCC5EBC50006EB6E
:10399000800080690A4991F87815C1EBC101084A95
:1039A00002EB81018861104690F87805401C1146B1
:1039B00081F87805681CC5B2A542D8DB0020BAE7BB
:1039C000300000204D454D4F52595F455843454505
:1039D0004445443A2564200A0000000070B50546BD
:1039E0000C460EE009480078012806D1284600F070
:1039F0004FF8284600F07CF803E005A001F0C0FD78
:103A00000024201EA4F10104ECD170BDB0050020FB
:103A1000433158324720537769746368204F4646D4
:103A20000A00000010B50446012003490870A08B6D
:103A3000216AFFF7D3FF10BDB005002000B587B0A5
:103A400000BF002001901048006840F008000E49B7
:103A500008600846006800F00800019000BF00BF41
:103A6000042002900120039004900320059002A9F5
:103A70000648FDF771FA00BF002204210348FDF754
:103A80005DFB00BF07B000BD30380240000C0240B3
:103A900010B5044600BF012204210A48FDF74EFB81
:103AA00000BF204601F0BCFE05220621022001F0E5
:103AB000A5F818B104A001F063FD02E007A001F031
:103AC0005FFD10BD000C02404D3158315F537461F1
:103AD000746541206572726F720A00004D31583171
:103AE0005F537461746541204E6F726D616C0A00A2
:103AF00010B5044600BF002204210A48FDF71EFB52
:103B000000BF204601F08CFE04220721022001F0B4
:103B100075F818B104A001F033FD02E007A001F030
:103B20002FFD10BD000C02404D3158315F537461C0
:103B3000746542206572726F720A00004D3158310F
:103B40005F537461746542204E6F726D616C0A0040
:103B500010B50446A07E10B1012808D103E014205E
:103B6000FFF796FF07E01420FFF7C2FF03E003A072
:103B700001F006FD00BF00BF10BD00004D315831FF
:103B8000205374617465204572726F720A000000E0
:103B900070B506460C46154623E014480078D0B1AF
:103BA00065B9304600F0F2F8304600F03FF9304693
:103BB00000F08CF9304600F0D9F912E0304600F000
:103BC000C9FE304600F018FF304600F065FF304671
:103BD00000F0B2FF05E00548017805A001F0D0FC37
:103BE0000024201EA4F10104D7D170BDB00500202F
:103BF0004331583247205377697463683A25640A21
:103C00000000000010B50446012004490870627DE0
:103C1000A08B216AFFF7BCFF10BD0000B00500209B
:103C200000B587B000BF002001902848006840F030
:103C30000100264908600846006800F00100019074
:103C400000BF00BF4FF40040029001200390049099
:103C50000320059002A91E48FDF77EF94FF480501D
:103C6000029002A91A48FDF777F94FF4006002901C
:103C700002A91748FDF770F94FF48070029002A96D
:103C80001348FDF769F900BF00224FF400411048C6
:103C9000FDF754FA00BF00BF00224FF480510C48DA
:103CA000FDF74CFA00BF00BF00224FF40061084846
:103CB000FDF744FA00BF00BF00224FF480710448B2
:103CC000FDF73CFA00BF07B000BD000030380240ED
:103CD0000000024010B50446607DE8B9A07E30B116
:103CE000012808D002280AD0032810D10BE01420A4
:103CF00000F04CF80FE0142000F098F80BE01420CE
:103D000000F0E4F807E0142000F030F903E015A01B
:103D100001F036FC00BF23E0607D01281DD1A07EAC
:103D200030B1012808D002280AD0032810D10BE0B6
:103D3000142000F00FFE0FE0142000F05DFE0BE0F9
:103D4000142000F0A9FE07E0142000F0F5FE03E0C7
:103D500004A001F015FC00BF02E007A001F010FC78
:103D600010BD00004D3158342053746174652045F6
:103D700072726F720A0000004D315834205459504D
:103D800045204572726F720A0000000010B50446AB
:103D900000BF00224FF400411848FDF7CFF900BFE3
:103DA00000BF012211031548FDF7C8F900BF00BF8D
:103DB00000224FF400611148FDF7C0F900BF00BFB9
:103DC000012211020D48FDF7B9F900BF204601F0AC
:103DD00027FD07220621012000F010FF28B901224B
:103DE0000021022000F00AFF18B105A001F0C8FB75
:103DF00002E008A001F0C4FB10BD0000000002407A
:103E00004D315834205374617465204120457272DD
:103E10006F720A004D31583420537461746520412B
:103E2000204E6F726D656C0A0000000010B50446EC
:103E300000BF0122D1031948FDF780F900BF00BF80
:103E400000224FF480511548FDF778F900BF00BFFC
:103E500000224FF400611148FDF770F900BF00BF68
:103E6000012211020D48FDF769F900BF204601F05B
:103E7000D7FC04220521012000F0C0FE28B9012250
:103E80000021022000F0BAFE18B105A001F078FB75
:103E900002E008A001F074FB10BD00000000024029
:103EA0004D3158342053746174653A422045727222
:103EB0006F720A004D3158342053746174653A4270
:103EC000204E6F726D656C0A0000000010B504464C
:103ED00000BF00224FF400411848FDF72FF900BF42
:103EE00000BF012211031548FDF728F900BF00BFEC
:103EF0000122D1021148FDF721F900BF00BF0022C5
:103F00004FF480710D48FDF719F900BF204601F00C
:103F100087FC07220621012000F070FE28B902224A
:103F20000321104600F06AFE18B105A001F028FB3D
:103F300002E008A001F024FB10BD000000000240D8
:103F40004D3158342053746174653A432045727280
:103F50006F720A004D3158342053746174653A43CE
:103F6000204E6F726D656C0A0000000010B50446AB
:103F700000BF0122D1031948FDF7E0F800BF00BFE0
:103F800000224FF480511548FDF7D8F800BF00BF5C
:103F90000122D1021148FDF7D1F800BF00BF002275
:103FA0004FF480710D48FDF7C9F800BF204601F0BD
:103FB00037FC04220521012000F020FE28B902224E
:103FC0000321104600F01AFE18B105A001F0D8FA3E
:103FD00002E008A001F0D4FA10BD00000000024089
:103FE0004D3158342053746174653A4320457272E0
:103FF0006F720A004D3158342053746174653A432E
:10400000204E6F726D656C0A0000000000BFFEE775
:104010007047000002480068C0F3022070470000AB
:104020000CED00E010B5002807DA0A07140E054A67
:1040300000F00F031B1FD45403E00A07130E024ABB
:10404000135410BD18ED00E000E400E010B5044684
:1040500000BF012291020A48FDF770F800BF204618
:1040600001F0DEFB00220321104600F0C7FD18B16D
:1040700004A001F085FA02E009A001F081FA10BD68
:10408000000802404E6F6E4C617463685F433158A4
:1040900032475F4D42204572726F720A0000000085
:1040A0004E6F6E4C617463685F43315832475F4DA9
:1040B00042204E6F726D656C0A00000010B5044618
:1040C00000BF012211021148FDF738F800BF00BF00
:1040D000012251020D48FDF731F800BF204601F0E2
:1040E0009FFB03220221012000F088FD28B9002255
:1040F0000121032000F082FD18B105A001F040FA73
:1041000002E00BA001F03CFA10BD000000080240E4
:104110004E6F6E206C6174636820533158342043B5
:104120004F4D2D5031204572726F650A000000001E
:104130004E6F6E206C617463682053315834204395
:104140004F4D2D5031204E65726D6F6C0A0000008E
:1041500010B5044600BF00224FF480711048FCF7F0
:10416000EDFF00BF00BF012251020D48FCF7E6FF42
:1041700000BF204601F054FB05220421032000F07B
:104180003DFD28B900220121032000F037FD18B1C0
:1041900004A001F0F5F902E00AA001F0F1F910BD68
:1041A000000802404E6F6E206C61746368205331CA
:1041B000583420434F4D2D5032204572726F650A9E
:1041C000000000004E6F6E206C61746368205331F4
:1041D000583420434F4D2D5032204E65726D6F6C18
:1041E0000A00000010B5044600BF01221102114868
:1041F000FCF7A4FF00BF00BF00224FF400710D4880
:10420000FCF79CFF00BF204601F00AFB03220221BD
:10421000012000F0F3FC28B903220221104600F02F
:10422000EDFC18B104A001F0ABF902E00AA001F026
:10423000A7F910BD000802404E6F6E206C617463D8
:1042400068205331583420434F4D2D503320457250
:10425000726F650A000000004E6F6E206C6174631F
:1042600068205331583420434F4D2D5033204E6534
:10427000726D6F6C0A00000010B5044600BF00228A
:104280004FF480711148FCF759FF00BF00BF0022B6
:104290004FF400710D48FCF751FF00BF204601F0BC
:1042A000BFFA05220421032000F0A8FC28B903224C
:1042B0000221104600F0A2FC18B105A001F060F93F
:1042C00002E00BA001F05CF910BD00000008024004
:1042D0004E6F6E206C6174636820533158342043F4
:1042E0004F4D2D5033204572726F650A000000005B
:1042F0004E6F6E206C6174636820533158342043D4
:104300004F4D2D5033204E65726D6F6C0A000000CA
:1043100010B5044600BF012240211B48FCF70EFFE8
:1043200000BF00BF012280211748FCF707FF00BF34
:1043300000BF002210211548FCF700FF00BF2046F7
:1043400001F06EFA0721042000F046FCA0B9062116
:10435000032000F041FC78B90021042000F03CFC6F
:1043600050B90321084600F037FC28B90622032182
:10437000042000F043FC18B105A001F001F902E0AF
:104380000BA001F0FDF810BD000002400008024043
:104390004E6F6E4C61746368696E67205331583894
:1043A00020434F4D2D5031204572726F720A00002C
:1043B0004E6F6E4C61746368696E67205331583874
:1043C00020434F4D2D5031204E65726D6F6C0A00A9
:1043D00010B5044600BF00224FF400513148FCF7ED
:1043E000ADFE00BF00BF002240212F48FCF7A6FE13
:1043F00000BF00BF00224FF480512A48FCF79EFE08
:1044000000BF00BF002280212748FCF797FE00BFB5
:1044100000BF002202212348FCF790FE00BF00BF2E
:1044200000224FF480611F48FCF788FE00BF00BFE8
:10443000002210211D48FCF781FE00BF00BF0022B2
:1044400020211A48FCF77AFE00BF00BF002201219C
:104450001448FCF773FE00BF204601F0E1F9042187
:10446000002000F0B9FBA0B90121084600F0B4FB20
:1044700078B90021042000F0AFFB50B903210846B1
:1044800000F0AAFB28B906220321042000F0B6FBA5
:1044900018B107A001F074F802E00CA001F070F868
:1044A00010BD00000004024000000240000802406D
:1044B0004C61746368696E67205331583820434FEC
:1044C0004D2D5032204572726F720A004C61746338
:1044D00068696E67205331583820434F4D2D503254
:1044E000204E65726D6F6C0A0000000010B5044626
:1044F00000BF002240211B48FCF720FE00BF00BF88
:10450000012280211748FCF719FE00BF00BF0022DE
:1045100010211548FCF712FE00BF204601F080F97B
:104520000721042000F058FBA0B90621032000F069
:1045300053FB78B90021042000F04EFB50B9032151
:10454000084600F049FB28B905220421084600F07E
:1045500055FB18B105A001F013F802E00AA001F024
:104560000FF810BD00000240000802404C61746367
:1045700068696E67205331583820434F4D2D5033B2
:10458000204572726F720A004C61746368696E67CD
:10459000205331583820434F4D2D5033204E6572F3
:1045A0006D6F6C0A0000000010B5044600BF0022C9
:1045B00040211B48FCF7C2FD00BF00BF0022802144
:1045C0001748FCF7BBFD00BF00BF002210211548B3
:1045D000FCF7B4FD00BF204601F022F904210020C1
:1045E00000F0FAFAA0B90121084600F0F5FA78B90E
:1045F0000021042000F0F0FA50B90321084600F031
:10460000EBFA28B905220421084600F0F7FA18B1A0
:1046100005A000F0B5FF02E00AA000F0B1FF10BD58
:1046200000000240000802404C61746368696E67D4
:10463000205331583820434F4D2D5033204572724E
:104640006F720A004C61746368696E672053315859
:104650003820434F4D2D5033204E65726D6F6C0ADC
:104660000000000010B5044600BF012240211B4895
:10467000FCF764FD00BF00BF012280211748FCF752
:104680005DFD00BF00BF012210211548FCF756FD5B
:1046900000BF204601F0C4F80721042000F09CFA76
:1046A000A0B90621032000F097FA78B9012104206F
:1046B00000F092FA50B90221042000F08DFA28B9D6
:1046C00006220321042000F099FA18B105A000F099
:1046D00057FF02E00AA000F053FF10BD00000240A7
:1046E000000802404C61746368696E67205331585A
:1046F0003820434F4D2D5033204572726F720A009F
:104700004C61746368696E67205331583820434F99
:104710004D2D5033204E65726D6F6C0A0000000005
:1047200010B5044600BF002240211B48FCF706FDDF
:1047300000BF00BF012280211748FCF7FFFC00BF2B
:1047400000BF012210211548FCF7F8FC00BF2046ED
:1047500001F066F80421002000F03EFAA0B9012122
:10476000084600F039FA78B90121042000F034FA43
:1047700050B90221042000F02FFA28B906220321A3
:10478000042000F03BFA18B105A000F0F9FE02E0A9
:104790000AA000F0F5FE10BD000002400008024033
:1047A0004C61746368696E67205331583820434FF9
:1047B0004D2D5033204572726F720A004C61746344
:1047C00068696E67205331583820434F4D2D503360
:1047D000204E65726D6F6C0A0000000010B5044633
:1047E00000BF012240211B48FCF7A8FC00BF00BF0E
:1047F000002280211748FCF7A1FC00BF00BF012266
:1048000010211548FCF79AFC00BF204601F008F87B
:104810000721042000F0E0F9A0B90621032000F0F0
:10482000DBF978B90121042000F0D6F950B9022152
:10483000042000F0D1F928B905220421084600F02F
:10484000DDF918B105A000F09BFE02E00AA000F01F
:1048500097FE10BD00000240000802404C617463E6
:1048600068696E67205331583820434F4D2D5033BF
:10487000204572726F720A004C61746368696E67DA
:10488000205331583820434F4D2D5033204E657200
:104890006D6F6C0A0000000010B5044600BF0022D6
:1048A00040211B48FCF74AFC00BF00BF00228021CA
:1048B0001748FCF743FC00BF00BF01221021154838
:1048C000FCF73CFC00BF204600F0AAFF04210020BA
:1048D00000F082F9A0B90121084600F07DF978B90D
:1048E0000121042000F078F950B90221042000F0E1
:1048F00073F928B905220421084600F07FF918B1A0
:1049000005A000F03DFE02E00AA000F039FE10BD57
:1049100000000240000802404C61746368696E67E1
:10492000205331583820434F4D2D5033204572725B
:104930006F720A004C61746368696E672053315866
:104940003820434F4D2D5033204E65726D6F6C0AE9
:104950000000000010B5044600BF00224FF40041E3
:104960001948FCF7EBFB00BF00BF00224FF4805159
:104970001548FCF7E3FB00BF00BF00224FF40061C5
:104980001148FCF7DBFB00BF00BF00224FF4807131
:104990000D48FCF7D3FB00BF204600F041FF072283
:1049A0000621012000F02AF928B901220021022065
:1049B00000F024F918B105A000F0E2FD02E008A023
:1049C00000F0DEFD10BD0000000002404D31583403
:1049D0002053746174652041204572726F720A0021
:1049E0004D3158342053746174652041204E6F72EC
:1049F0006D656C0A0000000010B5044600BF01227E
:104A0000D1031948FCF79AFB00BF00BF00224FF406
:104A100080511548FCF792FB00BF00BF00224FF405
:104A200000611148FCF78AFB00BF00BF00224FF471
:104A300080710D48FCF782FB00BF204600F0F0FEBD
:104A400004220521012000F0D9F828B90122002113
:104A5000022000F0D3F818B104A000F091FD02E0AC
:104A600007A000F08DFD10BD000002404D3158340C
:104A70002053746174653A42204572726F720A0065
:104A80004D3158342053746174653A42204E6F7230
:104A90006D656C0A0000000010B5044600BF0022DE
:104AA0004FF400411848FCF749FB00BF00BF00224B
:104AB0004FF480511448FCF741FB00BF00BF0122B6
:104AC000D1021148FCF73AFB00BF00BF00224FF4AF
:104AD00080710D48FCF732FB00BF204600F0A0FEBD
:104AE00007220621012000F089F828B902220321BB
:104AF000104600F083F818B104A000F041FD02E078
:104B000007A000F03DFD10BD000002404D315834BB
:104B10002053746174653A43204572726F720A00C3
:104B20004D3158342053746174653A43204E6F728E
:104B30006D656C0A0000000010B5044600BF01223C
:104B4000D1031948FCF7FAFA00BF00BF00224FF466
:104B500080511548FCF7F2FA00BF00BF0122D102D4
:104B60001148FCF7EBFA00BF00BF00224FF4807140
:104B70000D48FCF7E3FA00BF204600F051FE042286
:104B80000521012000F03AF828B90222032110463D
:104B900000F034F818B105A000F0F2FC02E008A023
:104BA00000F0EEFC10BD0000000002404D31583412
:104BB0002053746174653A43204572726F720A0023
:104BC0004D3158342053746174653A43204E6F72EE
:104BD0006D656C0A0000000038B505460C46694654
:104BE000284600F023F80120A0409DF8001008405E
:104BF00008B1012038BD0020FCE77047F8B5064633
:104C00000C4615466946304600F010F80120A040D9
:104C10009DF80010084038B90120A8409DF8001008
:104C2000084008B90020F8BD0120FCE7FEB50446A5
:104C30000D462646642001210B463246CDE900513F
:104C4000029040210148FCF733FCFEBD8C09002096
:104C500070B506460D46144629E01748007800B3A3
:104C600064B93046FEF71CF83046FEF775F830465A
:104C7000FEF7D0F83046FEF72BF918E0012C0CD1E6
:104C80003046FFF71BFA3046FFF762FA3046FFF76F
:104C9000A9FA3046FFF7F0FA09E008A000F070FC2E
:104CA00005E0054801780AA000F06AFC0025281EEE
:104CB000A5F10105D1D170BDB005002053315834A4
:104CC0002054797065646566204572726F720A00BF
:104CD0004C617463685F533158342053776974634F
:104CE000683A25640000000010B50446012004491C
:104CF0000870627DA08B216AFFF7AAFF10BD00003B
:104D0000B005002000B587B000BF002001903E48EC
:104D1000006840F002003C4908600846006800F066
:104D20000200019000BF00BF00BF002001900846B4
:104D3000006840F0040008600846006800F00400C5
:104D4000019000BF00BF88150290012003900490DD
:104D50000320059002A92D48FCF7FEF88020029060
:104D600002A92A48FCF7F8F84020029002A9274837
:104D7000FCF7F2F84FF40070029002A92348FCF708
:104D8000EBF84FF4004002900120039004900320C0
:104D9000059002A91E48FCF7DFF84FF4804002900E
:104DA00002A91B48FCF7D8F800BF00224FF480711D
:104DB0001648FCF7C3F900BF00BF00224FF4007192
:104DC0001248FCF7BBF900BF00BF002280210F484A
:104DD000FCF7B4F900BF00BF012240210B48FCF7EB
:104DE000ADF900BF00BF00224FF400410848FCF7B6
:104DF000A5F900BF00BF012291030548FCF79EF909
:104E000000BF07B000BD000030380240000802407B
:104E10000004024010B50446607DE8B9A07E30B1C0
:104E2000012808D002280AD0032810D10BE0142052
:104E3000FDF736FF0FE01420FDF78EFF0BE0142086
:104E4000FDF7E8FF07E01420FEF742F803E015A0A5
:104E500000F096FB00BF23E0607D01281DD1A07EFD
:104E600030B1012808D002280AD0032810D10BE065
:104E70001420FFF723F90FE01420FFF769F90BE086
:104E80001420FFF7AFF907E01420FFF7F5F903E06E
:104E900004A000F075FB00BF02E007A000F070FB6B
:104EA00010BD00005331583420537461746520459F
:104EB00072726F720A0000005331583420545950F6
:104EC00045204572726F720A0000000010B504465A
:104ED000012004490870627DA08B216AFEF758F812
:104EE00010BD0000B005002010B50446607D00280C
:104EF0002DD1A07E082825D2DFE800F004080C1090
:104F000014181C201420FEF7A9F81FE01420FEF747
:104F100031F91BE01420FEF7B9F917E01420FEF771
:104F200041FA13E01420FEF7CBFA0FE01420FEF74D
:104F300053FB0BE01420FEF7DBFB07E01420FEF729
:104F400063FC03E01CA000F01BFB00BF33E0607DAE
:104F500001282DD1A07E082825D2DFE800F0040822
:104F60000C1014181C201420FFF7D2F91FE0142095
:104F7000FFF72EFA1BE01420FFF7B8FA17E0142011
:104F8000FFF712FB13E01420FFF76CFB0FE0142077
:104F9000FFF7C6FB0BE01420FFF720FC07E014200E
:104FA000FFF77AFC03E004A000F0EAFA00BF02E099
:104FB00006A000F0E5FA10BD533158382053746153
:104FC0007465204572726F720A00000053315838C0
:104FD0002054595045204572726F720A000000003B
:104FE000704700002DE9F04393B004460D46164685
:104FF0009846002700BF002001902F48006840F02D
:1050000080502D4908600846006800F080500190EB
:1050100000BF00BF00BF002001902848006840F496
:105020004040264908600846006800F4404001906E
:1050300000BF00BF0220079001200A9002200D90BF
:1050400000210E910F9510941196CDF8488007A875
:10505000FCF7A0FE07460FB100BFFEE70F2002904D
:1050600002200390002004904FF48050059000200F
:105070000690032102A8FCF74FFD07460FB100BFC1
:10508000FEE7FCF709FE4FF47A71B0FBF1F94846F0
:10509000FDF7B8F8FCF700FE4FF47A71B0FBF1F9B8
:1050A0004846FDF7AFF800221146501EFCF7E2FC1F
:1050B00013B0BDE8F08300004038024000700040AB
:1050C00010B5FCF779FC10BD1448006840F470007E
:1050D000124908601248006840F001001049086059
:1050E00000200F49083108600D4800680D4908404C
:1050F0000B4908600C48091D0860081F006820F46F
:105100008020091F0860002005490C3108604FF01D
:1051100000600249803908607047000088ED00E0B7
:1051200000380240FFFFF6FE1030002410B50248A0
:10513000FDF785F810BD00004C0900202DE9F04175
:1051400004462068006920F44050E1680843216863
:1051500008612169A068084361690843E16940EA80
:1051600001052068C06849F20C6188432843216822
:10517000C8602068406920F44070A1690843216834
:105180004861E069B0F5004F7ED1C449206888428B
:1051900003D0C349206888425DD1FCF793FD00EB42
:1051A000C00101EB001061684900B0FBF1F064211F
:1051B000B0FBF1F00601FCF785FD00EBC00101EB4F
:1051C000001061684900B0FBF1F7FCF77BFD00EBD4
:1051D000C00101EB001061684900B0FBF1F06421EF
:1051E000B0FBF1F000EBC00101EB0010A7EB800079
:1051F000322101EBC0006421B0FBF1F000F0F800B7
:1052000006EB4006FCF75EFD00EBC00101EB001071
:1052100061684900B0FBF1F7FCF754FD00EBC001F9
:1052200001EB001061684900B0FBF1F06421B0FBB4
:10523000F1F000EBC00101EB0010A7EB8000322180
:1052400001EBC0006421B0FBF1F000F00700304436
:105250002168886020E1FCF725FD00EBC00101EB2F
:10526000001061684900B0FBF1F06421B0FBF1F07F
:105270000601FCF717FD00EBC00101EB00106168AF
:105280004900B0FBF1F700E045E0FCF70BFD00EB57
:10529000C00101EB001061684900B0FBF1F064212E
:1052A000B0FBF1F000EBC00101EB0010A7EB8000B8
:1052B000322101EBC0006421B0FBF1F000F0F800F6
:1052C00006EB4006FCF7EEFC00EBC00101EB001022
:1052D00061684900B0FBF1F7FCF7E4FC00EBC001AA
:1052E00001EB001061684900B0FBF1F06421B0FBF4
:1052F000F1F000EBC00101EB0010A7EB80003221C0
:1053000001EBC0006421B0FBF1F000F00700304475
:1053100021688860C0E061492068884203D0604904
:10532000206888425CD1FCF7CDFC00EBC00101EBAA
:10533000001061688900B0FBF1F6FCF7C3FC00EBDC
:10534000C00101EB001061688900B0FBF1F064213D
:10535000B0FBF1F000EBC00101EB0010A6EB800008
:10536000322101EB00106421B0FBF1F000F0F006F7
:10537000FCF7A8FC00EBC00101EB0010616889009C
:10538000B0FBF1F06421B0FBF1F006EB0016FCF786
:1053900099FC00EBC00101EB001061688900B0FBD3
:1053A000F1F7FCF78FFC00EBC00101EB0010616826
:1053B0008900B0FBF1F06421B0FBF1F000EBC0011B
:1053C00001EB0010A7EB8000322101EB00106421FB
:1053D000B0FBF1F000F00F003044216888605BE022
:1053E000FCF760FC00EBC00101EB00106168890074
:1053F000B0FBF1F6FCF756FC00EBC00101EB00102E
:1054000061688900B0FBF1F06421B0FBF1F000EBC2
:10541000C00101EB0010A6EB8000322101EB00106F
:105420006421B0FBF1F000F0F006FCF73BFC00EB70
:10543000C00101EB001061688900B0FBF1F064214C
:10544000B0FBF1F006EB0016FCF72CFC00EBC00102
:1054500001EB001061688900B0FBF1F7FCF722FC5A
:1054600000EBC00101EB001061688900B0FBF1F0B6
:105470006421B0FBF1F000EBC00101EB0010A7EBE1
:105480008000322101EB00106421B0FBF1F000F04C
:105490000F00304421688860BDE8F08100100140B1
:1054A0000014014030B5224A12681268C2F340125B
:1054B000002A3BD01E4A12685268D1B21D4A1378A6
:1054C0001278521C1B4C22701B4AD154224612786F
:1054D000921E194B9A5C0D2A28D122461278521E30
:1054E0009A5C0A2A22D10022144B1A70144A1078AE
:1054F0000EE0FF2800DD00200F4A135C0F4A1478ED
:105500001278521C0D4D2A700E4A1355421CD0B20F
:10551000084A12789042ECD1064A1278084B1A7069
:105520000122094B1A700022084B1A7030BD00008E
:105530008406002010000020040700201100002035
:1055400012000020040800200F000020B0050020F9
:1055500000BFFEE72DE9FE4305460C461646A04671
:1055600045F08007642001233A464021CDE90086BA
:1055700002900248FCF716F9BDE8FE838C09002072
:105580000FB4054B10B503A9044A029800F01CF8AB
:1055900010BC5DF814FB0000D5580008080000207E
:1055A00000487047B805002002E008C8121F08C173
:1055B000002AFAD170477047002001E001C1121F94
:1055C000002AFBD1704700002DE9FF4F8BB09A46AF
:1055D0000F460546002606E025280BD052460D99B9
:1055E00090476D1C761C28780028F5D10FB0304606
:1055F000BDE8F08F0024A0460122604900E004438A
:1056000015F8013F203B02FA03F00842F7D1287851
:105610002E2817D115F8010F44F004042A280ED0C3
:105620006FF02F022878A0F1300109290AD808EB81
:10563000880102EB410100EB01086D1CF2E757F80D
:10564000048B6D1C287869283ED006DC0028CDD05C
:1056500063280BD0642804D136E0732810D0752855
:105660004BD052460D999047761C85E017F8040BF5
:105670008DF8000000208DF80100E946012003E0CC
:1056800057F8049B4FF0FF3061074FF0000401D43E
:105690000AE0641C44450DDA8442FADB19F8041070
:1056A0000029F6D106E0641C8442FCDB19F80410E2
:1056B0000029F8D1264404E019F8010B52460D994F
:1056C0009047641EF8D257E001CF4FF00A0B002834
:1056D00002DA40422D2102E0210504D52B218DF86C
:1056E0002410012103E0E10705D02021F7E70DF1A7
:1056F000200908910CE00021F9E701CF4FF00A0BD7
:10570000F9E75946FAF723FE01F1300209F8012DB5
:105710000028F6D1ADEB090000F1200B600701D4A1
:105720004FF00108D84502DDA8EB0B0000E0002097
:105730008046002406E009A85246005D0D99904776
:10574000641C761C08988442F5DB04E03020524645
:105750000D999047761CB8F10001A8F10108F5DC1D
:1057600005E019F8010B52460D999047761CBBF1E4
:105770000001ABF1010BF4DC6D1C34E709280100DA
:1057800000B587B000BF002001901348006840F0CA
:105790000400114908600846006800F00400019008
:1057A00000BF00BF012002900390049003200590E9
:1057B00002A90A48FBF7D0FB002201210748FBF7AA
:1057C000BDFC642000F02CF8012211460348FBF7D1
:1057D000B5FC07B000BD00003038024000080240B0
:1057E00010B5FFF7CDFF00F005F9FAF759FFFEF706
:1057F00025F9FBF707F8FBF727FAFEF711FAFFF791
:1058000081FAFAF771FFFDF787F910BD10B504466C
:105810000420FCF7E3FC0148046010BD04000020F4
:1058200030B50446002504E04FF47A7000F004F827
:105830006D1CA542F8D330BD70B5034600224FF071
:10584000E02675690D4E366803FB06F44FF0E0263E
:10585000B16910E04FF0E026B06988420BD0884271
:1058600002D20E1A324402E02E1A0E44324401468D
:10587000A24200D300E0EDE700BF70BD04000020AD
:105880002DE9F04781460C4616463C214846FAF77A
:1058900007FD05463E214846FAF702FD0746ADB131
:1058A000A7B1BD4212D2781BA0F10108701E40457D
:1058B00001D9404600E0701E80464246691C2046E1
:1058C000FAF7E2FC002004F8080001E00020207054
:1058D000BDE8F08700BF054A126802F04002002AC6
:1058E000F9D0C2B2014B5A6070470000001001406D
:1058F00010B504460AE0FAF79FFC00682178405C86
:1059000000F0980008B9002010BD641C2078002821
:10591000F1D10120F8E70000D6B0FCF759F80423D4
:10592000022208216020FFF75DFB6020FFF76EFF79
:105930004FF4E13000F0A4F8FFF752FF4FF4A872E3
:105940001D4902A8FAF77CFC0C2102A8FDF7EAFF2A
:105950004FF47A730A2258211848FBF7D7FC10B984
:1059600017A0FFF70DFE4FF47A730A224021134867
:10597000FBF7CCFC10B916A0FFF702FE18A103C973
:10598000CDE90001052269461820FFF7E3FD11E08B
:105990001548007828B10020134908701348FAF719
:1059A000B7FF1348007828B100224FF47A71142011
:1059B000FAF7EAFEECE70000B85A00088C0900206C
:1059C000414435313735205355434345530A000090
:1059D00050434139363938205355434345530A0023
:1059E000FFFFFFFFFF0000000F0000200408002061
:1059F000B005002000B587B000BF002001901E4810
:105A0000006840F002001C4908600846006800F089
:105A10000200019000BF00BF881502900120039092
:105A200004900320059002A91448FBF795FA202062
:105A3000029002A91148FBF78FFA4FF40070029010
:105A40000020039002A90D48FBF786FA01221102FB
:105A50000A48FBF773FB002220210848FBF76EFB86
:105A60004FF400710548FBF761FB012802D00020CC
:105A700007B000BD0120FBE73038024000040240BF
:105A800010B5044609480A490860084644600021E8
:105A90008160C160016181610C214161FCF717FDEA
:105AA000012204490248FCF799FD10BD0010014095
:105AB000840600200E0000204331583247000000C9
:105AC00000000000000000000000000000000000D6
:105AD000E9070008433158325F53544154450000F0
